{
	"contracts/SWA.sol": {
		"SingleSwap": {
			"abi": [
				{
					"inputs": [],
					"stateMutability": "nonpayable",
					"type": "constructor"
				},
				{
					"inputs": [],
					"name": "LINK",
					"outputs": [
						{
							"internalType": "address",
							"name": "",
							"type": "address"
						}
					],
					"stateMutability": "view",
					"type": "function"
				},
				{
					"inputs": [],
					"name": "WETH",
					"outputs": [
						{
							"internalType": "address",
							"name": "",
							"type": "address"
						}
					],
					"stateMutability": "view",
					"type": "function"
				},
				{
					"inputs": [],
					"name": "linkToken",
					"outputs": [
						{
							"internalType": "contract IERC20",
							"name": "",
							"type": "address"
						}
					],
					"stateMutability": "view",
					"type": "function"
				},
				{
					"inputs": [],
					"name": "poolFee",
					"outputs": [
						{
							"internalType": "uint24",
							"name": "",
							"type": "uint24"
						}
					],
					"stateMutability": "view",
					"type": "function"
				},
				{
					"inputs": [],
					"name": "routerAddress",
					"outputs": [
						{
							"internalType": "address",
							"name": "",
							"type": "address"
						}
					],
					"stateMutability": "view",
					"type": "function"
				},
				{
					"inputs": [
						{
							"internalType": "uint256",
							"name": "amountIn",
							"type": "uint256"
						}
					],
					"name": "swapExactInputSingle",
					"outputs": [
						{
							"internalType": "uint256",
							"name": "amountOut",
							"type": "uint256"
						}
					],
					"stateMutability": "nonpayable",
					"type": "function"
				},
				{
					"inputs": [
						{
							"internalType": "uint256",
							"name": "amountOut",
							"type": "uint256"
						},
						{
							"internalType": "uint256",
							"name": "amountInMaximum",
							"type": "uint256"
						}
					],
					"name": "swapExactOutputSingle",
					"outputs": [
						{
							"internalType": "uint256",
							"name": "amountIn",
							"type": "uint256"
						}
					],
					"stateMutability": "nonpayable",
					"type": "function"
				},
				{
					"inputs": [],
					"name": "swapRouter",
					"outputs": [
						{
							"internalType": "contract ISwapRouter",
							"name": "",
							"type": "address"
						}
					],
					"stateMutability": "view",
					"type": "function"
				}
			],
			"devdoc": {
				"kind": "dev",
				"methods": {},
				"version": 1
			},
			"evm": {
				"assembly": "    /* \"contracts/SWA.sol\":468:2602  contract SingleSwap {... */\n  mstore(0x40, 0xa0)\n    /* \"contracts/SWA.sol\":544:586  0x0227628f3F023bb0B980b67D528571c95c6DaC1c */\n  0x0227628f3f023bb0b980b67d528571c95c6dac1c\n    /* \"contracts/SWA.sol\":593:661  ISwapRouter public immutable swapRouter = ISwapRouter(routerAddress) */\n  0xffffffffffffffffffffffffffffffffffffffff\n  and\n  0x80\n  swap1\n  0xffffffffffffffffffffffffffffffffffffffff\n  and\n  dup2\n  mstore\n  pop\n    /* \"contracts/SWA.sol\":703:745  0x779877A7B0D9E8603169DdbD7836e478b4624789 */\n  0x779877a7b0d9e8603169ddbd7836e478b4624789\n    /* \"contracts/SWA.sol\":836:874  IERC20 public linkToken = IERC20(LINK) */\n  0x00\n  dup1\n  0x0100\n  exp\n  dup2\n  sload\n  dup2\n  0xffffffffffffffffffffffffffffffffffffffff\n  mul\n  not\n  and\n  swap1\n  dup4\n  0xffffffffffffffffffffffffffffffffffffffff\n  and\n  mul\n  or\n  swap1\n  sstore\n  pop\n    /* \"contracts/SWA.sol\":993:1009  constructor() {} */\n  callvalue\n  dup1\n  iszero\n  tag_1\n  jumpi\n  0x00\n  dup1\n  revert\ntag_1:\n  pop\n    /* \"contracts/SWA.sol\":468:2602  contract SingleSwap {... */\n  mload(0x80)\n  codecopy(0x00, dataOffset(sub_0), dataSize(sub_0))\n  0x00\n  assignImmutable(\"0xc5bf1d490d2f4e87cc1d5184cd59114bcef0e857ac09f6d840a1caed5b52d973\")\n  return(0x00, dataSize(sub_0))\nstop\n\nsub_0: assembly {\n        /* \"contracts/SWA.sol\":468:2602  contract SingleSwap {... */\n      mstore(0x40, 0x80)\n      callvalue\n      dup1\n      iszero\n      tag_1\n      jumpi\n      0x00\n      dup1\n      revert\n    tag_1:\n      pop\n      jumpi(tag_2, lt(calldatasize, 0x04))\n      shr(0xe0, calldataload(0x00))\n      dup1\n      0x73bd43ad\n      gt\n      tag_11\n      jumpi\n      dup1\n      0x73bd43ad\n      eq\n      tag_7\n      jumpi\n      dup1\n      0xad5c4648\n      eq\n      tag_8\n      jumpi\n      dup1\n      0xc31c9c07\n      eq\n      tag_9\n      jumpi\n      dup1\n      0xc4b69a18\n      eq\n      tag_10\n      jumpi\n      jump(tag_2)\n    tag_11:\n      dup1\n      0x089fe6aa\n      eq\n      tag_3\n      jumpi\n      dup1\n      0x1b6b6d23\n      eq\n      tag_4\n      jumpi\n      dup1\n      0x3268cc56\n      eq\n      tag_5\n      jumpi\n      dup1\n      0x57970e93\n      eq\n      tag_6\n      jumpi\n    tag_2:\n      0x00\n      dup1\n      revert\n        /* \"contracts/SWA.sol\":945:982  uint24 public constant poolFee = 3000 */\n    tag_3:\n      tag_12\n      tag_13\n      jump\t// in\n    tag_12:\n      mload(0x40)\n      tag_14\n      swap2\n      swap1\n      tag_15\n      jump\t// in\n    tag_14:\n      mload(0x40)\n      dup1\n      swap2\n      sub\n      swap1\n      return\n        /* \"contracts/SWA.sol\":672:745  address public constant LINK = 0x779877A7B0D9E8603169DdbD7836e478b4624789 */\n    tag_4:\n      tag_16\n      tag_17\n      jump\t// in\n    tag_16:\n      mload(0x40)\n      tag_18\n      swap2\n      swap1\n      tag_19\n      jump\t// in\n    tag_18:\n      mload(0x40)\n      dup1\n      swap2\n      sub\n      swap1\n      return\n        /* \"contracts/SWA.sol\":495:586  address public constant routerAddress =... */\n    tag_5:\n      tag_20\n      tag_21\n      jump\t// in\n    tag_20:\n      mload(0x40)\n      tag_22\n      swap2\n      swap1\n      tag_19\n      jump\t// in\n    tag_22:\n      mload(0x40)\n      dup1\n      swap2\n      sub\n      swap1\n      return\n        /* \"contracts/SWA.sol\":836:874  IERC20 public linkToken = IERC20(LINK) */\n    tag_6:\n      tag_23\n      tag_24\n      jump\t// in\n    tag_23:\n      mload(0x40)\n      tag_25\n      swap2\n      swap1\n      tag_26\n      jump\t// in\n    tag_25:\n      mload(0x40)\n      dup1\n      swap2\n      sub\n      swap1\n      return\n        /* \"contracts/SWA.sol\":1019:1684  function swapExactInputSingle(uint256 amountIn)... */\n    tag_7:\n      tag_27\n      0x04\n      dup1\n      calldatasize\n      sub\n      dup2\n      add\n      swap1\n      tag_28\n      swap2\n      swap1\n      tag_29\n      jump\t// in\n    tag_28:\n      tag_30\n      jump\t// in\n    tag_27:\n      mload(0x40)\n      tag_31\n      swap2\n      swap1\n      tag_32\n      jump\t// in\n    tag_31:\n      mload(0x40)\n      dup1\n      swap2\n      sub\n      swap1\n      return\n        /* \"contracts/SWA.sol\":752:825  address public constant WETH = 0xE67ABDA0D43f7AC8f37876bBF00D1DFadbB93aaa */\n    tag_8:\n      tag_33\n      tag_34\n      jump\t// in\n    tag_33:\n      mload(0x40)\n      tag_35\n      swap2\n      swap1\n      tag_19\n      jump\t// in\n    tag_35:\n      mload(0x40)\n      dup1\n      swap2\n      sub\n      swap1\n      return\n        /* \"contracts/SWA.sol\":593:661  ISwapRouter public immutable swapRouter = ISwapRouter(routerAddress) */\n    tag_9:\n      tag_36\n      tag_37\n      jump\t// in\n    tag_36:\n      mload(0x40)\n      tag_38\n      swap2\n      swap1\n      tag_39\n      jump\t// in\n    tag_38:\n      mload(0x40)\n      dup1\n      swap2\n      sub\n      swap1\n      return\n        /* \"contracts/SWA.sol\":1694:2599  function swapExactOutputSingle(uint256 amountOut, uint256 amountInMaximum)... */\n    tag_10:\n      tag_40\n      0x04\n      dup1\n      calldatasize\n      sub\n      dup2\n      add\n      swap1\n      tag_41\n      swap2\n      swap1\n      tag_42\n      jump\t// in\n    tag_41:\n      tag_43\n      jump\t// in\n    tag_40:\n      mload(0x40)\n      tag_44\n      swap2\n      swap1\n      tag_32\n      jump\t// in\n    tag_44:\n      mload(0x40)\n      dup1\n      swap2\n      sub\n      swap1\n      return\n        /* \"contracts/SWA.sol\":945:982  uint24 public constant poolFee = 3000 */\n    tag_13:\n        /* \"contracts/SWA.sol\":978:982  3000 */\n      0x0bb8\n        /* \"contracts/SWA.sol\":945:982  uint24 public constant poolFee = 3000 */\n      dup2\n      jump\t// out\n        /* \"contracts/SWA.sol\":672:745  address public constant LINK = 0x779877A7B0D9E8603169DdbD7836e478b4624789 */\n    tag_17:\n        /* \"contracts/SWA.sol\":703:745  0x779877A7B0D9E8603169DdbD7836e478b4624789 */\n      0x779877a7b0d9e8603169ddbd7836e478b4624789\n        /* \"contracts/SWA.sol\":672:745  address public constant LINK = 0x779877A7B0D9E8603169DdbD7836e478b4624789 */\n      dup2\n      jump\t// out\n        /* \"contracts/SWA.sol\":495:586  address public constant routerAddress =... */\n    tag_21:\n        /* \"contracts/SWA.sol\":544:586  0x0227628f3F023bb0B980b67D528571c95c6DaC1c */\n      0x0227628f3f023bb0b980b67d528571c95c6dac1c\n        /* \"contracts/SWA.sol\":495:586  address public constant routerAddress =... */\n      dup2\n      jump\t// out\n        /* \"contracts/SWA.sol\":836:874  IERC20 public linkToken = IERC20(LINK) */\n    tag_24:\n      0x00\n      dup1\n      sload\n      swap1\n      0x0100\n      exp\n      swap1\n      div\n      0xffffffffffffffffffffffffffffffffffffffff\n      and\n      dup2\n      jump\t// out\n        /* \"contracts/SWA.sol\":1019:1684  function swapExactInputSingle(uint256 amountIn)... */\n    tag_30:\n        /* \"contracts/SWA.sol\":1103:1120  uint256 amountOut */\n      0x00\n        /* \"contracts/SWA.sol\":1138:1147  linkToken */\n      dup1\n      0x00\n      swap1\n      sload\n      swap1\n      0x0100\n      exp\n      swap1\n      div\n      0xffffffffffffffffffffffffffffffffffffffff\n      and\n        /* \"contracts/SWA.sol\":1138:1155  linkToken.approve */\n      0xffffffffffffffffffffffffffffffffffffffff\n      and\n      0x095ea7b3\n        /* \"contracts/SWA.sol\":1164:1174  swapRouter */\n      immutable(\"0xc5bf1d490d2f4e87cc1d5184cd59114bcef0e857ac09f6d840a1caed5b52d973\")\n        /* \"contracts/SWA.sol\":1177:1185  amountIn */\n      dup5\n        /* \"contracts/SWA.sol\":1138:1186  linkToken.approve(address(swapRouter), amountIn) */\n      mload(0x40)\n      dup4\n      0xffffffff\n      and\n      0xe0\n      shl\n      dup2\n      mstore\n      0x04\n      add\n      tag_46\n      swap3\n      swap2\n      swap1\n      tag_47\n      jump\t// in\n    tag_46:\n      0x20\n      mload(0x40)\n      dup1\n      dup4\n      sub\n      dup2\n      0x00\n      dup8\n      gas\n      call\n      iszero\n      dup1\n      iszero\n      tag_49\n      jumpi\n      returndatasize\n      0x00\n      dup1\n      returndatacopy\n      revert(0x00, returndatasize)\n    tag_49:\n      pop\n      pop\n      pop\n      pop\n      mload(0x40)\n      returndatasize\n      not(0x1f)\n      0x1f\n      dup3\n      add\n      and\n      dup3\n      add\n      dup1\n      0x40\n      mstore\n      pop\n      dup2\n      add\n      swap1\n      tag_50\n      swap2\n      swap1\n      tag_51\n      jump\t// in\n    tag_50:\n      pop\n        /* \"contracts/SWA.sol\":1201:1249  ISwapRouter.ExactInputSingleParams memory params */\n      0x00\n        /* \"contracts/SWA.sol\":1252:1614  ISwapRouter... */\n      mload(0x40)\n      dup1\n      0x0100\n      add\n      0x40\n      mstore\n      dup1\n        /* \"contracts/SWA.sol\":703:745  0x779877A7B0D9E8603169DdbD7836e478b4624789 */\n      0x779877a7b0d9e8603169ddbd7836e478b4624789\n        /* \"contracts/SWA.sol\":1252:1614  ISwapRouter... */\n      0xffffffffffffffffffffffffffffffffffffffff\n      and\n      dup2\n      mstore\n      0x20\n      add\n        /* \"contracts/SWA.sol\":783:825  0xE67ABDA0D43f7AC8f37876bBF00D1DFadbB93aaa */\n      0xe67abda0d43f7ac8f37876bbf00d1dfadbb93aaa\n        /* \"contracts/SWA.sol\":1252:1614  ISwapRouter... */\n      0xffffffffffffffffffffffffffffffffffffffff\n      and\n      dup2\n      mstore\n      0x20\n      add\n        /* \"contracts/SWA.sol\":978:982  3000 */\n      0x0bb8\n        /* \"contracts/SWA.sol\":1252:1614  ISwapRouter... */\n      0xffffff\n      and\n      dup2\n      mstore\n      0x20\n      add\n        /* \"contracts/SWA.sol\":1435:1439  this */\n      address\n        /* \"contracts/SWA.sol\":1252:1614  ISwapRouter... */\n      0xffffffffffffffffffffffffffffffffffffffff\n      and\n      dup2\n      mstore\n      0x20\n      add\n        /* \"contracts/SWA.sol\":1469:1484  block.timestamp */\n      timestamp\n        /* \"contracts/SWA.sol\":1252:1614  ISwapRouter... */\n      dup2\n      mstore\n      0x20\n      add\n        /* \"contracts/SWA.sol\":1513:1521  amountIn */\n      dup5\n        /* \"contracts/SWA.sol\":1252:1614  ISwapRouter... */\n      dup2\n      mstore\n      0x20\n      add\n        /* \"contracts/SWA.sol\":1558:1559  0 */\n      0x00\n        /* \"contracts/SWA.sol\":1252:1614  ISwapRouter... */\n      dup2\n      mstore\n      0x20\n      add\n        /* \"contracts/SWA.sol\":1597:1598  0 */\n      0x00\n        /* \"contracts/SWA.sol\":1252:1614  ISwapRouter... */\n      0xffffffffffffffffffffffffffffffffffffffff\n      and\n      dup2\n      mstore\n      pop\n        /* \"contracts/SWA.sol\":1201:1614  ISwapRouter.ExactInputSingleParams memory params = ISwapRouter... */\n      swap1\n      pop\n        /* \"contracts/SWA.sol\":1641:1651  swapRouter */\n      immutable(\"0xc5bf1d490d2f4e87cc1d5184cd59114bcef0e857ac09f6d840a1caed5b52d973\")\n        /* \"contracts/SWA.sol\":1641:1668  swapRouter.exactInputSingle */\n      0xffffffffffffffffffffffffffffffffffffffff\n      and\n      0x414bf389\n        /* \"contracts/SWA.sol\":1669:1675  params */\n      dup3\n        /* \"contracts/SWA.sol\":1641:1676  swapRouter.exactInputSingle(params) */\n      mload(0x40)\n      dup3\n      0xffffffff\n      and\n      0xe0\n      shl\n      dup2\n      mstore\n      0x04\n      add\n      tag_52\n      swap2\n      swap1\n      tag_53\n      jump\t// in\n    tag_52:\n      0x20\n      mload(0x40)\n      dup1\n      dup4\n      sub\n      dup2\n      0x00\n      dup8\n      gas\n      call\n      iszero\n      dup1\n      iszero\n      tag_55\n      jumpi\n      returndatasize\n      0x00\n      dup1\n      returndatacopy\n      revert(0x00, returndatasize)\n    tag_55:\n      pop\n      pop\n      pop\n      pop\n      mload(0x40)\n      returndatasize\n      not(0x1f)\n      0x1f\n      dup3\n      add\n      and\n      dup3\n      add\n      dup1\n      0x40\n      mstore\n      pop\n      dup2\n      add\n      swap1\n      tag_56\n      swap2\n      swap1\n      tag_57\n      jump\t// in\n    tag_56:\n        /* \"contracts/SWA.sol\":1629:1676  amountOut = swapRouter.exactInputSingle(params) */\n      swap2\n      pop\n        /* \"contracts/SWA.sol\":1127:1684  {... */\n      pop\n        /* \"contracts/SWA.sol\":1019:1684  function swapExactInputSingle(uint256 amountIn)... */\n      swap2\n      swap1\n      pop\n      jump\t// out\n        /* \"contracts/SWA.sol\":752:825  address public constant WETH = 0xE67ABDA0D43f7AC8f37876bBF00D1DFadbB93aaa */\n    tag_34:\n        /* \"contracts/SWA.sol\":783:825  0xE67ABDA0D43f7AC8f37876bBF00D1DFadbB93aaa */\n      0xe67abda0d43f7ac8f37876bbf00d1dfadbb93aaa\n        /* \"contracts/SWA.sol\":752:825  address public constant WETH = 0xE67ABDA0D43f7AC8f37876bBF00D1DFadbB93aaa */\n      dup2\n      jump\t// out\n        /* \"contracts/SWA.sol\":593:661  ISwapRouter public immutable swapRouter = ISwapRouter(routerAddress) */\n    tag_37:\n      immutable(\"0xc5bf1d490d2f4e87cc1d5184cd59114bcef0e857ac09f6d840a1caed5b52d973\")\n      dup2\n      jump\t// out\n        /* \"contracts/SWA.sol\":1694:2599  function swapExactOutputSingle(uint256 amountOut, uint256 amountInMaximum)... */\n    tag_43:\n        /* \"contracts/SWA.sol\":1805:1821  uint256 amountIn */\n      0x00\n        /* \"contracts/SWA.sol\":1839:1848  linkToken */\n      dup1\n      0x00\n      swap1\n      sload\n      swap1\n      0x0100\n      exp\n      swap1\n      div\n      0xffffffffffffffffffffffffffffffffffffffff\n      and\n        /* \"contracts/SWA.sol\":1839:1856  linkToken.approve */\n      0xffffffffffffffffffffffffffffffffffffffff\n      and\n      0x095ea7b3\n        /* \"contracts/SWA.sol\":1865:1875  swapRouter */\n      immutable(\"0xc5bf1d490d2f4e87cc1d5184cd59114bcef0e857ac09f6d840a1caed5b52d973\")\n        /* \"contracts/SWA.sol\":1878:1893  amountInMaximum */\n      dup5\n        /* \"contracts/SWA.sol\":1839:1894  linkToken.approve(address(swapRouter), amountInMaximum) */\n      mload(0x40)\n      dup4\n      0xffffffff\n      and\n      0xe0\n      shl\n      dup2\n      mstore\n      0x04\n      add\n      tag_59\n      swap3\n      swap2\n      swap1\n      tag_47\n      jump\t// in\n    tag_59:\n      0x20\n      mload(0x40)\n      dup1\n      dup4\n      sub\n      dup2\n      0x00\n      dup8\n      gas\n      call\n      iszero\n      dup1\n      iszero\n      tag_61\n      jumpi\n      returndatasize\n      0x00\n      dup1\n      returndatacopy\n      revert(0x00, returndatasize)\n    tag_61:\n      pop\n      pop\n      pop\n      pop\n      mload(0x40)\n      returndatasize\n      not(0x1f)\n      0x1f\n      dup3\n      add\n      and\n      dup3\n      add\n      dup1\n      0x40\n      mstore\n      pop\n      dup2\n      add\n      swap1\n      tag_62\n      swap2\n      swap1\n      tag_51\n      jump\t// in\n    tag_62:\n      pop\n        /* \"contracts/SWA.sol\":1909:1958  ISwapRouter.ExactOutputSingleParams memory params */\n      0x00\n        /* \"contracts/SWA.sol\":1961:2339  ISwapRouter... */\n      mload(0x40)\n      dup1\n      0x0100\n      add\n      0x40\n      mstore\n      dup1\n        /* \"contracts/SWA.sol\":703:745  0x779877A7B0D9E8603169DdbD7836e478b4624789 */\n      0x779877a7b0d9e8603169ddbd7836e478b4624789\n        /* \"contracts/SWA.sol\":1961:2339  ISwapRouter... */\n      0xffffffffffffffffffffffffffffffffffffffff\n      and\n      dup2\n      mstore\n      0x20\n      add\n        /* \"contracts/SWA.sol\":783:825  0xE67ABDA0D43f7AC8f37876bBF00D1DFadbB93aaa */\n      0xe67abda0d43f7ac8f37876bbf00d1dfadbb93aaa\n        /* \"contracts/SWA.sol\":1961:2339  ISwapRouter... */\n      0xffffffffffffffffffffffffffffffffffffffff\n      and\n      dup2\n      mstore\n      0x20\n      add\n        /* \"contracts/SWA.sol\":978:982  3000 */\n      0x0bb8\n        /* \"contracts/SWA.sol\":1961:2339  ISwapRouter... */\n      0xffffff\n      and\n      dup2\n      mstore\n      0x20\n      add\n        /* \"contracts/SWA.sol\":2145:2149  this */\n      address\n        /* \"contracts/SWA.sol\":1961:2339  ISwapRouter... */\n      0xffffffffffffffffffffffffffffffffffffffff\n      and\n      dup2\n      mstore\n      0x20\n      add\n        /* \"contracts/SWA.sol\":2179:2194  block.timestamp */\n      timestamp\n        /* \"contracts/SWA.sol\":1961:2339  ISwapRouter... */\n      dup2\n      mstore\n      0x20\n      add\n        /* \"contracts/SWA.sol\":2224:2233  amountOut */\n      dup6\n        /* \"contracts/SWA.sol\":1961:2339  ISwapRouter... */\n      dup2\n      mstore\n      0x20\n      add\n        /* \"contracts/SWA.sol\":2269:2284  amountInMaximum */\n      dup5\n        /* \"contracts/SWA.sol\":1961:2339  ISwapRouter... */\n      dup2\n      mstore\n      0x20\n      add\n        /* \"contracts/SWA.sol\":2322:2323  0 */\n      0x00\n        /* \"contracts/SWA.sol\":1961:2339  ISwapRouter... */\n      0xffffffffffffffffffffffffffffffffffffffff\n      and\n      dup2\n      mstore\n      pop\n        /* \"contracts/SWA.sol\":1909:2339  ISwapRouter.ExactOutputSingleParams memory params = ISwapRouter... */\n      swap1\n      pop\n        /* \"contracts/SWA.sol\":2365:2375  swapRouter */\n      immutable(\"0xc5bf1d490d2f4e87cc1d5184cd59114bcef0e857ac09f6d840a1caed5b52d973\")\n        /* \"contracts/SWA.sol\":2365:2393  swapRouter.exactOutputSingle */\n      0xffffffffffffffffffffffffffffffffffffffff\n      and\n      0xdb3e2198\n        /* \"contracts/SWA.sol\":2394:2400  params */\n      dup3\n        /* \"contracts/SWA.sol\":2365:2401  swapRouter.exactOutputSingle(params) */\n      mload(0x40)\n      dup3\n      0xffffffff\n      and\n      0xe0\n      shl\n      dup2\n      mstore\n      0x04\n      add\n      tag_63\n      swap2\n      swap1\n      tag_64\n      jump\t// in\n    tag_63:\n      0x20\n      mload(0x40)\n      dup1\n      dup4\n      sub\n      dup2\n      0x00\n      dup8\n      gas\n      call\n      iszero\n      dup1\n      iszero\n      tag_66\n      jumpi\n      returndatasize\n      0x00\n      dup1\n      returndatacopy\n      revert(0x00, returndatasize)\n    tag_66:\n      pop\n      pop\n      pop\n      pop\n      mload(0x40)\n      returndatasize\n      not(0x1f)\n      0x1f\n      dup3\n      add\n      and\n      dup3\n      add\n      dup1\n      0x40\n      mstore\n      pop\n      dup2\n      add\n      swap1\n      tag_67\n      swap2\n      swap1\n      tag_57\n      jump\t// in\n    tag_67:\n        /* \"contracts/SWA.sol\":2354:2401  amountIn = swapRouter.exactOutputSingle(params) */\n      swap2\n      pop\n        /* \"contracts/SWA.sol\":2431:2446  amountInMaximum */\n      dup3\n        /* \"contracts/SWA.sol\":2420:2428  amountIn */\n      dup3\n        /* \"contracts/SWA.sol\":2420:2446  amountIn < amountInMaximum */\n      lt\n        /* \"contracts/SWA.sol\":2416:2592  if (amountIn < amountInMaximum) {... */\n      iszero\n      tag_68\n      jumpi\n        /* \"contracts/SWA.sol\":2463:2472  linkToken */\n      0x00\n      dup1\n      sload\n      swap1\n      0x0100\n      exp\n      swap1\n      div\n      0xffffffffffffffffffffffffffffffffffffffff\n      and\n        /* \"contracts/SWA.sol\":2463:2480  linkToken.approve */\n      0xffffffffffffffffffffffffffffffffffffffff\n      and\n      0x095ea7b3\n        /* \"contracts/SWA.sol\":2489:2499  swapRouter */\n      immutable(\"0xc5bf1d490d2f4e87cc1d5184cd59114bcef0e857ac09f6d840a1caed5b52d973\")\n        /* \"contracts/SWA.sol\":2502:2503  0 */\n      0x00\n        /* \"contracts/SWA.sol\":2463:2504  linkToken.approve(address(swapRouter), 0) */\n      mload(0x40)\n      dup4\n      0xffffffff\n      and\n      0xe0\n      shl\n      dup2\n      mstore\n      0x04\n      add\n      tag_69\n      swap3\n      swap2\n      swap1\n      tag_70\n      jump\t// in\n    tag_69:\n      0x20\n      mload(0x40)\n      dup1\n      dup4\n      sub\n      dup2\n      0x00\n      dup8\n      gas\n      call\n      iszero\n      dup1\n      iszero\n      tag_72\n      jumpi\n      returndatasize\n      0x00\n      dup1\n      returndatacopy\n      revert(0x00, returndatasize)\n    tag_72:\n      pop\n      pop\n      pop\n      pop\n      mload(0x40)\n      returndatasize\n      not(0x1f)\n      0x1f\n      dup3\n      add\n      and\n      dup3\n      add\n      dup1\n      0x40\n      mstore\n      pop\n      dup2\n      add\n      swap1\n      tag_73\n      swap2\n      swap1\n      tag_51\n      jump\t// in\n    tag_73:\n      pop\n        /* \"contracts/SWA.sol\":2519:2528  linkToken */\n      0x00\n      dup1\n      sload\n      swap1\n      0x0100\n      exp\n      swap1\n      div\n      0xffffffffffffffffffffffffffffffffffffffff\n      and\n        /* \"contracts/SWA.sol\":2519:2537  linkToken.transfer */\n      0xffffffffffffffffffffffffffffffffffffffff\n      and\n      0xa9059cbb\n        /* \"contracts/SWA.sol\":2546:2550  this */\n      address\n        /* \"contracts/SWA.sol\":2571:2579  amountIn */\n      dup5\n        /* \"contracts/SWA.sol\":2553:2568  amountInMaximum */\n      dup7\n        /* \"contracts/SWA.sol\":2553:2579  amountInMaximum - amountIn */\n      tag_74\n      swap2\n      swap1\n      tag_75\n      jump\t// in\n    tag_74:\n        /* \"contracts/SWA.sol\":2519:2580  linkToken.transfer(address(this), amountInMaximum - amountIn) */\n      mload(0x40)\n      dup4\n      0xffffffff\n      and\n      0xe0\n      shl\n      dup2\n      mstore\n      0x04\n      add\n      tag_76\n      swap3\n      swap2\n      swap1\n      tag_47\n      jump\t// in\n    tag_76:\n      0x20\n      mload(0x40)\n      dup1\n      dup4\n      sub\n      dup2\n      0x00\n      dup8\n      gas\n      call\n      iszero\n      dup1\n      iszero\n      tag_78\n      jumpi\n      returndatasize\n      0x00\n      dup1\n      returndatacopy\n      revert(0x00, returndatasize)\n    tag_78:\n      pop\n      pop\n      pop\n      pop\n      mload(0x40)\n      returndatasize\n      not(0x1f)\n      0x1f\n      dup3\n      add\n      and\n      dup3\n      add\n      dup1\n      0x40\n      mstore\n      pop\n      dup2\n      add\n      swap1\n      tag_79\n      swap2\n      swap1\n      tag_51\n      jump\t// in\n    tag_79:\n      pop\n        /* \"contracts/SWA.sol\":2416:2592  if (amountIn < amountInMaximum) {... */\n    tag_68:\n        /* \"contracts/SWA.sol\":1828:2599  {... */\n      pop\n        /* \"contracts/SWA.sol\":1694:2599  function swapExactOutputSingle(uint256 amountOut, uint256 amountInMaximum)... */\n      swap3\n      swap2\n      pop\n      pop\n      jump\t// out\n        /* \"#utility.yul\":7:98   */\n    tag_80:\n        /* \"#utility.yul\":43:50   */\n      0x00\n        /* \"#utility.yul\":83:91   */\n      0xffffff\n        /* \"#utility.yul\":76:81   */\n      dup3\n        /* \"#utility.yul\":72:92   */\n      and\n        /* \"#utility.yul\":61:92   */\n      swap1\n      pop\n        /* \"#utility.yul\":7:98   */\n      swap2\n      swap1\n      pop\n      jump\t// out\n        /* \"#utility.yul\":104:219   */\n    tag_81:\n        /* \"#utility.yul\":189:212   */\n      tag_116\n        /* \"#utility.yul\":206:211   */\n      dup2\n        /* \"#utility.yul\":189:212   */\n      tag_80\n      jump\t// in\n    tag_116:\n        /* \"#utility.yul\":184:187   */\n      dup3\n        /* \"#utility.yul\":177:213   */\n      mstore\n        /* \"#utility.yul\":104:219   */\n      pop\n      pop\n      jump\t// out\n        /* \"#utility.yul\":225:443   */\n    tag_15:\n        /* \"#utility.yul\":316:320   */\n      0x00\n        /* \"#utility.yul\":354:356   */\n      0x20\n        /* \"#utility.yul\":343:352   */\n      dup3\n        /* \"#utility.yul\":339:357   */\n      add\n        /* \"#utility.yul\":331:357   */\n      swap1\n      pop\n        /* \"#utility.yul\":367:436   */\n      tag_118\n        /* \"#utility.yul\":433:434   */\n      0x00\n        /* \"#utility.yul\":422:431   */\n      dup4\n        /* \"#utility.yul\":418:435   */\n      add\n        /* \"#utility.yul\":409:415   */\n      dup5\n        /* \"#utility.yul\":367:436   */\n      tag_81\n      jump\t// in\n    tag_118:\n        /* \"#utility.yul\":225:443   */\n      swap3\n      swap2\n      pop\n      pop\n      jump\t// out\n        /* \"#utility.yul\":449:575   */\n    tag_82:\n        /* \"#utility.yul\":486:493   */\n      0x00\n        /* \"#utility.yul\":526:568   */\n      0xffffffffffffffffffffffffffffffffffffffff\n        /* \"#utility.yul\":519:524   */\n      dup3\n        /* \"#utility.yul\":515:569   */\n      and\n        /* \"#utility.yul\":504:569   */\n      swap1\n      pop\n        /* \"#utility.yul\":449:575   */\n      swap2\n      swap1\n      pop\n      jump\t// out\n        /* \"#utility.yul\":581:677   */\n    tag_83:\n        /* \"#utility.yul\":618:625   */\n      0x00\n        /* \"#utility.yul\":647:671   */\n      tag_121\n        /* \"#utility.yul\":665:670   */\n      dup3\n        /* \"#utility.yul\":647:671   */\n      tag_82\n      jump\t// in\n    tag_121:\n        /* \"#utility.yul\":636:671   */\n      swap1\n      pop\n        /* \"#utility.yul\":581:677   */\n      swap2\n      swap1\n      pop\n      jump\t// out\n        /* \"#utility.yul\":683:801   */\n    tag_84:\n        /* \"#utility.yul\":770:794   */\n      tag_123\n        /* \"#utility.yul\":788:793   */\n      dup2\n        /* \"#utility.yul\":770:794   */\n      tag_83\n      jump\t// in\n    tag_123:\n        /* \"#utility.yul\":765:768   */\n      dup3\n        /* \"#utility.yul\":758:795   */\n      mstore\n        /* \"#utility.yul\":683:801   */\n      pop\n      pop\n      jump\t// out\n        /* \"#utility.yul\":807:1029   */\n    tag_19:\n        /* \"#utility.yul\":900:904   */\n      0x00\n        /* \"#utility.yul\":938:940   */\n      0x20\n        /* \"#utility.yul\":927:936   */\n      dup3\n        /* \"#utility.yul\":923:941   */\n      add\n        /* \"#utility.yul\":915:941   */\n      swap1\n      pop\n        /* \"#utility.yul\":951:1022   */\n      tag_125\n        /* \"#utility.yul\":1019:1020   */\n      0x00\n        /* \"#utility.yul\":1008:1017   */\n      dup4\n        /* \"#utility.yul\":1004:1021   */\n      add\n        /* \"#utility.yul\":995:1001   */\n      dup5\n        /* \"#utility.yul\":951:1022   */\n      tag_84\n      jump\t// in\n    tag_125:\n        /* \"#utility.yul\":807:1029   */\n      swap3\n      swap2\n      pop\n      pop\n      jump\t// out\n        /* \"#utility.yul\":1035:1095   */\n    tag_85:\n        /* \"#utility.yul\":1063:1066   */\n      0x00\n        /* \"#utility.yul\":1084:1089   */\n      dup2\n        /* \"#utility.yul\":1077:1089   */\n      swap1\n      pop\n        /* \"#utility.yul\":1035:1095   */\n      swap2\n      swap1\n      pop\n      jump\t// out\n        /* \"#utility.yul\":1101:1243   */\n    tag_86:\n        /* \"#utility.yul\":1151:1160   */\n      0x00\n        /* \"#utility.yul\":1184:1237   */\n      tag_128\n        /* \"#utility.yul\":1202:1236   */\n      tag_129\n        /* \"#utility.yul\":1211:1235   */\n      tag_130\n        /* \"#utility.yul\":1229:1234   */\n      dup5\n        /* \"#utility.yul\":1211:1235   */\n      tag_82\n      jump\t// in\n    tag_130:\n        /* \"#utility.yul\":1202:1236   */\n      tag_85\n      jump\t// in\n    tag_129:\n        /* \"#utility.yul\":1184:1237   */\n      tag_82\n      jump\t// in\n    tag_128:\n        /* \"#utility.yul\":1171:1237   */\n      swap1\n      pop\n        /* \"#utility.yul\":1101:1243   */\n      swap2\n      swap1\n      pop\n      jump\t// out\n        /* \"#utility.yul\":1249:1375   */\n    tag_87:\n        /* \"#utility.yul\":1299:1308   */\n      0x00\n        /* \"#utility.yul\":1332:1369   */\n      tag_132\n        /* \"#utility.yul\":1363:1368   */\n      dup3\n        /* \"#utility.yul\":1332:1369   */\n      tag_86\n      jump\t// in\n    tag_132:\n        /* \"#utility.yul\":1319:1369   */\n      swap1\n      pop\n        /* \"#utility.yul\":1249:1375   */\n      swap2\n      swap1\n      pop\n      jump\t// out\n        /* \"#utility.yul\":1381:1521   */\n    tag_88:\n        /* \"#utility.yul\":1445:1454   */\n      0x00\n        /* \"#utility.yul\":1478:1515   */\n      tag_134\n        /* \"#utility.yul\":1509:1514   */\n      dup3\n        /* \"#utility.yul\":1478:1515   */\n      tag_87\n      jump\t// in\n    tag_134:\n        /* \"#utility.yul\":1465:1515   */\n      swap1\n      pop\n        /* \"#utility.yul\":1381:1521   */\n      swap2\n      swap1\n      pop\n      jump\t// out\n        /* \"#utility.yul\":1527:1686   */\n    tag_89:\n        /* \"#utility.yul\":1628:1679   */\n      tag_136\n        /* \"#utility.yul\":1673:1678   */\n      dup2\n        /* \"#utility.yul\":1628:1679   */\n      tag_88\n      jump\t// in\n    tag_136:\n        /* \"#utility.yul\":1623:1626   */\n      dup3\n        /* \"#utility.yul\":1616:1680   */\n      mstore\n        /* \"#utility.yul\":1527:1686   */\n      pop\n      pop\n      jump\t// out\n        /* \"#utility.yul\":1692:1942   */\n    tag_26:\n        /* \"#utility.yul\":1799:1803   */\n      0x00\n        /* \"#utility.yul\":1837:1839   */\n      0x20\n        /* \"#utility.yul\":1826:1835   */\n      dup3\n        /* \"#utility.yul\":1822:1840   */\n      add\n        /* \"#utility.yul\":1814:1840   */\n      swap1\n      pop\n        /* \"#utility.yul\":1850:1935   */\n      tag_138\n        /* \"#utility.yul\":1932:1933   */\n      0x00\n        /* \"#utility.yul\":1921:1930   */\n      dup4\n        /* \"#utility.yul\":1917:1934   */\n      add\n        /* \"#utility.yul\":1908:1914   */\n      dup5\n        /* \"#utility.yul\":1850:1935   */\n      tag_89\n      jump\t// in\n    tag_138:\n        /* \"#utility.yul\":1692:1942   */\n      swap3\n      swap2\n      pop\n      pop\n      jump\t// out\n        /* \"#utility.yul\":2029:2146   */\n    tag_91:\n        /* \"#utility.yul\":2138:2139   */\n      0x00\n        /* \"#utility.yul\":2135:2136   */\n      dup1\n        /* \"#utility.yul\":2128:2140   */\n      revert\n        /* \"#utility.yul\":2275:2352   */\n    tag_93:\n        /* \"#utility.yul\":2312:2319   */\n      0x00\n        /* \"#utility.yul\":2341:2346   */\n      dup2\n        /* \"#utility.yul\":2330:2346   */\n      swap1\n      pop\n        /* \"#utility.yul\":2275:2352   */\n      swap2\n      swap1\n      pop\n      jump\t// out\n        /* \"#utility.yul\":2358:2480   */\n    tag_94:\n        /* \"#utility.yul\":2431:2455   */\n      tag_144\n        /* \"#utility.yul\":2449:2454   */\n      dup2\n        /* \"#utility.yul\":2431:2455   */\n      tag_93\n      jump\t// in\n    tag_144:\n        /* \"#utility.yul\":2424:2429   */\n      dup2\n        /* \"#utility.yul\":2421:2456   */\n      eq\n        /* \"#utility.yul\":2411:2474   */\n      tag_145\n      jumpi\n        /* \"#utility.yul\":2470:2471   */\n      0x00\n        /* \"#utility.yul\":2467:2468   */\n      dup1\n        /* \"#utility.yul\":2460:2472   */\n      revert\n        /* \"#utility.yul\":2411:2474   */\n    tag_145:\n        /* \"#utility.yul\":2358:2480   */\n      pop\n      jump\t// out\n        /* \"#utility.yul\":2486:2625   */\n    tag_95:\n        /* \"#utility.yul\":2532:2537   */\n      0x00\n        /* \"#utility.yul\":2570:2576   */\n      dup2\n        /* \"#utility.yul\":2557:2577   */\n      calldataload\n        /* \"#utility.yul\":2548:2577   */\n      swap1\n      pop\n        /* \"#utility.yul\":2586:2619   */\n      tag_147\n        /* \"#utility.yul\":2613:2618   */\n      dup2\n        /* \"#utility.yul\":2586:2619   */\n      tag_94\n      jump\t// in\n    tag_147:\n        /* \"#utility.yul\":2486:2625   */\n      swap3\n      swap2\n      pop\n      pop\n      jump\t// out\n        /* \"#utility.yul\":2631:2960   */\n    tag_29:\n        /* \"#utility.yul\":2690:2696   */\n      0x00\n        /* \"#utility.yul\":2739:2741   */\n      0x20\n        /* \"#utility.yul\":2727:2736   */\n      dup3\n        /* \"#utility.yul\":2718:2725   */\n      dup5\n        /* \"#utility.yul\":2714:2737   */\n      sub\n        /* \"#utility.yul\":2710:2742   */\n      slt\n        /* \"#utility.yul\":2707:2826   */\n      iszero\n      tag_149\n      jumpi\n        /* \"#utility.yul\":2745:2824   */\n      tag_150\n      tag_91\n      jump\t// in\n    tag_150:\n        /* \"#utility.yul\":2707:2826   */\n    tag_149:\n        /* \"#utility.yul\":2865:2866   */\n      0x00\n        /* \"#utility.yul\":2890:2943   */\n      tag_151\n        /* \"#utility.yul\":2935:2942   */\n      dup5\n        /* \"#utility.yul\":2926:2932   */\n      dup3\n        /* \"#utility.yul\":2915:2924   */\n      dup6\n        /* \"#utility.yul\":2911:2933   */\n      add\n        /* \"#utility.yul\":2890:2943   */\n      tag_95\n      jump\t// in\n    tag_151:\n        /* \"#utility.yul\":2880:2943   */\n      swap2\n      pop\n        /* \"#utility.yul\":2836:2953   */\n      pop\n        /* \"#utility.yul\":2631:2960   */\n      swap3\n      swap2\n      pop\n      pop\n      jump\t// out\n        /* \"#utility.yul\":2966:3084   */\n    tag_96:\n        /* \"#utility.yul\":3053:3077   */\n      tag_153\n        /* \"#utility.yul\":3071:3076   */\n      dup2\n        /* \"#utility.yul\":3053:3077   */\n      tag_93\n      jump\t// in\n    tag_153:\n        /* \"#utility.yul\":3048:3051   */\n      dup3\n        /* \"#utility.yul\":3041:3078   */\n      mstore\n        /* \"#utility.yul\":2966:3084   */\n      pop\n      pop\n      jump\t// out\n        /* \"#utility.yul\":3090:3312   */\n    tag_32:\n        /* \"#utility.yul\":3183:3187   */\n      0x00\n        /* \"#utility.yul\":3221:3223   */\n      0x20\n        /* \"#utility.yul\":3210:3219   */\n      dup3\n        /* \"#utility.yul\":3206:3224   */\n      add\n        /* \"#utility.yul\":3198:3224   */\n      swap1\n      pop\n        /* \"#utility.yul\":3234:3305   */\n      tag_155\n        /* \"#utility.yul\":3302:3303   */\n      0x00\n        /* \"#utility.yul\":3291:3300   */\n      dup4\n        /* \"#utility.yul\":3287:3304   */\n      add\n        /* \"#utility.yul\":3278:3284   */\n      dup5\n        /* \"#utility.yul\":3234:3305   */\n      tag_96\n      jump\t// in\n    tag_155:\n        /* \"#utility.yul\":3090:3312   */\n      swap3\n      swap2\n      pop\n      pop\n      jump\t// out\n        /* \"#utility.yul\":3318:3463   */\n    tag_97:\n        /* \"#utility.yul\":3387:3396   */\n      0x00\n        /* \"#utility.yul\":3420:3457   */\n      tag_157\n        /* \"#utility.yul\":3451:3456   */\n      dup3\n        /* \"#utility.yul\":3420:3457   */\n      tag_87\n      jump\t// in\n    tag_157:\n        /* \"#utility.yul\":3407:3457   */\n      swap1\n      pop\n        /* \"#utility.yul\":3318:3463   */\n      swap2\n      swap1\n      pop\n      jump\t// out\n        /* \"#utility.yul\":3469:3638   */\n    tag_98:\n        /* \"#utility.yul\":3575:3631   */\n      tag_159\n        /* \"#utility.yul\":3625:3630   */\n      dup2\n        /* \"#utility.yul\":3575:3631   */\n      tag_97\n      jump\t// in\n    tag_159:\n        /* \"#utility.yul\":3570:3573   */\n      dup3\n        /* \"#utility.yul\":3563:3632   */\n      mstore\n        /* \"#utility.yul\":3469:3638   */\n      pop\n      pop\n      jump\t// out\n        /* \"#utility.yul\":3644:3904   */\n    tag_39:\n        /* \"#utility.yul\":3756:3760   */\n      0x00\n        /* \"#utility.yul\":3794:3796   */\n      0x20\n        /* \"#utility.yul\":3783:3792   */\n      dup3\n        /* \"#utility.yul\":3779:3797   */\n      add\n        /* \"#utility.yul\":3771:3797   */\n      swap1\n      pop\n        /* \"#utility.yul\":3807:3897   */\n      tag_161\n        /* \"#utility.yul\":3894:3895   */\n      0x00\n        /* \"#utility.yul\":3883:3892   */\n      dup4\n        /* \"#utility.yul\":3879:3896   */\n      add\n        /* \"#utility.yul\":3870:3876   */\n      dup5\n        /* \"#utility.yul\":3807:3897   */\n      tag_98\n      jump\t// in\n    tag_161:\n        /* \"#utility.yul\":3644:3904   */\n      swap3\n      swap2\n      pop\n      pop\n      jump\t// out\n        /* \"#utility.yul\":3910:4384   */\n    tag_42:\n        /* \"#utility.yul\":3978:3984   */\n      0x00\n        /* \"#utility.yul\":3986:3992   */\n      dup1\n        /* \"#utility.yul\":4035:4037   */\n      0x40\n        /* \"#utility.yul\":4023:4032   */\n      dup4\n        /* \"#utility.yul\":4014:4021   */\n      dup6\n        /* \"#utility.yul\":4010:4033   */\n      sub\n        /* \"#utility.yul\":4006:4038   */\n      slt\n        /* \"#utility.yul\":4003:4122   */\n      iszero\n      tag_163\n      jumpi\n        /* \"#utility.yul\":4041:4120   */\n      tag_164\n      tag_91\n      jump\t// in\n    tag_164:\n        /* \"#utility.yul\":4003:4122   */\n    tag_163:\n        /* \"#utility.yul\":4161:4162   */\n      0x00\n        /* \"#utility.yul\":4186:4239   */\n      tag_165\n        /* \"#utility.yul\":4231:4238   */\n      dup6\n        /* \"#utility.yul\":4222:4228   */\n      dup3\n        /* \"#utility.yul\":4211:4220   */\n      dup7\n        /* \"#utility.yul\":4207:4229   */\n      add\n        /* \"#utility.yul\":4186:4239   */\n      tag_95\n      jump\t// in\n    tag_165:\n        /* \"#utility.yul\":4176:4239   */\n      swap3\n      pop\n        /* \"#utility.yul\":4132:4249   */\n      pop\n        /* \"#utility.yul\":4288:4290   */\n      0x20\n        /* \"#utility.yul\":4314:4367   */\n      tag_166\n        /* \"#utility.yul\":4359:4366   */\n      dup6\n        /* \"#utility.yul\":4350:4356   */\n      dup3\n        /* \"#utility.yul\":4339:4348   */\n      dup7\n        /* \"#utility.yul\":4335:4357   */\n      add\n        /* \"#utility.yul\":4314:4367   */\n      tag_95\n      jump\t// in\n    tag_166:\n        /* \"#utility.yul\":4304:4367   */\n      swap2\n      pop\n        /* \"#utility.yul\":4259:4377   */\n      pop\n        /* \"#utility.yul\":3910:4384   */\n      swap3\n      pop\n      swap3\n      swap1\n      pop\n      jump\t// out\n        /* \"#utility.yul\":4390:4722   */\n    tag_47:\n        /* \"#utility.yul\":4511:4515   */\n      0x00\n        /* \"#utility.yul\":4549:4551   */\n      0x40\n        /* \"#utility.yul\":4538:4547   */\n      dup3\n        /* \"#utility.yul\":4534:4552   */\n      add\n        /* \"#utility.yul\":4526:4552   */\n      swap1\n      pop\n        /* \"#utility.yul\":4562:4633   */\n      tag_168\n        /* \"#utility.yul\":4630:4631   */\n      0x00\n        /* \"#utility.yul\":4619:4628   */\n      dup4\n        /* \"#utility.yul\":4615:4632   */\n      add\n        /* \"#utility.yul\":4606:4612   */\n      dup6\n        /* \"#utility.yul\":4562:4633   */\n      tag_84\n      jump\t// in\n    tag_168:\n        /* \"#utility.yul\":4643:4715   */\n      tag_169\n        /* \"#utility.yul\":4711:4713   */\n      0x20\n        /* \"#utility.yul\":4700:4709   */\n      dup4\n        /* \"#utility.yul\":4696:4714   */\n      add\n        /* \"#utility.yul\":4687:4693   */\n      dup5\n        /* \"#utility.yul\":4643:4715   */\n      tag_96\n      jump\t// in\n    tag_169:\n        /* \"#utility.yul\":4390:4722   */\n      swap4\n      swap3\n      pop\n      pop\n      pop\n      jump\t// out\n        /* \"#utility.yul\":4728:4818   */\n    tag_99:\n        /* \"#utility.yul\":4762:4769   */\n      0x00\n        /* \"#utility.yul\":4805:4810   */\n      dup2\n        /* \"#utility.yul\":4798:4811   */\n      iszero\n        /* \"#utility.yul\":4791:4812   */\n      iszero\n        /* \"#utility.yul\":4780:4812   */\n      swap1\n      pop\n        /* \"#utility.yul\":4728:4818   */\n      swap2\n      swap1\n      pop\n      jump\t// out\n        /* \"#utility.yul\":4824:4940   */\n    tag_100:\n        /* \"#utility.yul\":4894:4915   */\n      tag_172\n        /* \"#utility.yul\":4909:4914   */\n      dup2\n        /* \"#utility.yul\":4894:4915   */\n      tag_99\n      jump\t// in\n    tag_172:\n        /* \"#utility.yul\":4887:4892   */\n      dup2\n        /* \"#utility.yul\":4884:4916   */\n      eq\n        /* \"#utility.yul\":4874:4934   */\n      tag_173\n      jumpi\n        /* \"#utility.yul\":4930:4931   */\n      0x00\n        /* \"#utility.yul\":4927:4928   */\n      dup1\n        /* \"#utility.yul\":4920:4932   */\n      revert\n        /* \"#utility.yul\":4874:4934   */\n    tag_173:\n        /* \"#utility.yul\":4824:4940   */\n      pop\n      jump\t// out\n        /* \"#utility.yul\":4946:5083   */\n    tag_101:\n        /* \"#utility.yul\":5000:5005   */\n      0x00\n        /* \"#utility.yul\":5031:5037   */\n      dup2\n        /* \"#utility.yul\":5025:5038   */\n      mload\n        /* \"#utility.yul\":5016:5038   */\n      swap1\n      pop\n        /* \"#utility.yul\":5047:5077   */\n      tag_175\n        /* \"#utility.yul\":5071:5076   */\n      dup2\n        /* \"#utility.yul\":5047:5077   */\n      tag_100\n      jump\t// in\n    tag_175:\n        /* \"#utility.yul\":4946:5083   */\n      swap3\n      swap2\n      pop\n      pop\n      jump\t// out\n        /* \"#utility.yul\":5089:5434   */\n    tag_51:\n        /* \"#utility.yul\":5156:5162   */\n      0x00\n        /* \"#utility.yul\":5205:5207   */\n      0x20\n        /* \"#utility.yul\":5193:5202   */\n      dup3\n        /* \"#utility.yul\":5184:5191   */\n      dup5\n        /* \"#utility.yul\":5180:5203   */\n      sub\n        /* \"#utility.yul\":5176:5208   */\n      slt\n        /* \"#utility.yul\":5173:5292   */\n      iszero\n      tag_177\n      jumpi\n        /* \"#utility.yul\":5211:5290   */\n      tag_178\n      tag_91\n      jump\t// in\n    tag_178:\n        /* \"#utility.yul\":5173:5292   */\n    tag_177:\n        /* \"#utility.yul\":5331:5332   */\n      0x00\n        /* \"#utility.yul\":5356:5417   */\n      tag_179\n        /* \"#utility.yul\":5409:5416   */\n      dup5\n        /* \"#utility.yul\":5400:5406   */\n      dup3\n        /* \"#utility.yul\":5389:5398   */\n      dup6\n        /* \"#utility.yul\":5385:5407   */\n      add\n        /* \"#utility.yul\":5356:5417   */\n      tag_101\n      jump\t// in\n    tag_179:\n        /* \"#utility.yul\":5346:5417   */\n      swap2\n      pop\n        /* \"#utility.yul\":5302:5427   */\n      pop\n        /* \"#utility.yul\":5089:5434   */\n      swap3\n      swap2\n      pop\n      pop\n      jump\t// out\n        /* \"#utility.yul\":5440:5548   */\n    tag_102:\n        /* \"#utility.yul\":5517:5541   */\n      tag_181\n        /* \"#utility.yul\":5535:5540   */\n      dup2\n        /* \"#utility.yul\":5517:5541   */\n      tag_83\n      jump\t// in\n    tag_181:\n        /* \"#utility.yul\":5512:5515   */\n      dup3\n        /* \"#utility.yul\":5505:5542   */\n      mstore\n        /* \"#utility.yul\":5440:5548   */\n      pop\n      pop\n      jump\t// out\n        /* \"#utility.yul\":5554:5659   */\n    tag_103:\n        /* \"#utility.yul\":5629:5652   */\n      tag_183\n        /* \"#utility.yul\":5646:5651   */\n      dup2\n        /* \"#utility.yul\":5629:5652   */\n      tag_80\n      jump\t// in\n    tag_183:\n        /* \"#utility.yul\":5624:5627   */\n      dup3\n        /* \"#utility.yul\":5617:5653   */\n      mstore\n        /* \"#utility.yul\":5554:5659   */\n      pop\n      pop\n      jump\t// out\n        /* \"#utility.yul\":5665:5773   */\n    tag_104:\n        /* \"#utility.yul\":5742:5766   */\n      tag_185\n        /* \"#utility.yul\":5760:5765   */\n      dup2\n        /* \"#utility.yul\":5742:5766   */\n      tag_93\n      jump\t// in\n    tag_185:\n        /* \"#utility.yul\":5737:5740   */\n      dup3\n        /* \"#utility.yul\":5730:5767   */\n      mstore\n        /* \"#utility.yul\":5665:5773   */\n      pop\n      pop\n      jump\t// out\n        /* \"#utility.yul\":5779:5887   */\n    tag_105:\n        /* \"#utility.yul\":5856:5880   */\n      tag_187\n        /* \"#utility.yul\":5874:5879   */\n      dup2\n        /* \"#utility.yul\":5856:5880   */\n      tag_82\n      jump\t// in\n    tag_187:\n        /* \"#utility.yul\":5851:5854   */\n      dup3\n        /* \"#utility.yul\":5844:5881   */\n      mstore\n        /* \"#utility.yul\":5779:5887   */\n      pop\n      pop\n      jump\t// out\n        /* \"#utility.yul\":5987:7608   */\n    tag_106:\n        /* \"#utility.yul\":6160:6166   */\n      0x0100\n        /* \"#utility.yul\":6155:6158   */\n      dup3\n        /* \"#utility.yul\":6151:6167   */\n      add\n        /* \"#utility.yul\":6252:6256   */\n      0x00\n        /* \"#utility.yul\":6245:6250   */\n      dup3\n        /* \"#utility.yul\":6241:6257   */\n      add\n        /* \"#utility.yul\":6235:6258   */\n      mload\n        /* \"#utility.yul\":6271:6334   */\n      tag_189\n        /* \"#utility.yul\":6328:6332   */\n      0x00\n        /* \"#utility.yul\":6323:6326   */\n      dup6\n        /* \"#utility.yul\":6319:6333   */\n      add\n        /* \"#utility.yul\":6305:6317   */\n      dup3\n        /* \"#utility.yul\":6271:6334   */\n      tag_102\n      jump\t// in\n    tag_189:\n        /* \"#utility.yul\":6177:6344   */\n      pop\n        /* \"#utility.yul\":6430:6434   */\n      0x20\n        /* \"#utility.yul\":6423:6428   */\n      dup3\n        /* \"#utility.yul\":6419:6435   */\n      add\n        /* \"#utility.yul\":6413:6436   */\n      mload\n        /* \"#utility.yul\":6449:6512   */\n      tag_190\n        /* \"#utility.yul\":6506:6510   */\n      0x20\n        /* \"#utility.yul\":6501:6504   */\n      dup6\n        /* \"#utility.yul\":6497:6511   */\n      add\n        /* \"#utility.yul\":6483:6495   */\n      dup3\n        /* \"#utility.yul\":6449:6512   */\n      tag_102\n      jump\t// in\n    tag_190:\n        /* \"#utility.yul\":6354:6522   */\n      pop\n        /* \"#utility.yul\":6603:6607   */\n      0x40\n        /* \"#utility.yul\":6596:6601   */\n      dup3\n        /* \"#utility.yul\":6592:6608   */\n      add\n        /* \"#utility.yul\":6586:6609   */\n      mload\n        /* \"#utility.yul\":6622:6683   */\n      tag_191\n        /* \"#utility.yul\":6677:6681   */\n      0x40\n        /* \"#utility.yul\":6672:6675   */\n      dup6\n        /* \"#utility.yul\":6668:6682   */\n      add\n        /* \"#utility.yul\":6654:6666   */\n      dup3\n        /* \"#utility.yul\":6622:6683   */\n      tag_103\n      jump\t// in\n    tag_191:\n        /* \"#utility.yul\":6532:6693   */\n      pop\n        /* \"#utility.yul\":6780:6784   */\n      0x60\n        /* \"#utility.yul\":6773:6778   */\n      dup3\n        /* \"#utility.yul\":6769:6785   */\n      add\n        /* \"#utility.yul\":6763:6786   */\n      mload\n        /* \"#utility.yul\":6799:6862   */\n      tag_192\n        /* \"#utility.yul\":6856:6860   */\n      0x60\n        /* \"#utility.yul\":6851:6854   */\n      dup6\n        /* \"#utility.yul\":6847:6861   */\n      add\n        /* \"#utility.yul\":6833:6845   */\n      dup3\n        /* \"#utility.yul\":6799:6862   */\n      tag_102\n      jump\t// in\n    tag_192:\n        /* \"#utility.yul\":6703:6872   */\n      pop\n        /* \"#utility.yul\":6958:6962   */\n      0x80\n        /* \"#utility.yul\":6951:6956   */\n      dup3\n        /* \"#utility.yul\":6947:6963   */\n      add\n        /* \"#utility.yul\":6941:6964   */\n      mload\n        /* \"#utility.yul\":6977:7040   */\n      tag_193\n        /* \"#utility.yul\":7034:7038   */\n      0x80\n        /* \"#utility.yul\":7029:7032   */\n      dup6\n        /* \"#utility.yul\":7025:7039   */\n      add\n        /* \"#utility.yul\":7011:7023   */\n      dup3\n        /* \"#utility.yul\":6977:7040   */\n      tag_104\n      jump\t// in\n    tag_193:\n        /* \"#utility.yul\":6882:7050   */\n      pop\n        /* \"#utility.yul\":7136:7140   */\n      0xa0\n        /* \"#utility.yul\":7129:7134   */\n      dup3\n        /* \"#utility.yul\":7125:7141   */\n      add\n        /* \"#utility.yul\":7119:7142   */\n      mload\n        /* \"#utility.yul\":7155:7218   */\n      tag_194\n        /* \"#utility.yul\":7212:7216   */\n      0xa0\n        /* \"#utility.yul\":7207:7210   */\n      dup6\n        /* \"#utility.yul\":7203:7217   */\n      add\n        /* \"#utility.yul\":7189:7201   */\n      dup3\n        /* \"#utility.yul\":7155:7218   */\n      tag_104\n      jump\t// in\n    tag_194:\n        /* \"#utility.yul\":7060:7228   */\n      pop\n        /* \"#utility.yul\":7322:7326   */\n      0xc0\n        /* \"#utility.yul\":7315:7320   */\n      dup3\n        /* \"#utility.yul\":7311:7327   */\n      add\n        /* \"#utility.yul\":7305:7328   */\n      mload\n        /* \"#utility.yul\":7341:7404   */\n      tag_195\n        /* \"#utility.yul\":7398:7402   */\n      0xc0\n        /* \"#utility.yul\":7393:7396   */\n      dup6\n        /* \"#utility.yul\":7389:7403   */\n      add\n        /* \"#utility.yul\":7375:7387   */\n      dup3\n        /* \"#utility.yul\":7341:7404   */\n      tag_104\n      jump\t// in\n    tag_195:\n        /* \"#utility.yul\":7238:7414   */\n      pop\n        /* \"#utility.yul\":7509:7513   */\n      0xe0\n        /* \"#utility.yul\":7502:7507   */\n      dup3\n        /* \"#utility.yul\":7498:7514   */\n      add\n        /* \"#utility.yul\":7492:7515   */\n      mload\n        /* \"#utility.yul\":7528:7591   */\n      tag_196\n        /* \"#utility.yul\":7585:7589   */\n      0xe0\n        /* \"#utility.yul\":7580:7583   */\n      dup6\n        /* \"#utility.yul\":7576:7590   */\n      add\n        /* \"#utility.yul\":7562:7574   */\n      dup3\n        /* \"#utility.yul\":7528:7591   */\n      tag_105\n      jump\t// in\n    tag_196:\n        /* \"#utility.yul\":7424:7601   */\n      pop\n        /* \"#utility.yul\":6129:7608   */\n      pop\n        /* \"#utility.yul\":5987:7608   */\n      pop\n      pop\n      jump\t// out\n        /* \"#utility.yul\":7614:7989   */\n    tag_53:\n        /* \"#utility.yul\":7783:7787   */\n      0x00\n        /* \"#utility.yul\":7821:7824   */\n      0x0100\n        /* \"#utility.yul\":7810:7819   */\n      dup3\n        /* \"#utility.yul\":7806:7825   */\n      add\n        /* \"#utility.yul\":7798:7825   */\n      swap1\n      pop\n        /* \"#utility.yul\":7835:7982   */\n      tag_198\n        /* \"#utility.yul\":7979:7980   */\n      0x00\n        /* \"#utility.yul\":7968:7977   */\n      dup4\n        /* \"#utility.yul\":7964:7981   */\n      add\n        /* \"#utility.yul\":7955:7961   */\n      dup5\n        /* \"#utility.yul\":7835:7982   */\n      tag_106\n      jump\t// in\n    tag_198:\n        /* \"#utility.yul\":7614:7989   */\n      swap3\n      swap2\n      pop\n      pop\n      jump\t// out\n        /* \"#utility.yul\":7995:8138   */\n    tag_107:\n        /* \"#utility.yul\":8052:8057   */\n      0x00\n        /* \"#utility.yul\":8083:8089   */\n      dup2\n        /* \"#utility.yul\":8077:8090   */\n      mload\n        /* \"#utility.yul\":8068:8090   */\n      swap1\n      pop\n        /* \"#utility.yul\":8099:8132   */\n      tag_200\n        /* \"#utility.yul\":8126:8131   */\n      dup2\n        /* \"#utility.yul\":8099:8132   */\n      tag_94\n      jump\t// in\n    tag_200:\n        /* \"#utility.yul\":7995:8138   */\n      swap3\n      swap2\n      pop\n      pop\n      jump\t// out\n        /* \"#utility.yul\":8144:8495   */\n    tag_57:\n        /* \"#utility.yul\":8214:8220   */\n      0x00\n        /* \"#utility.yul\":8263:8265   */\n      0x20\n        /* \"#utility.yul\":8251:8260   */\n      dup3\n        /* \"#utility.yul\":8242:8249   */\n      dup5\n        /* \"#utility.yul\":8238:8261   */\n      sub\n        /* \"#utility.yul\":8234:8266   */\n      slt\n        /* \"#utility.yul\":8231:8350   */\n      iszero\n      tag_202\n      jumpi\n        /* \"#utility.yul\":8269:8348   */\n      tag_203\n      tag_91\n      jump\t// in\n    tag_203:\n        /* \"#utility.yul\":8231:8350   */\n    tag_202:\n        /* \"#utility.yul\":8389:8390   */\n      0x00\n        /* \"#utility.yul\":8414:8478   */\n      tag_204\n        /* \"#utility.yul\":8470:8477   */\n      dup5\n        /* \"#utility.yul\":8461:8467   */\n      dup3\n        /* \"#utility.yul\":8450:8459   */\n      dup6\n        /* \"#utility.yul\":8446:8468   */\n      add\n        /* \"#utility.yul\":8414:8478   */\n      tag_107\n      jump\t// in\n    tag_204:\n        /* \"#utility.yul\":8404:8478   */\n      swap2\n      pop\n        /* \"#utility.yul\":8360:8488   */\n      pop\n        /* \"#utility.yul\":8144:8495   */\n      swap3\n      swap2\n      pop\n      pop\n      jump\t// out\n        /* \"#utility.yul\":8597:10220   */\n    tag_108:\n        /* \"#utility.yul\":8772:8778   */\n      0x0100\n        /* \"#utility.yul\":8767:8770   */\n      dup3\n        /* \"#utility.yul\":8763:8779   */\n      add\n        /* \"#utility.yul\":8864:8868   */\n      0x00\n        /* \"#utility.yul\":8857:8862   */\n      dup3\n        /* \"#utility.yul\":8853:8869   */\n      add\n        /* \"#utility.yul\":8847:8870   */\n      mload\n        /* \"#utility.yul\":8883:8946   */\n      tag_206\n        /* \"#utility.yul\":8940:8944   */\n      0x00\n        /* \"#utility.yul\":8935:8938   */\n      dup6\n        /* \"#utility.yul\":8931:8945   */\n      add\n        /* \"#utility.yul\":8917:8929   */\n      dup3\n        /* \"#utility.yul\":8883:8946   */\n      tag_102\n      jump\t// in\n    tag_206:\n        /* \"#utility.yul\":8789:8956   */\n      pop\n        /* \"#utility.yul\":9042:9046   */\n      0x20\n        /* \"#utility.yul\":9035:9040   */\n      dup3\n        /* \"#utility.yul\":9031:9047   */\n      add\n        /* \"#utility.yul\":9025:9048   */\n      mload\n        /* \"#utility.yul\":9061:9124   */\n      tag_207\n        /* \"#utility.yul\":9118:9122   */\n      0x20\n        /* \"#utility.yul\":9113:9116   */\n      dup6\n        /* \"#utility.yul\":9109:9123   */\n      add\n        /* \"#utility.yul\":9095:9107   */\n      dup3\n        /* \"#utility.yul\":9061:9124   */\n      tag_102\n      jump\t// in\n    tag_207:\n        /* \"#utility.yul\":8966:9134   */\n      pop\n        /* \"#utility.yul\":9215:9219   */\n      0x40\n        /* \"#utility.yul\":9208:9213   */\n      dup3\n        /* \"#utility.yul\":9204:9220   */\n      add\n        /* \"#utility.yul\":9198:9221   */\n      mload\n        /* \"#utility.yul\":9234:9295   */\n      tag_208\n        /* \"#utility.yul\":9289:9293   */\n      0x40\n        /* \"#utility.yul\":9284:9287   */\n      dup6\n        /* \"#utility.yul\":9280:9294   */\n      add\n        /* \"#utility.yul\":9266:9278   */\n      dup3\n        /* \"#utility.yul\":9234:9295   */\n      tag_103\n      jump\t// in\n    tag_208:\n        /* \"#utility.yul\":9144:9305   */\n      pop\n        /* \"#utility.yul\":9392:9396   */\n      0x60\n        /* \"#utility.yul\":9385:9390   */\n      dup3\n        /* \"#utility.yul\":9381:9397   */\n      add\n        /* \"#utility.yul\":9375:9398   */\n      mload\n        /* \"#utility.yul\":9411:9474   */\n      tag_209\n        /* \"#utility.yul\":9468:9472   */\n      0x60\n        /* \"#utility.yul\":9463:9466   */\n      dup6\n        /* \"#utility.yul\":9459:9473   */\n      add\n        /* \"#utility.yul\":9445:9457   */\n      dup3\n        /* \"#utility.yul\":9411:9474   */\n      tag_102\n      jump\t// in\n    tag_209:\n        /* \"#utility.yul\":9315:9484   */\n      pop\n        /* \"#utility.yul\":9570:9574   */\n      0x80\n        /* \"#utility.yul\":9563:9568   */\n      dup3\n        /* \"#utility.yul\":9559:9575   */\n      add\n        /* \"#utility.yul\":9553:9576   */\n      mload\n        /* \"#utility.yul\":9589:9652   */\n      tag_210\n        /* \"#utility.yul\":9646:9650   */\n      0x80\n        /* \"#utility.yul\":9641:9644   */\n      dup6\n        /* \"#utility.yul\":9637:9651   */\n      add\n        /* \"#utility.yul\":9623:9635   */\n      dup3\n        /* \"#utility.yul\":9589:9652   */\n      tag_104\n      jump\t// in\n    tag_210:\n        /* \"#utility.yul\":9494:9662   */\n      pop\n        /* \"#utility.yul\":9749:9753   */\n      0xa0\n        /* \"#utility.yul\":9742:9747   */\n      dup3\n        /* \"#utility.yul\":9738:9754   */\n      add\n        /* \"#utility.yul\":9732:9755   */\n      mload\n        /* \"#utility.yul\":9768:9831   */\n      tag_211\n        /* \"#utility.yul\":9825:9829   */\n      0xa0\n        /* \"#utility.yul\":9820:9823   */\n      dup6\n        /* \"#utility.yul\":9816:9830   */\n      add\n        /* \"#utility.yul\":9802:9814   */\n      dup3\n        /* \"#utility.yul\":9768:9831   */\n      tag_104\n      jump\t// in\n    tag_211:\n        /* \"#utility.yul\":9672:9841   */\n      pop\n        /* \"#utility.yul\":9934:9938   */\n      0xc0\n        /* \"#utility.yul\":9927:9932   */\n      dup3\n        /* \"#utility.yul\":9923:9939   */\n      add\n        /* \"#utility.yul\":9917:9940   */\n      mload\n        /* \"#utility.yul\":9953:10016   */\n      tag_212\n        /* \"#utility.yul\":10010:10014   */\n      0xc0\n        /* \"#utility.yul\":10005:10008   */\n      dup6\n        /* \"#utility.yul\":10001:10015   */\n      add\n        /* \"#utility.yul\":9987:9999   */\n      dup3\n        /* \"#utility.yul\":9953:10016   */\n      tag_104\n      jump\t// in\n    tag_212:\n        /* \"#utility.yul\":9851:10026   */\n      pop\n        /* \"#utility.yul\":10121:10125   */\n      0xe0\n        /* \"#utility.yul\":10114:10119   */\n      dup3\n        /* \"#utility.yul\":10110:10126   */\n      add\n        /* \"#utility.yul\":10104:10127   */\n      mload\n        /* \"#utility.yul\":10140:10203   */\n      tag_213\n        /* \"#utility.yul\":10197:10201   */\n      0xe0\n        /* \"#utility.yul\":10192:10195   */\n      dup6\n        /* \"#utility.yul\":10188:10202   */\n      add\n        /* \"#utility.yul\":10174:10186   */\n      dup3\n        /* \"#utility.yul\":10140:10203   */\n      tag_105\n      jump\t// in\n    tag_213:\n        /* \"#utility.yul\":10036:10213   */\n      pop\n        /* \"#utility.yul\":8741:10220   */\n      pop\n        /* \"#utility.yul\":8597:10220   */\n      pop\n      pop\n      jump\t// out\n        /* \"#utility.yul\":10226:10605   */\n    tag_64:\n        /* \"#utility.yul\":10397:10401   */\n      0x00\n        /* \"#utility.yul\":10435:10438   */\n      0x0100\n        /* \"#utility.yul\":10424:10433   */\n      dup3\n        /* \"#utility.yul\":10420:10439   */\n      add\n        /* \"#utility.yul\":10412:10439   */\n      swap1\n      pop\n        /* \"#utility.yul\":10449:10598   */\n      tag_215\n        /* \"#utility.yul\":10595:10596   */\n      0x00\n        /* \"#utility.yul\":10584:10593   */\n      dup4\n        /* \"#utility.yul\":10580:10597   */\n      add\n        /* \"#utility.yul\":10571:10577   */\n      dup5\n        /* \"#utility.yul\":10449:10598   */\n      tag_108\n      jump\t// in\n    tag_215:\n        /* \"#utility.yul\":10226:10605   */\n      swap3\n      swap2\n      pop\n      pop\n      jump\t// out\n        /* \"#utility.yul\":10611:10696   */\n    tag_109:\n        /* \"#utility.yul\":10656:10663   */\n      0x00\n        /* \"#utility.yul\":10685:10690   */\n      dup2\n        /* \"#utility.yul\":10674:10690   */\n      swap1\n      pop\n        /* \"#utility.yul\":10611:10696   */\n      swap2\n      swap1\n      pop\n      jump\t// out\n        /* \"#utility.yul\":10702:10860   */\n    tag_110:\n        /* \"#utility.yul\":10760:10769   */\n      0x00\n        /* \"#utility.yul\":10793:10854   */\n      tag_218\n        /* \"#utility.yul\":10811:10853   */\n      tag_219\n        /* \"#utility.yul\":10820:10852   */\n      tag_220\n        /* \"#utility.yul\":10846:10851   */\n      dup5\n        /* \"#utility.yul\":10820:10852   */\n      tag_109\n      jump\t// in\n    tag_220:\n        /* \"#utility.yul\":10811:10853   */\n      tag_85\n      jump\t// in\n    tag_219:\n        /* \"#utility.yul\":10793:10854   */\n      tag_93\n      jump\t// in\n    tag_218:\n        /* \"#utility.yul\":10780:10854   */\n      swap1\n      pop\n        /* \"#utility.yul\":10702:10860   */\n      swap2\n      swap1\n      pop\n      jump\t// out\n        /* \"#utility.yul\":10866:11013   */\n    tag_111:\n        /* \"#utility.yul\":10961:11006   */\n      tag_222\n        /* \"#utility.yul\":11000:11005   */\n      dup2\n        /* \"#utility.yul\":10961:11006   */\n      tag_110\n      jump\t// in\n    tag_222:\n        /* \"#utility.yul\":10956:10959   */\n      dup3\n        /* \"#utility.yul\":10949:11007   */\n      mstore\n        /* \"#utility.yul\":10866:11013   */\n      pop\n      pop\n      jump\t// out\n        /* \"#utility.yul\":11019:11367   */\n    tag_70:\n        /* \"#utility.yul\":11148:11152   */\n      0x00\n        /* \"#utility.yul\":11186:11188   */\n      0x40\n        /* \"#utility.yul\":11175:11184   */\n      dup3\n        /* \"#utility.yul\":11171:11189   */\n      add\n        /* \"#utility.yul\":11163:11189   */\n      swap1\n      pop\n        /* \"#utility.yul\":11199:11270   */\n      tag_224\n        /* \"#utility.yul\":11267:11268   */\n      0x00\n        /* \"#utility.yul\":11256:11265   */\n      dup4\n        /* \"#utility.yul\":11252:11269   */\n      add\n        /* \"#utility.yul\":11243:11249   */\n      dup6\n        /* \"#utility.yul\":11199:11270   */\n      tag_84\n      jump\t// in\n    tag_224:\n        /* \"#utility.yul\":11280:11360   */\n      tag_225\n        /* \"#utility.yul\":11356:11358   */\n      0x20\n        /* \"#utility.yul\":11345:11354   */\n      dup4\n        /* \"#utility.yul\":11341:11359   */\n      add\n        /* \"#utility.yul\":11332:11338   */\n      dup5\n        /* \"#utility.yul\":11280:11360   */\n      tag_111\n      jump\t// in\n    tag_225:\n        /* \"#utility.yul\":11019:11367   */\n      swap4\n      swap3\n      pop\n      pop\n      pop\n      jump\t// out\n        /* \"#utility.yul\":11373:11553   */\n    tag_112:\n        /* \"#utility.yul\":11421:11498   */\n      0x4e487b7100000000000000000000000000000000000000000000000000000000\n        /* \"#utility.yul\":11418:11419   */\n      0x00\n        /* \"#utility.yul\":11411:11499   */\n      mstore\n        /* \"#utility.yul\":11518:11522   */\n      0x11\n        /* \"#utility.yul\":11515:11516   */\n      0x04\n        /* \"#utility.yul\":11508:11523   */\n      mstore\n        /* \"#utility.yul\":11542:11546   */\n      0x24\n        /* \"#utility.yul\":11539:11540   */\n      0x00\n        /* \"#utility.yul\":11532:11547   */\n      revert\n        /* \"#utility.yul\":11559:11753   */\n    tag_75:\n        /* \"#utility.yul\":11599:11603   */\n      0x00\n        /* \"#utility.yul\":11619:11639   */\n      tag_228\n        /* \"#utility.yul\":11637:11638   */\n      dup3\n        /* \"#utility.yul\":11619:11639   */\n      tag_93\n      jump\t// in\n    tag_228:\n        /* \"#utility.yul\":11614:11639   */\n      swap2\n      pop\n        /* \"#utility.yul\":11653:11673   */\n      tag_229\n        /* \"#utility.yul\":11671:11672   */\n      dup4\n        /* \"#utility.yul\":11653:11673   */\n      tag_93\n      jump\t// in\n    tag_229:\n        /* \"#utility.yul\":11648:11673   */\n      swap3\n      pop\n        /* \"#utility.yul\":11697:11698   */\n      dup3\n        /* \"#utility.yul\":11694:11695   */\n      dup3\n        /* \"#utility.yul\":11690:11699   */\n      sub\n        /* \"#utility.yul\":11682:11699   */\n      swap1\n      pop\n        /* \"#utility.yul\":11721:11722   */\n      dup2\n        /* \"#utility.yul\":11715:11719   */\n      dup2\n        /* \"#utility.yul\":11712:11723   */\n      gt\n        /* \"#utility.yul\":11709:11746   */\n      iszero\n      tag_230\n      jumpi\n        /* \"#utility.yul\":11726:11744   */\n      tag_231\n      tag_112\n      jump\t// in\n    tag_231:\n        /* \"#utility.yul\":11709:11746   */\n    tag_230:\n        /* \"#utility.yul\":11559:11753   */\n      swap3\n      swap2\n      pop\n      pop\n      jump\t// out\n\n    auxdata: 0xa2646970667358221220f0e40a4b9b4af222f7eac92a2bea63e5a4221deec1ad186d8b8f2e76404846f264736f6c63430008190033\n}\n",
				"bytecode": {
					"linkReferences": {},
					"object": "60a0604052730227628f3f023bb0b980b67d528571c95c6dac1c73ffffffffffffffffffffffffffffffffffffffff1660809073ffffffffffffffffffffffffffffffffffffffff1681525073779877a7b0d9e8603169ddbd7836e478b46247895f806101000a81548173ffffffffffffffffffffffffffffffffffffffff021916908373ffffffffffffffffffffffffffffffffffffffff16021790555034801560a8575f80fd5b50608051610d516100e45f395f81816102360152818161037a0152818161043301528181610494015281816105d801526106b60152610d515ff3fe608060405234801561000f575f80fd5b5060043610610086575f3560e01c806373bd43ad1161005957806373bd43ad14610102578063ad5c464814610132578063c31c9c0714610150578063c4b69a181461016e57610086565b8063089fe6aa1461008a5780631b6b6d23146100a85780633268cc56146100c657806357970e93146100e4575b5f80fd5b61009261019e565b60405161009f91906107ff565b60405180910390f35b6100b06101a4565b6040516100bd9190610857565b60405180910390f35b6100ce6101bc565b6040516100db9190610857565b60405180910390f35b6100ec6101d4565b6040516100f991906108cb565b60405180910390f35b61011c6004803603810190610117919061091b565b6101f7565b6040516101299190610955565b60405180910390f35b61013a610419565b6040516101479190610857565b60405180910390f35b610158610431565b604051610165919061098e565b60405180910390f35b610188600480360381019061018391906109a7565b610455565b6040516101959190610955565b60405180910390f35b610bb881565b73779877a7b0d9e8603169ddbd7836e478b462478981565b730227628f3f023bb0b980b67d528571c95c6dac1c81565b5f8054906101000a900473ffffffffffffffffffffffffffffffffffffffff1681565b5f805f9054906101000a900473ffffffffffffffffffffffffffffffffffffffff1673ffffffffffffffffffffffffffffffffffffffff1663095ea7b37f0000000000000000000000000000000000000000000000000000000000000000846040518363ffffffff1660e01b81526004016102739291906109e5565b6020604051808303815f875af115801561028f573d5f803e3d5ffd5b505050506040513d601f19601f820116820180604052508101906102b39190610a41565b505f60405180610100016040528073779877a7b0d9e8603169ddbd7836e478b462478973ffffffffffffffffffffffffffffffffffffffff16815260200173e67abda0d43f7ac8f37876bbf00d1dfadbb93aaa73ffffffffffffffffffffffffffffffffffffffff168152602001610bb862ffffff1681526020013073ffffffffffffffffffffffffffffffffffffffff1681526020014281526020018481526020015f81526020015f73ffffffffffffffffffffffffffffffffffffffff1681525090507f000000000000000000000000000000000000000000000000000000000000000073ffffffffffffffffffffffffffffffffffffffff1663414bf389826040518263ffffffff1660e01b81526004016103d19190610b48565b6020604051808303815f875af11580156103ed573d5f803e3d5ffd5b505050506040513d601f19601f820116820180604052508101906104119190610b76565b915050919050565b73e67abda0d43f7ac8f37876bbf00d1dfadbb93aaa81565b7f000000000000000000000000000000000000000000000000000000000000000081565b5f805f9054906101000a900473ffffffffffffffffffffffffffffffffffffffff1673ffffffffffffffffffffffffffffffffffffffff1663095ea7b37f0000000000000000000000000000000000000000000000000000000000000000846040518363ffffffff1660e01b81526004016104d19291906109e5565b6020604051808303815f875af11580156104ed573d5f803e3d5ffd5b505050506040513d601f19601f820116820180604052508101906105119190610a41565b505f60405180610100016040528073779877a7b0d9e8603169ddbd7836e478b462478973ffffffffffffffffffffffffffffffffffffffff16815260200173e67abda0d43f7ac8f37876bbf00d1dfadbb93aaa73ffffffffffffffffffffffffffffffffffffffff168152602001610bb862ffffff1681526020013073ffffffffffffffffffffffffffffffffffffffff1681526020014281526020018581526020018481526020015f73ffffffffffffffffffffffffffffffffffffffff1681525090507f000000000000000000000000000000000000000000000000000000000000000073ffffffffffffffffffffffffffffffffffffffff1663db3e2198826040518263ffffffff1660e01b815260040161062f9190610c41565b6020604051808303815f875af115801561064b573d5f803e3d5ffd5b505050506040513d601f19601f8201168201806040525081019061066f9190610b76565b9150828210156107db575f8054906101000a900473ffffffffffffffffffffffffffffffffffffffff1673ffffffffffffffffffffffffffffffffffffffff1663095ea7b37f00000000000000000000000000000000000000000000000000000000000000005f6040518363ffffffff1660e01b81526004016106f3929190610c94565b6020604051808303815f875af115801561070f573d5f803e3d5ffd5b505050506040513d601f19601f820116820180604052508101906107339190610a41565b505f8054906101000a900473ffffffffffffffffffffffffffffffffffffffff1673ffffffffffffffffffffffffffffffffffffffff1663a9059cbb30848661077c9190610ce8565b6040518363ffffffff1660e01b81526004016107999291906109e5565b6020604051808303815f875af11580156107b5573d5f803e3d5ffd5b505050506040513d601f19601f820116820180604052508101906107d99190610a41565b505b5092915050565b5f62ffffff82169050919050565b6107f9816107e2565b82525050565b5f6020820190506108125f8301846107f0565b92915050565b5f73ffffffffffffffffffffffffffffffffffffffff82169050919050565b5f61084182610818565b9050919050565b61085181610837565b82525050565b5f60208201905061086a5f830184610848565b92915050565b5f819050919050565b5f61089361088e61088984610818565b610870565b610818565b9050919050565b5f6108a482610879565b9050919050565b5f6108b58261089a565b9050919050565b6108c5816108ab565b82525050565b5f6020820190506108de5f8301846108bc565b92915050565b5f80fd5b5f819050919050565b6108fa816108e8565b8114610904575f80fd5b50565b5f81359050610915816108f1565b92915050565b5f602082840312156109305761092f6108e4565b5b5f61093d84828501610907565b91505092915050565b61094f816108e8565b82525050565b5f6020820190506109685f830184610946565b92915050565b5f6109788261089a565b9050919050565b6109888161096e565b82525050565b5f6020820190506109a15f83018461097f565b92915050565b5f80604083850312156109bd576109bc6108e4565b5b5f6109ca85828601610907565b92505060206109db85828601610907565b9150509250929050565b5f6040820190506109f85f830185610848565b610a056020830184610946565b9392505050565b5f8115159050919050565b610a2081610a0c565b8114610a2a575f80fd5b50565b5f81519050610a3b81610a17565b92915050565b5f60208284031215610a5657610a556108e4565b5b5f610a6384828501610a2d565b91505092915050565b610a7581610837565b82525050565b610a84816107e2565b82525050565b610a93816108e8565b82525050565b610aa281610818565b82525050565b61010082015f820151610abd5f850182610a6c565b506020820151610ad06020850182610a6c565b506040820151610ae36040850182610a7b565b506060820151610af66060850182610a6c565b506080820151610b096080850182610a8a565b5060a0820151610b1c60a0850182610a8a565b5060c0820151610b2f60c0850182610a8a565b5060e0820151610b4260e0850182610a99565b50505050565b5f61010082019050610b5c5f830184610aa8565b92915050565b5f81519050610b70816108f1565b92915050565b5f60208284031215610b8b57610b8a6108e4565b5b5f610b9884828501610b62565b91505092915050565b61010082015f820151610bb65f850182610a6c565b506020820151610bc96020850182610a6c565b506040820151610bdc6040850182610a7b565b506060820151610bef6060850182610a6c565b506080820151610c026080850182610a8a565b5060a0820151610c1560a0850182610a8a565b5060c0820151610c2860c0850182610a8a565b5060e0820151610c3b60e0850182610a99565b50505050565b5f61010082019050610c555f830184610ba1565b92915050565b5f819050919050565b5f610c7e610c79610c7484610c5b565b610870565b6108e8565b9050919050565b610c8e81610c64565b82525050565b5f604082019050610ca75f830185610848565b610cb46020830184610c85565b9392505050565b7f4e487b71000000000000000000000000000000000000000000000000000000005f52601160045260245ffd5b5f610cf2826108e8565b9150610cfd836108e8565b9250828203905081811115610d1557610d14610cbb565b5b9291505056fea2646970667358221220f0e40a4b9b4af222f7eac92a2bea63e5a4221deec1ad186d8b8f2e76404846f264736f6c63430008190033",
					"opcodes": "PUSH1 0xA0 PUSH1 0x40 MSTORE PUSH20 0x227628F3F023BB0B980B67D528571C95C6DAC1C PUSH20 0xFFFFFFFFFFFFFFFFFFFFFFFFFFFFFFFFFFFFFFFF AND PUSH1 0x80 SWAP1 PUSH20 0xFFFFFFFFFFFFFFFFFFFFFFFFFFFFFFFFFFFFFFFF AND DUP2 MSTORE POP PUSH20 0x779877A7B0D9E8603169DDBD7836E478B4624789 PUSH0 DUP1 PUSH2 0x100 EXP DUP2 SLOAD DUP2 PUSH20 0xFFFFFFFFFFFFFFFFFFFFFFFFFFFFFFFFFFFFFFFF MUL NOT AND SWAP1 DUP4 PUSH20 0xFFFFFFFFFFFFFFFFFFFFFFFFFFFFFFFFFFFFFFFF AND MUL OR SWAP1 SSTORE POP CALLVALUE DUP1 ISZERO PUSH1 0xA8 JUMPI PUSH0 DUP1 REVERT JUMPDEST POP PUSH1 0x80 MLOAD PUSH2 0xD51 PUSH2 0xE4 PUSH0 CODECOPY PUSH0 DUP2 DUP2 PUSH2 0x236 ADD MSTORE DUP2 DUP2 PUSH2 0x37A ADD MSTORE DUP2 DUP2 PUSH2 0x433 ADD MSTORE DUP2 DUP2 PUSH2 0x494 ADD MSTORE DUP2 DUP2 PUSH2 0x5D8 ADD MSTORE PUSH2 0x6B6 ADD MSTORE PUSH2 0xD51 PUSH0 RETURN INVALID PUSH1 0x80 PUSH1 0x40 MSTORE CALLVALUE DUP1 ISZERO PUSH2 0xF JUMPI PUSH0 DUP1 REVERT JUMPDEST POP PUSH1 0x4 CALLDATASIZE LT PUSH2 0x86 JUMPI PUSH0 CALLDATALOAD PUSH1 0xE0 SHR DUP1 PUSH4 0x73BD43AD GT PUSH2 0x59 JUMPI DUP1 PUSH4 0x73BD43AD EQ PUSH2 0x102 JUMPI DUP1 PUSH4 0xAD5C4648 EQ PUSH2 0x132 JUMPI DUP1 PUSH4 0xC31C9C07 EQ PUSH2 0x150 JUMPI DUP1 PUSH4 0xC4B69A18 EQ PUSH2 0x16E JUMPI PUSH2 0x86 JUMP JUMPDEST DUP1 PUSH4 0x89FE6AA EQ PUSH2 0x8A JUMPI DUP1 PUSH4 0x1B6B6D23 EQ PUSH2 0xA8 JUMPI DUP1 PUSH4 0x3268CC56 EQ PUSH2 0xC6 JUMPI DUP1 PUSH4 0x57970E93 EQ PUSH2 0xE4 JUMPI JUMPDEST PUSH0 DUP1 REVERT JUMPDEST PUSH2 0x92 PUSH2 0x19E JUMP JUMPDEST PUSH1 0x40 MLOAD PUSH2 0x9F SWAP2 SWAP1 PUSH2 0x7FF JUMP JUMPDEST PUSH1 0x40 MLOAD DUP1 SWAP2 SUB SWAP1 RETURN JUMPDEST PUSH2 0xB0 PUSH2 0x1A4 JUMP JUMPDEST PUSH1 0x40 MLOAD PUSH2 0xBD SWAP2 SWAP1 PUSH2 0x857 JUMP JUMPDEST PUSH1 0x40 MLOAD DUP1 SWAP2 SUB SWAP1 RETURN JUMPDEST PUSH2 0xCE PUSH2 0x1BC JUMP JUMPDEST PUSH1 0x40 MLOAD PUSH2 0xDB SWAP2 SWAP1 PUSH2 0x857 JUMP JUMPDEST PUSH1 0x40 MLOAD DUP1 SWAP2 SUB SWAP1 RETURN JUMPDEST PUSH2 0xEC PUSH2 0x1D4 JUMP JUMPDEST PUSH1 0x40 MLOAD PUSH2 0xF9 SWAP2 SWAP1 PUSH2 0x8CB JUMP JUMPDEST PUSH1 0x40 MLOAD DUP1 SWAP2 SUB SWAP1 RETURN JUMPDEST PUSH2 0x11C PUSH1 0x4 DUP1 CALLDATASIZE SUB DUP2 ADD SWAP1 PUSH2 0x117 SWAP2 SWAP1 PUSH2 0x91B JUMP JUMPDEST PUSH2 0x1F7 JUMP JUMPDEST PUSH1 0x40 MLOAD PUSH2 0x129 SWAP2 SWAP1 PUSH2 0x955 JUMP JUMPDEST PUSH1 0x40 MLOAD DUP1 SWAP2 SUB SWAP1 RETURN JUMPDEST PUSH2 0x13A PUSH2 0x419 JUMP JUMPDEST PUSH1 0x40 MLOAD PUSH2 0x147 SWAP2 SWAP1 PUSH2 0x857 JUMP JUMPDEST PUSH1 0x40 MLOAD DUP1 SWAP2 SUB SWAP1 RETURN JUMPDEST PUSH2 0x158 PUSH2 0x431 JUMP JUMPDEST PUSH1 0x40 MLOAD PUSH2 0x165 SWAP2 SWAP1 PUSH2 0x98E JUMP JUMPDEST PUSH1 0x40 MLOAD DUP1 SWAP2 SUB SWAP1 RETURN JUMPDEST PUSH2 0x188 PUSH1 0x4 DUP1 CALLDATASIZE SUB DUP2 ADD SWAP1 PUSH2 0x183 SWAP2 SWAP1 PUSH2 0x9A7 JUMP JUMPDEST PUSH2 0x455 JUMP JUMPDEST PUSH1 0x40 MLOAD PUSH2 0x195 SWAP2 SWAP1 PUSH2 0x955 JUMP JUMPDEST PUSH1 0x40 MLOAD DUP1 SWAP2 SUB SWAP1 RETURN JUMPDEST PUSH2 0xBB8 DUP2 JUMP JUMPDEST PUSH20 0x779877A7B0D9E8603169DDBD7836E478B4624789 DUP2 JUMP JUMPDEST PUSH20 0x227628F3F023BB0B980B67D528571C95C6DAC1C DUP2 JUMP JUMPDEST PUSH0 DUP1 SLOAD SWAP1 PUSH2 0x100 EXP SWAP1 DIV PUSH20 0xFFFFFFFFFFFFFFFFFFFFFFFFFFFFFFFFFFFFFFFF AND DUP2 JUMP JUMPDEST PUSH0 DUP1 PUSH0 SWAP1 SLOAD SWAP1 PUSH2 0x100 EXP SWAP1 DIV PUSH20 0xFFFFFFFFFFFFFFFFFFFFFFFFFFFFFFFFFFFFFFFF AND PUSH20 0xFFFFFFFFFFFFFFFFFFFFFFFFFFFFFFFFFFFFFFFF AND PUSH4 0x95EA7B3 PUSH32 0x0 DUP5 PUSH1 0x40 MLOAD DUP4 PUSH4 0xFFFFFFFF AND PUSH1 0xE0 SHL DUP2 MSTORE PUSH1 0x4 ADD PUSH2 0x273 SWAP3 SWAP2 SWAP1 PUSH2 0x9E5 JUMP JUMPDEST PUSH1 0x20 PUSH1 0x40 MLOAD DUP1 DUP4 SUB DUP2 PUSH0 DUP8 GAS CALL ISZERO DUP1 ISZERO PUSH2 0x28F JUMPI RETURNDATASIZE PUSH0 DUP1 RETURNDATACOPY RETURNDATASIZE PUSH0 REVERT JUMPDEST POP POP POP POP PUSH1 0x40 MLOAD RETURNDATASIZE PUSH1 0x1F NOT PUSH1 0x1F DUP3 ADD AND DUP3 ADD DUP1 PUSH1 0x40 MSTORE POP DUP2 ADD SWAP1 PUSH2 0x2B3 SWAP2 SWAP1 PUSH2 0xA41 JUMP JUMPDEST POP PUSH0 PUSH1 0x40 MLOAD DUP1 PUSH2 0x100 ADD PUSH1 0x40 MSTORE DUP1 PUSH20 0x779877A7B0D9E8603169DDBD7836E478B4624789 PUSH20 0xFFFFFFFFFFFFFFFFFFFFFFFFFFFFFFFFFFFFFFFF AND DUP2 MSTORE PUSH1 0x20 ADD PUSH20 0xE67ABDA0D43F7AC8F37876BBF00D1DFADBB93AAA PUSH20 0xFFFFFFFFFFFFFFFFFFFFFFFFFFFFFFFFFFFFFFFF AND DUP2 MSTORE PUSH1 0x20 ADD PUSH2 0xBB8 PUSH3 0xFFFFFF AND DUP2 MSTORE PUSH1 0x20 ADD ADDRESS PUSH20 0xFFFFFFFFFFFFFFFFFFFFFFFFFFFFFFFFFFFFFFFF AND DUP2 MSTORE PUSH1 0x20 ADD TIMESTAMP DUP2 MSTORE PUSH1 0x20 ADD DUP5 DUP2 MSTORE PUSH1 0x20 ADD PUSH0 DUP2 MSTORE PUSH1 0x20 ADD PUSH0 PUSH20 0xFFFFFFFFFFFFFFFFFFFFFFFFFFFFFFFFFFFFFFFF AND DUP2 MSTORE POP SWAP1 POP PUSH32 0x0 PUSH20 0xFFFFFFFFFFFFFFFFFFFFFFFFFFFFFFFFFFFFFFFF AND PUSH4 0x414BF389 DUP3 PUSH1 0x40 MLOAD DUP3 PUSH4 0xFFFFFFFF AND PUSH1 0xE0 SHL DUP2 MSTORE PUSH1 0x4 ADD PUSH2 0x3D1 SWAP2 SWAP1 PUSH2 0xB48 JUMP JUMPDEST PUSH1 0x20 PUSH1 0x40 MLOAD DUP1 DUP4 SUB DUP2 PUSH0 DUP8 GAS CALL ISZERO DUP1 ISZERO PUSH2 0x3ED JUMPI RETURNDATASIZE PUSH0 DUP1 RETURNDATACOPY RETURNDATASIZE PUSH0 REVERT JUMPDEST POP POP POP POP PUSH1 0x40 MLOAD RETURNDATASIZE PUSH1 0x1F NOT PUSH1 0x1F DUP3 ADD AND DUP3 ADD DUP1 PUSH1 0x40 MSTORE POP DUP2 ADD SWAP1 PUSH2 0x411 SWAP2 SWAP1 PUSH2 0xB76 JUMP JUMPDEST SWAP2 POP POP SWAP2 SWAP1 POP JUMP JUMPDEST PUSH20 0xE67ABDA0D43F7AC8F37876BBF00D1DFADBB93AAA DUP2 JUMP JUMPDEST PUSH32 0x0 DUP2 JUMP JUMPDEST PUSH0 DUP1 PUSH0 SWAP1 SLOAD SWAP1 PUSH2 0x100 EXP SWAP1 DIV PUSH20 0xFFFFFFFFFFFFFFFFFFFFFFFFFFFFFFFFFFFFFFFF AND PUSH20 0xFFFFFFFFFFFFFFFFFFFFFFFFFFFFFFFFFFFFFFFF AND PUSH4 0x95EA7B3 PUSH32 0x0 DUP5 PUSH1 0x40 MLOAD DUP4 PUSH4 0xFFFFFFFF AND PUSH1 0xE0 SHL DUP2 MSTORE PUSH1 0x4 ADD PUSH2 0x4D1 SWAP3 SWAP2 SWAP1 PUSH2 0x9E5 JUMP JUMPDEST PUSH1 0x20 PUSH1 0x40 MLOAD DUP1 DUP4 SUB DUP2 PUSH0 DUP8 GAS CALL ISZERO DUP1 ISZERO PUSH2 0x4ED JUMPI RETURNDATASIZE PUSH0 DUP1 RETURNDATACOPY RETURNDATASIZE PUSH0 REVERT JUMPDEST POP POP POP POP PUSH1 0x40 MLOAD RETURNDATASIZE PUSH1 0x1F NOT PUSH1 0x1F DUP3 ADD AND DUP3 ADD DUP1 PUSH1 0x40 MSTORE POP DUP2 ADD SWAP1 PUSH2 0x511 SWAP2 SWAP1 PUSH2 0xA41 JUMP JUMPDEST POP PUSH0 PUSH1 0x40 MLOAD DUP1 PUSH2 0x100 ADD PUSH1 0x40 MSTORE DUP1 PUSH20 0x779877A7B0D9E8603169DDBD7836E478B4624789 PUSH20 0xFFFFFFFFFFFFFFFFFFFFFFFFFFFFFFFFFFFFFFFF AND DUP2 MSTORE PUSH1 0x20 ADD PUSH20 0xE67ABDA0D43F7AC8F37876BBF00D1DFADBB93AAA PUSH20 0xFFFFFFFFFFFFFFFFFFFFFFFFFFFFFFFFFFFFFFFF AND DUP2 MSTORE PUSH1 0x20 ADD PUSH2 0xBB8 PUSH3 0xFFFFFF AND DUP2 MSTORE PUSH1 0x20 ADD ADDRESS PUSH20 0xFFFFFFFFFFFFFFFFFFFFFFFFFFFFFFFFFFFFFFFF AND DUP2 MSTORE PUSH1 0x20 ADD TIMESTAMP DUP2 MSTORE PUSH1 0x20 ADD DUP6 DUP2 MSTORE PUSH1 0x20 ADD DUP5 DUP2 MSTORE PUSH1 0x20 ADD PUSH0 PUSH20 0xFFFFFFFFFFFFFFFFFFFFFFFFFFFFFFFFFFFFFFFF AND DUP2 MSTORE POP SWAP1 POP PUSH32 0x0 PUSH20 0xFFFFFFFFFFFFFFFFFFFFFFFFFFFFFFFFFFFFFFFF AND PUSH4 0xDB3E2198 DUP3 PUSH1 0x40 MLOAD DUP3 PUSH4 0xFFFFFFFF AND PUSH1 0xE0 SHL DUP2 MSTORE PUSH1 0x4 ADD PUSH2 0x62F SWAP2 SWAP1 PUSH2 0xC41 JUMP JUMPDEST PUSH1 0x20 PUSH1 0x40 MLOAD DUP1 DUP4 SUB DUP2 PUSH0 DUP8 GAS CALL ISZERO DUP1 ISZERO PUSH2 0x64B JUMPI RETURNDATASIZE PUSH0 DUP1 RETURNDATACOPY RETURNDATASIZE PUSH0 REVERT JUMPDEST POP POP POP POP PUSH1 0x40 MLOAD RETURNDATASIZE PUSH1 0x1F NOT PUSH1 0x1F DUP3 ADD AND DUP3 ADD DUP1 PUSH1 0x40 MSTORE POP DUP2 ADD SWAP1 PUSH2 0x66F SWAP2 SWAP1 PUSH2 0xB76 JUMP JUMPDEST SWAP2 POP DUP3 DUP3 LT ISZERO PUSH2 0x7DB JUMPI PUSH0 DUP1 SLOAD SWAP1 PUSH2 0x100 EXP SWAP1 DIV PUSH20 0xFFFFFFFFFFFFFFFFFFFFFFFFFFFFFFFFFFFFFFFF AND PUSH20 0xFFFFFFFFFFFFFFFFFFFFFFFFFFFFFFFFFFFFFFFF AND PUSH4 0x95EA7B3 PUSH32 0x0 PUSH0 PUSH1 0x40 MLOAD DUP4 PUSH4 0xFFFFFFFF AND PUSH1 0xE0 SHL DUP2 MSTORE PUSH1 0x4 ADD PUSH2 0x6F3 SWAP3 SWAP2 SWAP1 PUSH2 0xC94 JUMP JUMPDEST PUSH1 0x20 PUSH1 0x40 MLOAD DUP1 DUP4 SUB DUP2 PUSH0 DUP8 GAS CALL ISZERO DUP1 ISZERO PUSH2 0x70F JUMPI RETURNDATASIZE PUSH0 DUP1 RETURNDATACOPY RETURNDATASIZE PUSH0 REVERT JUMPDEST POP POP POP POP PUSH1 0x40 MLOAD RETURNDATASIZE PUSH1 0x1F NOT PUSH1 0x1F DUP3 ADD AND DUP3 ADD DUP1 PUSH1 0x40 MSTORE POP DUP2 ADD SWAP1 PUSH2 0x733 SWAP2 SWAP1 PUSH2 0xA41 JUMP JUMPDEST POP PUSH0 DUP1 SLOAD SWAP1 PUSH2 0x100 EXP SWAP1 DIV PUSH20 0xFFFFFFFFFFFFFFFFFFFFFFFFFFFFFFFFFFFFFFFF AND PUSH20 0xFFFFFFFFFFFFFFFFFFFFFFFFFFFFFFFFFFFFFFFF AND PUSH4 0xA9059CBB ADDRESS DUP5 DUP7 PUSH2 0x77C SWAP2 SWAP1 PUSH2 0xCE8 JUMP JUMPDEST PUSH1 0x40 MLOAD DUP4 PUSH4 0xFFFFFFFF AND PUSH1 0xE0 SHL DUP2 MSTORE PUSH1 0x4 ADD PUSH2 0x799 SWAP3 SWAP2 SWAP1 PUSH2 0x9E5 JUMP JUMPDEST PUSH1 0x20 PUSH1 0x40 MLOAD DUP1 DUP4 SUB DUP2 PUSH0 DUP8 GAS CALL ISZERO DUP1 ISZERO PUSH2 0x7B5 JUMPI RETURNDATASIZE PUSH0 DUP1 RETURNDATACOPY RETURNDATASIZE PUSH0 REVERT JUMPDEST POP POP POP POP PUSH1 0x40 MLOAD RETURNDATASIZE PUSH1 0x1F NOT PUSH1 0x1F DUP3 ADD AND DUP3 ADD DUP1 PUSH1 0x40 MSTORE POP DUP2 ADD SWAP1 PUSH2 0x7D9 SWAP2 SWAP1 PUSH2 0xA41 JUMP JUMPDEST POP JUMPDEST POP SWAP3 SWAP2 POP POP JUMP JUMPDEST PUSH0 PUSH3 0xFFFFFF DUP3 AND SWAP1 POP SWAP2 SWAP1 POP JUMP JUMPDEST PUSH2 0x7F9 DUP2 PUSH2 0x7E2 JUMP JUMPDEST DUP3 MSTORE POP POP JUMP JUMPDEST PUSH0 PUSH1 0x20 DUP3 ADD SWAP1 POP PUSH2 0x812 PUSH0 DUP4 ADD DUP5 PUSH2 0x7F0 JUMP JUMPDEST SWAP3 SWAP2 POP POP JUMP JUMPDEST PUSH0 PUSH20 0xFFFFFFFFFFFFFFFFFFFFFFFFFFFFFFFFFFFFFFFF DUP3 AND SWAP1 POP SWAP2 SWAP1 POP JUMP JUMPDEST PUSH0 PUSH2 0x841 DUP3 PUSH2 0x818 JUMP JUMPDEST SWAP1 POP SWAP2 SWAP1 POP JUMP JUMPDEST PUSH2 0x851 DUP2 PUSH2 0x837 JUMP JUMPDEST DUP3 MSTORE POP POP JUMP JUMPDEST PUSH0 PUSH1 0x20 DUP3 ADD SWAP1 POP PUSH2 0x86A PUSH0 DUP4 ADD DUP5 PUSH2 0x848 JUMP JUMPDEST SWAP3 SWAP2 POP POP JUMP JUMPDEST PUSH0 DUP2 SWAP1 POP SWAP2 SWAP1 POP JUMP JUMPDEST PUSH0 PUSH2 0x893 PUSH2 0x88E PUSH2 0x889 DUP5 PUSH2 0x818 JUMP JUMPDEST PUSH2 0x870 JUMP JUMPDEST PUSH2 0x818 JUMP JUMPDEST SWAP1 POP SWAP2 SWAP1 POP JUMP JUMPDEST PUSH0 PUSH2 0x8A4 DUP3 PUSH2 0x879 JUMP JUMPDEST SWAP1 POP SWAP2 SWAP1 POP JUMP JUMPDEST PUSH0 PUSH2 0x8B5 DUP3 PUSH2 0x89A JUMP JUMPDEST SWAP1 POP SWAP2 SWAP1 POP JUMP JUMPDEST PUSH2 0x8C5 DUP2 PUSH2 0x8AB JUMP JUMPDEST DUP3 MSTORE POP POP JUMP JUMPDEST PUSH0 PUSH1 0x20 DUP3 ADD SWAP1 POP PUSH2 0x8DE PUSH0 DUP4 ADD DUP5 PUSH2 0x8BC JUMP JUMPDEST SWAP3 SWAP2 POP POP JUMP JUMPDEST PUSH0 DUP1 REVERT JUMPDEST PUSH0 DUP2 SWAP1 POP SWAP2 SWAP1 POP JUMP JUMPDEST PUSH2 0x8FA DUP2 PUSH2 0x8E8 JUMP JUMPDEST DUP2 EQ PUSH2 0x904 JUMPI PUSH0 DUP1 REVERT JUMPDEST POP JUMP JUMPDEST PUSH0 DUP2 CALLDATALOAD SWAP1 POP PUSH2 0x915 DUP2 PUSH2 0x8F1 JUMP JUMPDEST SWAP3 SWAP2 POP POP JUMP JUMPDEST PUSH0 PUSH1 0x20 DUP3 DUP5 SUB SLT ISZERO PUSH2 0x930 JUMPI PUSH2 0x92F PUSH2 0x8E4 JUMP JUMPDEST JUMPDEST PUSH0 PUSH2 0x93D DUP5 DUP3 DUP6 ADD PUSH2 0x907 JUMP JUMPDEST SWAP2 POP POP SWAP3 SWAP2 POP POP JUMP JUMPDEST PUSH2 0x94F DUP2 PUSH2 0x8E8 JUMP JUMPDEST DUP3 MSTORE POP POP JUMP JUMPDEST PUSH0 PUSH1 0x20 DUP3 ADD SWAP1 POP PUSH2 0x968 PUSH0 DUP4 ADD DUP5 PUSH2 0x946 JUMP JUMPDEST SWAP3 SWAP2 POP POP JUMP JUMPDEST PUSH0 PUSH2 0x978 DUP3 PUSH2 0x89A JUMP JUMPDEST SWAP1 POP SWAP2 SWAP1 POP JUMP JUMPDEST PUSH2 0x988 DUP2 PUSH2 0x96E JUMP JUMPDEST DUP3 MSTORE POP POP JUMP JUMPDEST PUSH0 PUSH1 0x20 DUP3 ADD SWAP1 POP PUSH2 0x9A1 PUSH0 DUP4 ADD DUP5 PUSH2 0x97F JUMP JUMPDEST SWAP3 SWAP2 POP POP JUMP JUMPDEST PUSH0 DUP1 PUSH1 0x40 DUP4 DUP6 SUB SLT ISZERO PUSH2 0x9BD JUMPI PUSH2 0x9BC PUSH2 0x8E4 JUMP JUMPDEST JUMPDEST PUSH0 PUSH2 0x9CA DUP6 DUP3 DUP7 ADD PUSH2 0x907 JUMP JUMPDEST SWAP3 POP POP PUSH1 0x20 PUSH2 0x9DB DUP6 DUP3 DUP7 ADD PUSH2 0x907 JUMP JUMPDEST SWAP2 POP POP SWAP3 POP SWAP3 SWAP1 POP JUMP JUMPDEST PUSH0 PUSH1 0x40 DUP3 ADD SWAP1 POP PUSH2 0x9F8 PUSH0 DUP4 ADD DUP6 PUSH2 0x848 JUMP JUMPDEST PUSH2 0xA05 PUSH1 0x20 DUP4 ADD DUP5 PUSH2 0x946 JUMP JUMPDEST SWAP4 SWAP3 POP POP POP JUMP JUMPDEST PUSH0 DUP2 ISZERO ISZERO SWAP1 POP SWAP2 SWAP1 POP JUMP JUMPDEST PUSH2 0xA20 DUP2 PUSH2 0xA0C JUMP JUMPDEST DUP2 EQ PUSH2 0xA2A JUMPI PUSH0 DUP1 REVERT JUMPDEST POP JUMP JUMPDEST PUSH0 DUP2 MLOAD SWAP1 POP PUSH2 0xA3B DUP2 PUSH2 0xA17 JUMP JUMPDEST SWAP3 SWAP2 POP POP JUMP JUMPDEST PUSH0 PUSH1 0x20 DUP3 DUP5 SUB SLT ISZERO PUSH2 0xA56 JUMPI PUSH2 0xA55 PUSH2 0x8E4 JUMP JUMPDEST JUMPDEST PUSH0 PUSH2 0xA63 DUP5 DUP3 DUP6 ADD PUSH2 0xA2D JUMP JUMPDEST SWAP2 POP POP SWAP3 SWAP2 POP POP JUMP JUMPDEST PUSH2 0xA75 DUP2 PUSH2 0x837 JUMP JUMPDEST DUP3 MSTORE POP POP JUMP JUMPDEST PUSH2 0xA84 DUP2 PUSH2 0x7E2 JUMP JUMPDEST DUP3 MSTORE POP POP JUMP JUMPDEST PUSH2 0xA93 DUP2 PUSH2 0x8E8 JUMP JUMPDEST DUP3 MSTORE POP POP JUMP JUMPDEST PUSH2 0xAA2 DUP2 PUSH2 0x818 JUMP JUMPDEST DUP3 MSTORE POP POP JUMP JUMPDEST PUSH2 0x100 DUP3 ADD PUSH0 DUP3 ADD MLOAD PUSH2 0xABD PUSH0 DUP6 ADD DUP3 PUSH2 0xA6C JUMP JUMPDEST POP PUSH1 0x20 DUP3 ADD MLOAD PUSH2 0xAD0 PUSH1 0x20 DUP6 ADD DUP3 PUSH2 0xA6C JUMP JUMPDEST POP PUSH1 0x40 DUP3 ADD MLOAD PUSH2 0xAE3 PUSH1 0x40 DUP6 ADD DUP3 PUSH2 0xA7B JUMP JUMPDEST POP PUSH1 0x60 DUP3 ADD MLOAD PUSH2 0xAF6 PUSH1 0x60 DUP6 ADD DUP3 PUSH2 0xA6C JUMP JUMPDEST POP PUSH1 0x80 DUP3 ADD MLOAD PUSH2 0xB09 PUSH1 0x80 DUP6 ADD DUP3 PUSH2 0xA8A JUMP JUMPDEST POP PUSH1 0xA0 DUP3 ADD MLOAD PUSH2 0xB1C PUSH1 0xA0 DUP6 ADD DUP3 PUSH2 0xA8A JUMP JUMPDEST POP PUSH1 0xC0 DUP3 ADD MLOAD PUSH2 0xB2F PUSH1 0xC0 DUP6 ADD DUP3 PUSH2 0xA8A JUMP JUMPDEST POP PUSH1 0xE0 DUP3 ADD MLOAD PUSH2 0xB42 PUSH1 0xE0 DUP6 ADD DUP3 PUSH2 0xA99 JUMP JUMPDEST POP POP POP POP JUMP JUMPDEST PUSH0 PUSH2 0x100 DUP3 ADD SWAP1 POP PUSH2 0xB5C PUSH0 DUP4 ADD DUP5 PUSH2 0xAA8 JUMP JUMPDEST SWAP3 SWAP2 POP POP JUMP JUMPDEST PUSH0 DUP2 MLOAD SWAP1 POP PUSH2 0xB70 DUP2 PUSH2 0x8F1 JUMP JUMPDEST SWAP3 SWAP2 POP POP JUMP JUMPDEST PUSH0 PUSH1 0x20 DUP3 DUP5 SUB SLT ISZERO PUSH2 0xB8B JUMPI PUSH2 0xB8A PUSH2 0x8E4 JUMP JUMPDEST JUMPDEST PUSH0 PUSH2 0xB98 DUP5 DUP3 DUP6 ADD PUSH2 0xB62 JUMP JUMPDEST SWAP2 POP POP SWAP3 SWAP2 POP POP JUMP JUMPDEST PUSH2 0x100 DUP3 ADD PUSH0 DUP3 ADD MLOAD PUSH2 0xBB6 PUSH0 DUP6 ADD DUP3 PUSH2 0xA6C JUMP JUMPDEST POP PUSH1 0x20 DUP3 ADD MLOAD PUSH2 0xBC9 PUSH1 0x20 DUP6 ADD DUP3 PUSH2 0xA6C JUMP JUMPDEST POP PUSH1 0x40 DUP3 ADD MLOAD PUSH2 0xBDC PUSH1 0x40 DUP6 ADD DUP3 PUSH2 0xA7B JUMP JUMPDEST POP PUSH1 0x60 DUP3 ADD MLOAD PUSH2 0xBEF PUSH1 0x60 DUP6 ADD DUP3 PUSH2 0xA6C JUMP JUMPDEST POP PUSH1 0x80 DUP3 ADD MLOAD PUSH2 0xC02 PUSH1 0x80 DUP6 ADD DUP3 PUSH2 0xA8A JUMP JUMPDEST POP PUSH1 0xA0 DUP3 ADD MLOAD PUSH2 0xC15 PUSH1 0xA0 DUP6 ADD DUP3 PUSH2 0xA8A JUMP JUMPDEST POP PUSH1 0xC0 DUP3 ADD MLOAD PUSH2 0xC28 PUSH1 0xC0 DUP6 ADD DUP3 PUSH2 0xA8A JUMP JUMPDEST POP PUSH1 0xE0 DUP3 ADD MLOAD PUSH2 0xC3B PUSH1 0xE0 DUP6 ADD DUP3 PUSH2 0xA99 JUMP JUMPDEST POP POP POP POP JUMP JUMPDEST PUSH0 PUSH2 0x100 DUP3 ADD SWAP1 POP PUSH2 0xC55 PUSH0 DUP4 ADD DUP5 PUSH2 0xBA1 JUMP JUMPDEST SWAP3 SWAP2 POP POP JUMP JUMPDEST PUSH0 DUP2 SWAP1 POP SWAP2 SWAP1 POP JUMP JUMPDEST PUSH0 PUSH2 0xC7E PUSH2 0xC79 PUSH2 0xC74 DUP5 PUSH2 0xC5B JUMP JUMPDEST PUSH2 0x870 JUMP JUMPDEST PUSH2 0x8E8 JUMP JUMPDEST SWAP1 POP SWAP2 SWAP1 POP JUMP JUMPDEST PUSH2 0xC8E DUP2 PUSH2 0xC64 JUMP JUMPDEST DUP3 MSTORE POP POP JUMP JUMPDEST PUSH0 PUSH1 0x40 DUP3 ADD SWAP1 POP PUSH2 0xCA7 PUSH0 DUP4 ADD DUP6 PUSH2 0x848 JUMP JUMPDEST PUSH2 0xCB4 PUSH1 0x20 DUP4 ADD DUP5 PUSH2 0xC85 JUMP JUMPDEST SWAP4 SWAP3 POP POP POP JUMP JUMPDEST PUSH32 0x4E487B7100000000000000000000000000000000000000000000000000000000 PUSH0 MSTORE PUSH1 0x11 PUSH1 0x4 MSTORE PUSH1 0x24 PUSH0 REVERT JUMPDEST PUSH0 PUSH2 0xCF2 DUP3 PUSH2 0x8E8 JUMP JUMPDEST SWAP2 POP PUSH2 0xCFD DUP4 PUSH2 0x8E8 JUMP JUMPDEST SWAP3 POP DUP3 DUP3 SUB SWAP1 POP DUP2 DUP2 GT ISZERO PUSH2 0xD15 JUMPI PUSH2 0xD14 PUSH2 0xCBB JUMP JUMPDEST JUMPDEST SWAP3 SWAP2 POP POP JUMP INVALID LOG2 PUSH5 0x6970667358 0x22 SLT KECCAK256 CREATE 0xE4 EXP 0x4B SWAP12 BLOBBASEFEE CALLCODE 0x22 0xF7 0xEA 0xC9 0x2A 0x2B 0xEA PUSH4 0xE5A4221D 0xEE 0xC1 0xAD XOR PUSH14 0x8B8F2E76404846F264736F6C6343 STOP ADDMOD NOT STOP CALLER "
				},
				"gasEstimates": {
					"creation": {
						"codeDepositCost": "681800",
						"executionCost": "infinite",
						"totalCost": "infinite"
					},
					"external": {
						"LINK()": "396",
						"WETH()": "395",
						"linkToken()": "infinite",
						"poolFee()": "332",
						"routerAddress()": "418",
						"swapExactInputSingle(uint256)": "infinite",
						"swapExactOutputSingle(uint256,uint256)": "infinite",
						"swapRouter()": "infinite"
					}
				},
				"methodIdentifiers": {
					"LINK()": "1b6b6d23",
					"WETH()": "ad5c4648",
					"linkToken()": "57970e93",
					"poolFee()": "089fe6aa",
					"routerAddress()": "3268cc56",
					"swapExactInputSingle(uint256)": "73bd43ad",
					"swapExactOutputSingle(uint256,uint256)": "c4b69a18",
					"swapRouter()": "c31c9c07"
				}
			},
			"storageLayout": {
				"storage": [
					{
						"astId": 164,
						"contract": "contracts/SWA.sol:SingleSwap",
						"label": "linkToken",
						"offset": 0,
						"slot": "0",
						"type": "t_contract(IERC20)143"
					}
				],
				"types": {
					"t_contract(IERC20)143": {
						"encoding": "inplace",
						"label": "contract IERC20",
						"numberOfBytes": "20"
					}
				}
			},
			"userdoc": {
				"kind": "user",
				"methods": {},
				"version": 1
			}
		}
	}
}