{
	"contracts/Bank.sol": {
		"SimpleBank": {
			"abi": [
				{
					"anonymous": false,
					"inputs": [
						{
							"indexed": true,
							"internalType": "address",
							"name": "accountAddress",
							"type": "address"
						},
						{
							"indexed": false,
							"internalType": "uint256",
							"name": "amount",
							"type": "uint256"
						}
					],
					"name": "DepositMade",
					"type": "event"
				},
				{
					"inputs": [],
					"name": "checkBalance",
					"outputs": [
						{
							"internalType": "uint256",
							"name": "",
							"type": "uint256"
						}
					],
					"stateMutability": "view",
					"type": "function"
				},
				{
					"inputs": [],
					"name": "deposit",
					"outputs": [],
					"stateMutability": "payable",
					"type": "function"
				},
				{
					"inputs": [
						{
							"internalType": "address",
							"name": "_account",
							"type": "address"
						}
					],
					"name": "getDepositHistory",
					"outputs": [
						{
							"components": [
								{
									"internalType": "uint256",
									"name": "amount",
									"type": "uint256"
								},
								{
									"internalType": "uint256",
									"name": "timestamp",
									"type": "uint256"
								}
							],
							"internalType": "struct SimpleBank.DepositDetail[]",
							"name": "",
							"type": "tuple[]"
						}
					],
					"stateMutability": "view",
					"type": "function"
				},
				{
					"inputs": [
						{
							"internalType": "uint256",
							"name": "_amount",
							"type": "uint256"
						}
					],
					"name": "withdraw",
					"outputs": [],
					"stateMutability": "payable",
					"type": "function"
				}
			],
			"devdoc": {
				"kind": "dev",
				"methods": {},
				"version": 1
			},
			"evm": {
				"assembly": "    /* \"contracts/Bank.sol\":91:1288  contract SimpleBank {\r... */\n  mstore(0x40, 0x80)\n  callvalue\n  dup1\n  iszero\n  tag_1\n  jumpi\n  0x00\n  dup1\n  revert\ntag_1:\n  pop\n  dataSize(sub_0)\n  dup1\n  dataOffset(sub_0)\n  0x00\n  codecopy\n  0x00\n  return\nstop\n\nsub_0: assembly {\n        /* \"contracts/Bank.sol\":91:1288  contract SimpleBank {\r... */\n      mstore(0x40, 0x80)\n      jumpi(tag_1, lt(calldatasize, 0x04))\n      shr(0xe0, calldataload(0x00))\n      dup1\n      0x2e1a7d4d\n      eq\n      tag_2\n      jumpi\n      dup1\n      0x5a33c3da\n      eq\n      tag_3\n      jumpi\n      dup1\n      0xc71daccb\n      eq\n      tag_4\n      jumpi\n      dup1\n      0xd0e30db0\n      eq\n      tag_5\n      jumpi\n    tag_1:\n      0x00\n      dup1\n      revert\n        /* \"contracts/Bank.sol\":751:970  function withdraw(uint _amount) public payable{\r... */\n    tag_2:\n      tag_6\n      0x04\n      dup1\n      calldatasize\n      sub\n      dup2\n      add\n      swap1\n      tag_7\n      swap2\n      swap1\n      tag_8\n      jump\t// in\n    tag_7:\n      tag_9\n      jump\t// in\n    tag_6:\n      stop\n        /* \"contracts/Bank.sol\":1145:1285  function getDepositHistory(address _account) public view returns (DepositDetail[] memory) {\r... */\n    tag_3:\n      callvalue\n      dup1\n      iszero\n      tag_10\n      jumpi\n      0x00\n      dup1\n      revert\n    tag_10:\n      pop\n      tag_11\n      0x04\n      dup1\n      calldatasize\n      sub\n      dup2\n      add\n      swap1\n      tag_12\n      swap2\n      swap1\n      tag_13\n      jump\t// in\n    tag_12:\n      tag_14\n      jump\t// in\n    tag_11:\n      mload(0x40)\n      tag_15\n      swap2\n      swap1\n      tag_16\n      jump\t// in\n    tag_15:\n      mload(0x40)\n      dup1\n      swap2\n      sub\n      swap1\n      return\n        /* \"contracts/Bank.sol\":978:1075  function checkBalance() public view returns (uint) {\r... */\n    tag_4:\n      callvalue\n      dup1\n      iszero\n      tag_17\n      jumpi\n      0x00\n      dup1\n      revert\n    tag_17:\n      pop\n      tag_18\n      tag_19\n      jump\t// in\n    tag_18:\n      mload(0x40)\n      tag_20\n      swap2\n      swap1\n      tag_21\n      jump\t// in\n    tag_20:\n      mload(0x40)\n      dup1\n      swap2\n      sub\n      swap1\n      return\n        /* \"contracts/Bank.sol\":388:743  function deposit() public payable  {\r... */\n    tag_5:\n      tag_22\n      tag_23\n      jump\t// in\n    tag_22:\n      stop\n        /* \"contracts/Bank.sol\":751:970  function withdraw(uint _amount) public payable{\r... */\n    tag_9:\n        /* \"contracts/Bank.sol\":827:835  balances */\n      0x00\n        /* \"contracts/Bank.sol\":827:847  balances[msg.sender] */\n      dup1\n        /* \"contracts/Bank.sol\":836:846  msg.sender */\n      caller\n        /* \"contracts/Bank.sol\":827:847  balances[msg.sender] */\n      0xffffffffffffffffffffffffffffffffffffffff\n      and\n      0xffffffffffffffffffffffffffffffffffffffff\n      and\n      dup2\n      mstore\n      0x20\n      add\n      swap1\n      dup2\n      mstore\n      0x20\n      add\n      0x00\n      keccak256\n      sload\n        /* \"contracts/Bank.sol\":816:823  _amount */\n      dup2\n        /* \"contracts/Bank.sol\":816:847  _amount <= balances[msg.sender] */\n      gt\n      iszero\n        /* \"contracts/Bank.sol\":808:872  require(_amount <= balances[msg.sender], \"Insufficient balance\") */\n      tag_25\n      jumpi\n      mload(0x40)\n      0x08c379a000000000000000000000000000000000000000000000000000000000\n      dup2\n      mstore\n      0x04\n      add\n      tag_26\n      swap1\n      tag_27\n      jump\t// in\n    tag_26:\n      mload(0x40)\n      dup1\n      swap2\n      sub\n      swap1\n      revert\n    tag_25:\n        /* \"contracts/Bank.sol\":891:901  msg.sender */\n      caller\n        /* \"contracts/Bank.sol\":883:911  payable(msg.sender).transfer */\n      0xffffffffffffffffffffffffffffffffffffffff\n      and\n        /* \"contracts/Bank.sol\":883:920  payable(msg.sender).transfer(_amount) */\n      0x08fc\n        /* \"contracts/Bank.sol\":912:919  _amount */\n      dup3\n        /* \"contracts/Bank.sol\":883:920  payable(msg.sender).transfer(_amount) */\n      swap1\n      dup2\n      iszero\n      mul\n      swap1\n      mload(0x40)\n      0x00\n      mload(0x40)\n      dup1\n      dup4\n      sub\n      dup2\n      dup6\n      dup9\n      dup9\n      call\n      swap4\n      pop\n      pop\n      pop\n      pop\n      iszero\n      dup1\n      iszero\n      tag_29\n      jumpi\n      returndatasize\n      0x00\n      dup1\n      returndatacopy\n      revert(0x00, returndatasize)\n    tag_29:\n      pop\n        /* \"contracts/Bank.sol\":955:962  _amount */\n      dup1\n        /* \"contracts/Bank.sol\":931:939  balances */\n      0x00\n        /* \"contracts/Bank.sol\":931:951  balances[msg.sender] */\n      dup1\n        /* \"contracts/Bank.sol\":940:950  msg.sender */\n      caller\n        /* \"contracts/Bank.sol\":931:951  balances[msg.sender] */\n      0xffffffffffffffffffffffffffffffffffffffff\n      and\n      0xffffffffffffffffffffffffffffffffffffffff\n      and\n      dup2\n      mstore\n      0x20\n      add\n      swap1\n      dup2\n      mstore\n      0x20\n      add\n      0x00\n      keccak256\n      0x00\n        /* \"contracts/Bank.sol\":931:962  balances[msg.sender] -= _amount */\n      dup3\n      dup3\n      sload\n      sub\n      swap3\n      pop\n      pop\n      dup2\n      swap1\n      sstore\n      pop\n        /* \"contracts/Bank.sol\":751:970  function withdraw(uint _amount) public payable{\r... */\n      pop\n      jump\t// out\n        /* \"contracts/Bank.sol\":1145:1285  function getDepositHistory(address _account) public view returns (DepositDetail[] memory) {\r... */\n    tag_14:\n        /* \"contracts/Bank.sol\":1211:1233  DepositDetail[] memory */\n      0x60\n        /* \"contracts/Bank.sol\":1253:1267  depositHistory */\n      0x01\n        /* \"contracts/Bank.sol\":1253:1277  depositHistory[_account] */\n      0x00\n        /* \"contracts/Bank.sol\":1268:1276  _account */\n      dup4\n        /* \"contracts/Bank.sol\":1253:1277  depositHistory[_account] */\n      0xffffffffffffffffffffffffffffffffffffffff\n      and\n      0xffffffffffffffffffffffffffffffffffffffff\n      and\n      dup2\n      mstore\n      0x20\n      add\n      swap1\n      dup2\n      mstore\n      0x20\n      add\n      0x00\n      keccak256\n        /* \"contracts/Bank.sol\":1246:1277  return depositHistory[_account] */\n      dup1\n      sload\n      dup1\n      0x20\n      mul\n      0x20\n      add\n      mload(0x40)\n      swap1\n      dup2\n      add\n      0x40\n      mstore\n      dup1\n      swap3\n      swap2\n      swap1\n      dup2\n      dup2\n      mstore\n      0x20\n      add\n      0x00\n      swap1\n    tag_31:\n      dup3\n      dup3\n      lt\n      iszero\n      tag_32\n      jumpi\n      dup4\n      dup3\n      swap1\n      0x00\n      mstore\n      keccak256(0x00, 0x20)\n      swap1\n      0x02\n      mul\n      add\n      mload(0x40)\n      dup1\n      0x40\n      add\n      0x40\n      mstore\n      swap1\n      dup2\n      0x00\n      dup3\n      add\n      sload\n      dup2\n      mstore\n      0x20\n      add\n      0x01\n      dup3\n      add\n      sload\n      dup2\n      mstore\n      pop\n      pop\n      dup2\n      mstore\n      0x20\n      add\n      swap1\n      0x01\n      add\n      swap1\n      jump(tag_31)\n    tag_32:\n      pop\n      pop\n      pop\n      pop\n      swap1\n      pop\n        /* \"contracts/Bank.sol\":1145:1285  function getDepositHistory(address _account) public view returns (DepositDetail[] memory) {\r... */\n      swap2\n      swap1\n      pop\n      jump\t// out\n        /* \"contracts/Bank.sol\":978:1075  function checkBalance() public view returns (uint) {\r... */\n    tag_19:\n        /* \"contracts/Bank.sol\":1023:1027  uint */\n      0x00\n        /* \"contracts/Bank.sol\":1047:1055  balances */\n      dup1\n        /* \"contracts/Bank.sol\":1047:1067  balances[msg.sender] */\n      0x00\n        /* \"contracts/Bank.sol\":1056:1066  msg.sender */\n      caller\n        /* \"contracts/Bank.sol\":1047:1067  balances[msg.sender] */\n      0xffffffffffffffffffffffffffffffffffffffff\n      and\n      0xffffffffffffffffffffffffffffffffffffffff\n      and\n      dup2\n      mstore\n      0x20\n      add\n      swap1\n      dup2\n      mstore\n      0x20\n      add\n      0x00\n      keccak256\n      sload\n        /* \"contracts/Bank.sol\":1040:1067  return balances[msg.sender] */\n      swap1\n      pop\n        /* \"contracts/Bank.sol\":978:1075  function checkBalance() public view returns (uint) {\r... */\n      swap1\n      jump\t// out\n        /* \"contracts/Bank.sol\":388:743  function deposit() public payable  {\r... */\n    tag_23:\n        /* \"contracts/Bank.sol\":550:559  msg.value */\n      callvalue\n        /* \"contracts/Bank.sol\":527:535  balances */\n      0x00\n        /* \"contracts/Bank.sol\":527:547  balances[msg.sender] */\n      dup1\n        /* \"contracts/Bank.sol\":536:546  msg.sender */\n      caller\n        /* \"contracts/Bank.sol\":527:547  balances[msg.sender] */\n      0xffffffffffffffffffffffffffffffffffffffff\n      and\n      0xffffffffffffffffffffffffffffffffffffffff\n      and\n      dup2\n      mstore\n      0x20\n      add\n      swap1\n      dup2\n      mstore\n      0x20\n      add\n      0x00\n      keccak256\n      sload\n        /* \"contracts/Bank.sol\":527:559  balances[msg.sender] + msg.value */\n      add\n        /* \"contracts/Bank.sol\":504:512  balances */\n      0x00\n        /* \"contracts/Bank.sol\":504:524  balances[msg.sender] */\n      dup1\n        /* \"contracts/Bank.sol\":513:523  msg.sender */\n      caller\n        /* \"contracts/Bank.sol\":504:524  balances[msg.sender] */\n      0xffffffffffffffffffffffffffffffffffffffff\n      and\n      0xffffffffffffffffffffffffffffffffffffffff\n      and\n      dup2\n      mstore\n      0x20\n      add\n      swap1\n      dup2\n      mstore\n      0x20\n      add\n      0x00\n      keccak256\n        /* \"contracts/Bank.sol\":504:559  balances[msg.sender] = balances[msg.sender] + msg.value */\n      dup2\n      swap1\n      sstore\n      pop\n        /* \"contracts/Bank.sol\":609:623  depositHistory */\n      0x01\n        /* \"contracts/Bank.sol\":609:635  depositHistory[msg.sender] */\n      0x00\n        /* \"contracts/Bank.sol\":624:634  msg.sender */\n      caller\n        /* \"contracts/Bank.sol\":609:635  depositHistory[msg.sender] */\n      0xffffffffffffffffffffffffffffffffffffffff\n      and\n      0xffffffffffffffffffffffffffffffffffffffff\n      and\n      dup2\n      mstore\n      0x20\n      add\n      swap1\n      dup2\n      mstore\n      0x20\n      add\n      0x00\n      keccak256\n        /* \"contracts/Bank.sol\":641:682  DepositDetail(msg.value, block.timestamp) */\n      mload(0x40)\n      dup1\n      0x40\n      add\n      0x40\n      mstore\n      dup1\n        /* \"contracts/Bank.sol\":655:664  msg.value */\n      callvalue\n        /* \"contracts/Bank.sol\":641:682  DepositDetail(msg.value, block.timestamp) */\n      dup2\n      mstore\n      0x20\n      add\n        /* \"contracts/Bank.sol\":666:681  block.timestamp */\n      timestamp\n        /* \"contracts/Bank.sol\":641:682  DepositDetail(msg.value, block.timestamp) */\n      dup2\n      mstore\n      pop\n        /* \"contracts/Bank.sol\":609:683  depositHistory[msg.sender].push(DepositDetail(msg.value, block.timestamp)) */\n      swap1\n      dup1\n      0x01\n      dup2\n      sload\n      add\n      dup1\n      dup3\n      sstore\n      dup1\n      swap2\n      pop\n      pop\n      0x01\n      swap1\n      sub\n      swap1\n      0x00\n      mstore\n      keccak256(0x00, 0x20)\n      swap1\n      0x02\n      mul\n      add\n      0x00\n      swap1\n      swap2\n      swap1\n      swap2\n      swap1\n      swap2\n      pop\n      0x00\n      dup3\n      add\n      mload\n      dup2\n      0x00\n      add\n      sstore\n      0x20\n      dup3\n      add\n      mload\n      dup2\n      0x01\n      add\n      sstore\n      pop\n      pop\n        /* \"contracts/Bank.sol\":713:723  msg.sender */\n      caller\n        /* \"contracts/Bank.sol\":701:735  DepositMade(msg.sender, msg.value) */\n      0xffffffffffffffffffffffffffffffffffffffff\n      and\n      0xd15c9547ea5c06670c0010ce19bc32d54682a4b3801ece7f3ab0c3f17106b4bb\n        /* \"contracts/Bank.sol\":725:734  msg.value */\n      callvalue\n        /* \"contracts/Bank.sol\":701:735  DepositMade(msg.sender, msg.value) */\n      mload(0x40)\n      tag_37\n      swap2\n      swap1\n      tag_21\n      jump\t// in\n    tag_37:\n      mload(0x40)\n      dup1\n      swap2\n      sub\n      swap1\n      log2\n        /* \"contracts/Bank.sol\":388:743  function deposit() public payable  {\r... */\n      jump\t// out\n        /* \"#utility.yul\":7:146   */\n    tag_39:\n      0x00\n        /* \"#utility.yul\":91:97   */\n      dup2\n        /* \"#utility.yul\":78:98   */\n      calldataload\n        /* \"#utility.yul\":69:98   */\n      swap1\n      pop\n        /* \"#utility.yul\":107:140   */\n      tag_41\n        /* \"#utility.yul\":134:139   */\n      dup2\n        /* \"#utility.yul\":107:140   */\n      tag_42\n      jump\t// in\n    tag_41:\n        /* \"#utility.yul\":59:146   */\n      swap3\n      swap2\n      pop\n      pop\n      jump\t// out\n        /* \"#utility.yul\":152:291   */\n    tag_43:\n      0x00\n        /* \"#utility.yul\":236:242   */\n      dup2\n        /* \"#utility.yul\":223:243   */\n      calldataload\n        /* \"#utility.yul\":214:243   */\n      swap1\n      pop\n        /* \"#utility.yul\":252:285   */\n      tag_45\n        /* \"#utility.yul\":279:284   */\n      dup2\n        /* \"#utility.yul\":252:285   */\n      tag_46\n      jump\t// in\n    tag_45:\n        /* \"#utility.yul\":204:291   */\n      swap3\n      swap2\n      pop\n      pop\n      jump\t// out\n        /* \"#utility.yul\":297:559   */\n    tag_13:\n      0x00\n        /* \"#utility.yul\":405:407   */\n      0x20\n        /* \"#utility.yul\":393:402   */\n      dup3\n        /* \"#utility.yul\":384:391   */\n      dup5\n        /* \"#utility.yul\":380:403   */\n      sub\n        /* \"#utility.yul\":376:408   */\n      slt\n        /* \"#utility.yul\":373:375   */\n      iszero\n      tag_48\n      jumpi\n        /* \"#utility.yul\":421:422   */\n      0x00\n        /* \"#utility.yul\":418:419   */\n      dup1\n        /* \"#utility.yul\":411:423   */\n      revert\n        /* \"#utility.yul\":373:375   */\n    tag_48:\n        /* \"#utility.yul\":464:465   */\n      0x00\n        /* \"#utility.yul\":489:542   */\n      tag_49\n        /* \"#utility.yul\":534:541   */\n      dup5\n        /* \"#utility.yul\":525:531   */\n      dup3\n        /* \"#utility.yul\":514:523   */\n      dup6\n        /* \"#utility.yul\":510:532   */\n      add\n        /* \"#utility.yul\":489:542   */\n      tag_39\n      jump\t// in\n    tag_49:\n        /* \"#utility.yul\":479:542   */\n      swap2\n      pop\n        /* \"#utility.yul\":435:552   */\n      pop\n        /* \"#utility.yul\":363:559   */\n      swap3\n      swap2\n      pop\n      pop\n      jump\t// out\n        /* \"#utility.yul\":565:827   */\n    tag_8:\n      0x00\n        /* \"#utility.yul\":673:675   */\n      0x20\n        /* \"#utility.yul\":661:670   */\n      dup3\n        /* \"#utility.yul\":652:659   */\n      dup5\n        /* \"#utility.yul\":648:671   */\n      sub\n        /* \"#utility.yul\":644:676   */\n      slt\n        /* \"#utility.yul\":641:643   */\n      iszero\n      tag_51\n      jumpi\n        /* \"#utility.yul\":689:690   */\n      0x00\n        /* \"#utility.yul\":686:687   */\n      dup1\n        /* \"#utility.yul\":679:691   */\n      revert\n        /* \"#utility.yul\":641:643   */\n    tag_51:\n        /* \"#utility.yul\":732:733   */\n      0x00\n        /* \"#utility.yul\":757:810   */\n      tag_52\n        /* \"#utility.yul\":802:809   */\n      dup5\n        /* \"#utility.yul\":793:799   */\n      dup3\n        /* \"#utility.yul\":782:791   */\n      dup6\n        /* \"#utility.yul\":778:800   */\n      add\n        /* \"#utility.yul\":757:810   */\n      tag_43\n      jump\t// in\n    tag_52:\n        /* \"#utility.yul\":747:810   */\n      swap2\n      pop\n        /* \"#utility.yul\":703:820   */\n      pop\n        /* \"#utility.yul\":631:827   */\n      swap3\n      swap2\n      pop\n      pop\n      jump\t// out\n        /* \"#utility.yul\":833:1124   */\n    tag_53:\n      0x00\n        /* \"#utility.yul\":979:1081   */\n      tag_55\n        /* \"#utility.yul\":1077:1080   */\n      dup4\n        /* \"#utility.yul\":1069:1075   */\n      dup4\n        /* \"#utility.yul\":979:1081   */\n      tag_56\n      jump\t// in\n    tag_55:\n        /* \"#utility.yul\":1113:1117   */\n      0x40\n        /* \"#utility.yul\":1108:1111   */\n      dup4\n        /* \"#utility.yul\":1104:1118   */\n      add\n        /* \"#utility.yul\":1090:1118   */\n      swap1\n      pop\n        /* \"#utility.yul\":969:1124   */\n      swap3\n      swap2\n      pop\n      pop\n      jump\t// out\n        /* \"#utility.yul\":1208:2164   */\n    tag_57:\n      0x00\n        /* \"#utility.yul\":1412:1494   */\n      tag_59\n        /* \"#utility.yul\":1488:1493   */\n      dup3\n        /* \"#utility.yul\":1412:1494   */\n      tag_60\n      jump\t// in\n    tag_59:\n        /* \"#utility.yul\":1510:1624   */\n      tag_61\n        /* \"#utility.yul\":1617:1623   */\n      dup2\n        /* \"#utility.yul\":1612:1615   */\n      dup6\n        /* \"#utility.yul\":1510:1624   */\n      tag_62\n      jump\t// in\n    tag_61:\n        /* \"#utility.yul\":1503:1624   */\n      swap4\n      pop\n        /* \"#utility.yul\":1648:1732   */\n      tag_63\n        /* \"#utility.yul\":1726:1731   */\n      dup4\n        /* \"#utility.yul\":1648:1732   */\n      tag_64\n      jump\t// in\n    tag_63:\n        /* \"#utility.yul\":1755:1762   */\n      dup1\n        /* \"#utility.yul\":1786:1787   */\n      0x00\n        /* \"#utility.yul\":1771:2139   */\n    tag_65:\n        /* \"#utility.yul\":1796:1802   */\n      dup4\n        /* \"#utility.yul\":1793:1794   */\n      dup2\n        /* \"#utility.yul\":1790:1803   */\n      lt\n        /* \"#utility.yul\":1771:2139   */\n      iszero\n      tag_67\n      jumpi\n        /* \"#utility.yul\":1872:1878   */\n      dup2\n        /* \"#utility.yul\":1866:1879   */\n      mload\n        /* \"#utility.yul\":1899:2018   */\n      tag_68\n        /* \"#utility.yul\":2014:2017   */\n      dup9\n        /* \"#utility.yul\":1999:2012   */\n      dup3\n        /* \"#utility.yul\":1899:2018   */\n      tag_53\n      jump\t// in\n    tag_68:\n        /* \"#utility.yul\":1892:2018   */\n      swap8\n      pop\n        /* \"#utility.yul\":2041:2129   */\n      tag_69\n        /* \"#utility.yul\":2122:2128   */\n      dup4\n        /* \"#utility.yul\":2041:2129   */\n      tag_70\n      jump\t// in\n    tag_69:\n        /* \"#utility.yul\":2031:2129   */\n      swap3\n      pop\n        /* \"#utility.yul\":1831:2139   */\n      pop\n        /* \"#utility.yul\":1818:1819   */\n      0x01\n        /* \"#utility.yul\":1815:1816   */\n      dup2\n        /* \"#utility.yul\":1811:1820   */\n      add\n        /* \"#utility.yul\":1806:1820   */\n      swap1\n      pop\n        /* \"#utility.yul\":1771:2139   */\n      jump(tag_65)\n    tag_67:\n        /* \"#utility.yul\":1775:1789   */\n      pop\n        /* \"#utility.yul\":2155:2158   */\n      dup6\n        /* \"#utility.yul\":2148:2158   */\n      swap4\n      pop\n        /* \"#utility.yul\":1388:2164   */\n      pop\n      pop\n      pop\n      swap3\n      swap2\n      pop\n      pop\n      jump\t// out\n        /* \"#utility.yul\":2170:2488   */\n    tag_71:\n      0x00\n        /* \"#utility.yul\":2333:2400   */\n      tag_73\n        /* \"#utility.yul\":2397:2399   */\n      0x14\n        /* \"#utility.yul\":2392:2395   */\n      dup4\n        /* \"#utility.yul\":2333:2400   */\n      tag_74\n      jump\t// in\n    tag_73:\n        /* \"#utility.yul\":2326:2400   */\n      swap2\n      pop\n        /* \"#utility.yul\":2430:2452   */\n      0x496e73756666696369656e742062616c616e6365000000000000000000000000\n        /* \"#utility.yul\":2426:2427   */\n      0x00\n        /* \"#utility.yul\":2421:2424   */\n      dup4\n        /* \"#utility.yul\":2417:2428   */\n      add\n        /* \"#utility.yul\":2410:2453   */\n      mstore\n        /* \"#utility.yul\":2479:2481   */\n      0x20\n        /* \"#utility.yul\":2474:2477   */\n      dup3\n        /* \"#utility.yul\":2470:2482   */\n      add\n        /* \"#utility.yul\":2463:2482   */\n      swap1\n      pop\n        /* \"#utility.yul\":2316:2488   */\n      swap2\n      swap1\n      pop\n      jump\t// out\n        /* \"#utility.yul\":2568:3078   */\n    tag_56:\n        /* \"#utility.yul\":2711:2715   */\n      0x40\n        /* \"#utility.yul\":2706:2709   */\n      dup3\n        /* \"#utility.yul\":2702:2716   */\n      add\n        /* \"#utility.yul\":2800:2804   */\n      0x00\n        /* \"#utility.yul\":2793:2798   */\n      dup3\n        /* \"#utility.yul\":2789:2805   */\n      add\n        /* \"#utility.yul\":2783:2806   */\n      mload\n        /* \"#utility.yul\":2819:2882   */\n      tag_76\n        /* \"#utility.yul\":2876:2880   */\n      0x00\n        /* \"#utility.yul\":2871:2874   */\n      dup6\n        /* \"#utility.yul\":2867:2881   */\n      add\n        /* \"#utility.yul\":2853:2865   */\n      dup3\n        /* \"#utility.yul\":2819:2882   */\n      tag_77\n      jump\t// in\n    tag_76:\n        /* \"#utility.yul\":2726:2892   */\n      pop\n        /* \"#utility.yul\":2979:2983   */\n      0x20\n        /* \"#utility.yul\":2972:2977   */\n      dup3\n        /* \"#utility.yul\":2968:2984   */\n      add\n        /* \"#utility.yul\":2962:2985   */\n      mload\n        /* \"#utility.yul\":2998:3061   */\n      tag_78\n        /* \"#utility.yul\":3055:3059   */\n      0x20\n        /* \"#utility.yul\":3050:3053   */\n      dup6\n        /* \"#utility.yul\":3046:3060   */\n      add\n        /* \"#utility.yul\":3032:3044   */\n      dup3\n        /* \"#utility.yul\":2998:3061   */\n      tag_77\n      jump\t// in\n    tag_78:\n        /* \"#utility.yul\":2902:3071   */\n      pop\n        /* \"#utility.yul\":2680:3078   */\n      pop\n      pop\n      pop\n      jump\t// out\n        /* \"#utility.yul\":3084:3192   */\n    tag_77:\n        /* \"#utility.yul\":3161:3185   */\n      tag_80\n        /* \"#utility.yul\":3179:3184   */\n      dup2\n        /* \"#utility.yul\":3161:3185   */\n      tag_81\n      jump\t// in\n    tag_80:\n        /* \"#utility.yul\":3156:3159   */\n      dup3\n        /* \"#utility.yul\":3149:3186   */\n      mstore\n        /* \"#utility.yul\":3139:3192   */\n      pop\n      pop\n      jump\t// out\n        /* \"#utility.yul\":3198:3316   */\n    tag_82:\n        /* \"#utility.yul\":3285:3309   */\n      tag_84\n        /* \"#utility.yul\":3303:3308   */\n      dup2\n        /* \"#utility.yul\":3285:3309   */\n      tag_81\n      jump\t// in\n    tag_84:\n        /* \"#utility.yul\":3280:3283   */\n      dup3\n        /* \"#utility.yul\":3273:3310   */\n      mstore\n        /* \"#utility.yul\":3263:3316   */\n      pop\n      pop\n      jump\t// out\n        /* \"#utility.yul\":3322:3807   */\n    tag_16:\n      0x00\n        /* \"#utility.yul\":3559:3561   */\n      0x20\n        /* \"#utility.yul\":3548:3557   */\n      dup3\n        /* \"#utility.yul\":3544:3562   */\n      add\n        /* \"#utility.yul\":3536:3562   */\n      swap1\n      pop\n        /* \"#utility.yul\":3608:3617   */\n      dup2\n        /* \"#utility.yul\":3602:3606   */\n      dup2\n        /* \"#utility.yul\":3598:3618   */\n      sub\n        /* \"#utility.yul\":3594:3595   */\n      0x00\n        /* \"#utility.yul\":3583:3592   */\n      dup4\n        /* \"#utility.yul\":3579:3596   */\n      add\n        /* \"#utility.yul\":3572:3619   */\n      mstore\n        /* \"#utility.yul\":3636:3800   */\n      tag_86\n        /* \"#utility.yul\":3795:3799   */\n      dup2\n        /* \"#utility.yul\":3786:3792   */\n      dup5\n        /* \"#utility.yul\":3636:3800   */\n      tag_57\n      jump\t// in\n    tag_86:\n        /* \"#utility.yul\":3628:3800   */\n      swap1\n      pop\n        /* \"#utility.yul\":3526:3807   */\n      swap3\n      swap2\n      pop\n      pop\n      jump\t// out\n        /* \"#utility.yul\":3813:4232   */\n    tag_27:\n      0x00\n        /* \"#utility.yul\":4017:4019   */\n      0x20\n        /* \"#utility.yul\":4006:4015   */\n      dup3\n        /* \"#utility.yul\":4002:4020   */\n      add\n        /* \"#utility.yul\":3994:4020   */\n      swap1\n      pop\n        /* \"#utility.yul\":4066:4075   */\n      dup2\n        /* \"#utility.yul\":4060:4064   */\n      dup2\n        /* \"#utility.yul\":4056:4076   */\n      sub\n        /* \"#utility.yul\":4052:4053   */\n      0x00\n        /* \"#utility.yul\":4041:4050   */\n      dup4\n        /* \"#utility.yul\":4037:4054   */\n      add\n        /* \"#utility.yul\":4030:4077   */\n      mstore\n        /* \"#utility.yul\":4094:4225   */\n      tag_88\n        /* \"#utility.yul\":4220:4224   */\n      dup2\n        /* \"#utility.yul\":4094:4225   */\n      tag_71\n      jump\t// in\n    tag_88:\n        /* \"#utility.yul\":4086:4225   */\n      swap1\n      pop\n        /* \"#utility.yul\":3984:4232   */\n      swap2\n      swap1\n      pop\n      jump\t// out\n        /* \"#utility.yul\":4238:4460   */\n    tag_21:\n      0x00\n        /* \"#utility.yul\":4369:4371   */\n      0x20\n        /* \"#utility.yul\":4358:4367   */\n      dup3\n        /* \"#utility.yul\":4354:4372   */\n      add\n        /* \"#utility.yul\":4346:4372   */\n      swap1\n      pop\n        /* \"#utility.yul\":4382:4453   */\n      tag_90\n        /* \"#utility.yul\":4450:4451   */\n      0x00\n        /* \"#utility.yul\":4439:4448   */\n      dup4\n        /* \"#utility.yul\":4435:4452   */\n      add\n        /* \"#utility.yul\":4426:4432   */\n      dup5\n        /* \"#utility.yul\":4382:4453   */\n      tag_82\n      jump\t// in\n    tag_90:\n        /* \"#utility.yul\":4336:4460   */\n      swap3\n      swap2\n      pop\n      pop\n      jump\t// out\n        /* \"#utility.yul\":4466:4626   */\n    tag_64:\n      0x00\n        /* \"#utility.yul\":4584:4587   */\n      dup2\n        /* \"#utility.yul\":4576:4587   */\n      swap1\n      pop\n        /* \"#utility.yul\":4614:4618   */\n      0x20\n        /* \"#utility.yul\":4609:4612   */\n      dup3\n        /* \"#utility.yul\":4605:4619   */\n      add\n        /* \"#utility.yul\":4597:4619   */\n      swap1\n      pop\n        /* \"#utility.yul\":4566:4626   */\n      swap2\n      swap1\n      pop\n      jump\t// out\n        /* \"#utility.yul\":4632:4774   */\n    tag_60:\n      0x00\n        /* \"#utility.yul\":4761:4766   */\n      dup2\n        /* \"#utility.yul\":4755:4767   */\n      mload\n        /* \"#utility.yul\":4745:4767   */\n      swap1\n      pop\n        /* \"#utility.yul\":4734:4774   */\n      swap2\n      swap1\n      pop\n      jump\t// out\n        /* \"#utility.yul\":4780:4921   */\n    tag_70:\n      0x00\n        /* \"#utility.yul\":4910:4914   */\n      0x20\n        /* \"#utility.yul\":4905:4908   */\n      dup3\n        /* \"#utility.yul\":4901:4915   */\n      add\n        /* \"#utility.yul\":4893:4915   */\n      swap1\n      pop\n        /* \"#utility.yul\":4883:4921   */\n      swap2\n      swap1\n      pop\n      jump\t// out\n        /* \"#utility.yul\":4927:5139   */\n    tag_62:\n      0x00\n        /* \"#utility.yul\":5088:5094   */\n      dup3\n        /* \"#utility.yul\":5083:5086   */\n      dup3\n        /* \"#utility.yul\":5076:5095   */\n      mstore\n        /* \"#utility.yul\":5128:5132   */\n      0x20\n        /* \"#utility.yul\":5123:5126   */\n      dup3\n        /* \"#utility.yul\":5119:5133   */\n      add\n        /* \"#utility.yul\":5104:5133   */\n      swap1\n      pop\n        /* \"#utility.yul\":5066:5139   */\n      swap3\n      swap2\n      pop\n      pop\n      jump\t// out\n        /* \"#utility.yul\":5145:5314   */\n    tag_74:\n      0x00\n        /* \"#utility.yul\":5263:5269   */\n      dup3\n        /* \"#utility.yul\":5258:5261   */\n      dup3\n        /* \"#utility.yul\":5251:5270   */\n      mstore\n        /* \"#utility.yul\":5303:5307   */\n      0x20\n        /* \"#utility.yul\":5298:5301   */\n      dup3\n        /* \"#utility.yul\":5294:5308   */\n      add\n        /* \"#utility.yul\":5279:5308   */\n      swap1\n      pop\n        /* \"#utility.yul\":5241:5314   */\n      swap3\n      swap2\n      pop\n      pop\n      jump\t// out\n        /* \"#utility.yul\":5320:5416   */\n    tag_96:\n      0x00\n        /* \"#utility.yul\":5386:5410   */\n      tag_98\n        /* \"#utility.yul\":5404:5409   */\n      dup3\n        /* \"#utility.yul\":5386:5410   */\n      tag_99\n      jump\t// in\n    tag_98:\n        /* \"#utility.yul\":5375:5410   */\n      swap1\n      pop\n        /* \"#utility.yul\":5365:5416   */\n      swap2\n      swap1\n      pop\n      jump\t// out\n        /* \"#utility.yul\":5422:5548   */\n    tag_99:\n      0x00\n        /* \"#utility.yul\":5499:5541   */\n      0xffffffffffffffffffffffffffffffffffffffff\n        /* \"#utility.yul\":5492:5497   */\n      dup3\n        /* \"#utility.yul\":5488:5542   */\n      and\n        /* \"#utility.yul\":5477:5542   */\n      swap1\n      pop\n        /* \"#utility.yul\":5467:5548   */\n      swap2\n      swap1\n      pop\n      jump\t// out\n        /* \"#utility.yul\":5554:5631   */\n    tag_81:\n      0x00\n        /* \"#utility.yul\":5620:5625   */\n      dup2\n        /* \"#utility.yul\":5609:5625   */\n      swap1\n      pop\n        /* \"#utility.yul\":5599:5631   */\n      swap2\n      swap1\n      pop\n      jump\t// out\n        /* \"#utility.yul\":5637:5759   */\n    tag_42:\n        /* \"#utility.yul\":5710:5734   */\n      tag_103\n        /* \"#utility.yul\":5728:5733   */\n      dup2\n        /* \"#utility.yul\":5710:5734   */\n      tag_96\n      jump\t// in\n    tag_103:\n        /* \"#utility.yul\":5703:5708   */\n      dup2\n        /* \"#utility.yul\":5700:5735   */\n      eq\n        /* \"#utility.yul\":5690:5692   */\n      tag_104\n      jumpi\n        /* \"#utility.yul\":5749:5750   */\n      0x00\n        /* \"#utility.yul\":5746:5747   */\n      dup1\n        /* \"#utility.yul\":5739:5751   */\n      revert\n        /* \"#utility.yul\":5690:5692   */\n    tag_104:\n        /* \"#utility.yul\":5680:5759   */\n      pop\n      jump\t// out\n        /* \"#utility.yul\":5765:5887   */\n    tag_46:\n        /* \"#utility.yul\":5838:5862   */\n      tag_106\n        /* \"#utility.yul\":5856:5861   */\n      dup2\n        /* \"#utility.yul\":5838:5862   */\n      tag_81\n      jump\t// in\n    tag_106:\n        /* \"#utility.yul\":5831:5836   */\n      dup2\n        /* \"#utility.yul\":5828:5863   */\n      eq\n        /* \"#utility.yul\":5818:5820   */\n      tag_107\n      jumpi\n        /* \"#utility.yul\":5877:5878   */\n      0x00\n        /* \"#utility.yul\":5874:5875   */\n      dup1\n        /* \"#utility.yul\":5867:5879   */\n      revert\n        /* \"#utility.yul\":5818:5820   */\n    tag_107:\n        /* \"#utility.yul\":5808:5887   */\n      pop\n      jump\t// out\n\n    auxdata: 0xa26469706673582212201e008b57ef1f1c287e307528917a87a86a056bf6b6c2b8f8a6db4e0f6bdbf68264736f6c63430007060033\n}\n",
				"bytecode": {
					"linkReferences": {},
					"object": "608060405234801561001057600080fd5b5061070d806100206000396000f3fe60806040526004361061003f5760003560e01c80632e1a7d4d146100445780635a33c3da14610060578063c71daccb1461009d578063d0e30db0146100c8575b600080fd5b61005e6004803603810190610059919061049a565b6100d2565b005b34801561006c57600080fd5b5061008760048036038101906100829190610471565b6101e9565b60405161009491906105c6565b60405180910390f35b3480156100a957600080fd5b506100b261029b565b6040516100bf9190610608565b60405180910390f35b6100d06102e1565b005b6000803373ffffffffffffffffffffffffffffffffffffffff1673ffffffffffffffffffffffffffffffffffffffff16815260200190815260200160002054811115610153576040517f08c379a000000000000000000000000000000000000000000000000000000000815260040161014a906105e8565b60405180910390fd5b3373ffffffffffffffffffffffffffffffffffffffff166108fc829081150290604051600060405180830381858888f19350505050158015610199573d6000803e3d6000fd5b50806000803373ffffffffffffffffffffffffffffffffffffffff1673ffffffffffffffffffffffffffffffffffffffff1681526020019081526020016000206000828254039250508190555050565b6060600160008373ffffffffffffffffffffffffffffffffffffffff1673ffffffffffffffffffffffffffffffffffffffff168152602001908152602001600020805480602002602001604051908101604052809291908181526020016000905b828210156102905783829060005260206000209060020201604051806040016040529081600082015481526020016001820154815250508152602001906001019061024a565b505050509050919050565b60008060003373ffffffffffffffffffffffffffffffffffffffff1673ffffffffffffffffffffffffffffffffffffffff16815260200190815260200160002054905090565b346000803373ffffffffffffffffffffffffffffffffffffffff1673ffffffffffffffffffffffffffffffffffffffff16815260200190815260200160002054016000803373ffffffffffffffffffffffffffffffffffffffff1673ffffffffffffffffffffffffffffffffffffffff16815260200190815260200160002081905550600160003373ffffffffffffffffffffffffffffffffffffffff1673ffffffffffffffffffffffffffffffffffffffff1681526020019081526020016000206040518060400160405280348152602001428152509080600181540180825580915050600190039060005260206000209060020201600090919091909150600082015181600001556020820151816001015550503373ffffffffffffffffffffffffffffffffffffffff167fd15c9547ea5c06670c0010ce19bc32d54682a4b3801ece7f3ab0c3f17106b4bb3460405161043d9190610608565b60405180910390a2565b600081359050610456816106a9565b92915050565b60008135905061046b816106c0565b92915050565b60006020828403121561048357600080fd5b600061049184828501610447565b91505092915050565b6000602082840312156104ac57600080fd5b60006104ba8482850161045c565b91505092915050565b60006104cf8383610579565b60408301905092915050565b60006104e682610633565b6104f0818561064b565b93506104fb83610623565b8060005b8381101561052c57815161051388826104c3565b975061051e8361063e565b9250506001810190506104ff565b5085935050505092915050565b600061054660148361065c565b91507f496e73756666696369656e742062616c616e63650000000000000000000000006000830152602082019050919050565b60408201600082015161058f60008501826105a8565b5060208201516105a260208501826105a8565b50505050565b6105b18161069f565b82525050565b6105c08161069f565b82525050565b600060208201905081810360008301526105e081846104db565b905092915050565b6000602082019050818103600083015261060181610539565b9050919050565b600060208201905061061d60008301846105b7565b92915050565b6000819050602082019050919050565b600081519050919050565b6000602082019050919050565b600082825260208201905092915050565b600082825260208201905092915050565b60006106788261067f565b9050919050565b600073ffffffffffffffffffffffffffffffffffffffff82169050919050565b6000819050919050565b6106b28161066d565b81146106bd57600080fd5b50565b6106c98161069f565b81146106d457600080fd5b5056fea26469706673582212201e008b57ef1f1c287e307528917a87a86a056bf6b6c2b8f8a6db4e0f6bdbf68264736f6c63430007060033",
					"opcodes": "PUSH1 0x80 PUSH1 0x40 MSTORE CALLVALUE DUP1 ISZERO PUSH2 0x10 JUMPI PUSH1 0x0 DUP1 REVERT JUMPDEST POP PUSH2 0x70D DUP1 PUSH2 0x20 PUSH1 0x0 CODECOPY PUSH1 0x0 RETURN INVALID PUSH1 0x80 PUSH1 0x40 MSTORE PUSH1 0x4 CALLDATASIZE LT PUSH2 0x3F JUMPI PUSH1 0x0 CALLDATALOAD PUSH1 0xE0 SHR DUP1 PUSH4 0x2E1A7D4D EQ PUSH2 0x44 JUMPI DUP1 PUSH4 0x5A33C3DA EQ PUSH2 0x60 JUMPI DUP1 PUSH4 0xC71DACCB EQ PUSH2 0x9D JUMPI DUP1 PUSH4 0xD0E30DB0 EQ PUSH2 0xC8 JUMPI JUMPDEST PUSH1 0x0 DUP1 REVERT JUMPDEST PUSH2 0x5E PUSH1 0x4 DUP1 CALLDATASIZE SUB DUP2 ADD SWAP1 PUSH2 0x59 SWAP2 SWAP1 PUSH2 0x49A JUMP JUMPDEST PUSH2 0xD2 JUMP JUMPDEST STOP JUMPDEST CALLVALUE DUP1 ISZERO PUSH2 0x6C JUMPI PUSH1 0x0 DUP1 REVERT JUMPDEST POP PUSH2 0x87 PUSH1 0x4 DUP1 CALLDATASIZE SUB DUP2 ADD SWAP1 PUSH2 0x82 SWAP2 SWAP1 PUSH2 0x471 JUMP JUMPDEST PUSH2 0x1E9 JUMP JUMPDEST PUSH1 0x40 MLOAD PUSH2 0x94 SWAP2 SWAP1 PUSH2 0x5C6 JUMP JUMPDEST PUSH1 0x40 MLOAD DUP1 SWAP2 SUB SWAP1 RETURN JUMPDEST CALLVALUE DUP1 ISZERO PUSH2 0xA9 JUMPI PUSH1 0x0 DUP1 REVERT JUMPDEST POP PUSH2 0xB2 PUSH2 0x29B JUMP JUMPDEST PUSH1 0x40 MLOAD PUSH2 0xBF SWAP2 SWAP1 PUSH2 0x608 JUMP JUMPDEST PUSH1 0x40 MLOAD DUP1 SWAP2 SUB SWAP1 RETURN JUMPDEST PUSH2 0xD0 PUSH2 0x2E1 JUMP JUMPDEST STOP JUMPDEST PUSH1 0x0 DUP1 CALLER PUSH20 0xFFFFFFFFFFFFFFFFFFFFFFFFFFFFFFFFFFFFFFFF AND PUSH20 0xFFFFFFFFFFFFFFFFFFFFFFFFFFFFFFFFFFFFFFFF AND DUP2 MSTORE PUSH1 0x20 ADD SWAP1 DUP2 MSTORE PUSH1 0x20 ADD PUSH1 0x0 KECCAK256 SLOAD DUP2 GT ISZERO PUSH2 0x153 JUMPI PUSH1 0x40 MLOAD PUSH32 0x8C379A000000000000000000000000000000000000000000000000000000000 DUP2 MSTORE PUSH1 0x4 ADD PUSH2 0x14A SWAP1 PUSH2 0x5E8 JUMP JUMPDEST PUSH1 0x40 MLOAD DUP1 SWAP2 SUB SWAP1 REVERT JUMPDEST CALLER PUSH20 0xFFFFFFFFFFFFFFFFFFFFFFFFFFFFFFFFFFFFFFFF AND PUSH2 0x8FC DUP3 SWAP1 DUP2 ISZERO MUL SWAP1 PUSH1 0x40 MLOAD PUSH1 0x0 PUSH1 0x40 MLOAD DUP1 DUP4 SUB DUP2 DUP6 DUP9 DUP9 CALL SWAP4 POP POP POP POP ISZERO DUP1 ISZERO PUSH2 0x199 JUMPI RETURNDATASIZE PUSH1 0x0 DUP1 RETURNDATACOPY RETURNDATASIZE PUSH1 0x0 REVERT JUMPDEST POP DUP1 PUSH1 0x0 DUP1 CALLER PUSH20 0xFFFFFFFFFFFFFFFFFFFFFFFFFFFFFFFFFFFFFFFF AND PUSH20 0xFFFFFFFFFFFFFFFFFFFFFFFFFFFFFFFFFFFFFFFF AND DUP2 MSTORE PUSH1 0x20 ADD SWAP1 DUP2 MSTORE PUSH1 0x20 ADD PUSH1 0x0 KECCAK256 PUSH1 0x0 DUP3 DUP3 SLOAD SUB SWAP3 POP POP DUP2 SWAP1 SSTORE POP POP JUMP JUMPDEST PUSH1 0x60 PUSH1 0x1 PUSH1 0x0 DUP4 PUSH20 0xFFFFFFFFFFFFFFFFFFFFFFFFFFFFFFFFFFFFFFFF AND PUSH20 0xFFFFFFFFFFFFFFFFFFFFFFFFFFFFFFFFFFFFFFFF AND DUP2 MSTORE PUSH1 0x20 ADD SWAP1 DUP2 MSTORE PUSH1 0x20 ADD PUSH1 0x0 KECCAK256 DUP1 SLOAD DUP1 PUSH1 0x20 MUL PUSH1 0x20 ADD PUSH1 0x40 MLOAD SWAP1 DUP2 ADD PUSH1 0x40 MSTORE DUP1 SWAP3 SWAP2 SWAP1 DUP2 DUP2 MSTORE PUSH1 0x20 ADD PUSH1 0x0 SWAP1 JUMPDEST DUP3 DUP3 LT ISZERO PUSH2 0x290 JUMPI DUP4 DUP3 SWAP1 PUSH1 0x0 MSTORE PUSH1 0x20 PUSH1 0x0 KECCAK256 SWAP1 PUSH1 0x2 MUL ADD PUSH1 0x40 MLOAD DUP1 PUSH1 0x40 ADD PUSH1 0x40 MSTORE SWAP1 DUP2 PUSH1 0x0 DUP3 ADD SLOAD DUP2 MSTORE PUSH1 0x20 ADD PUSH1 0x1 DUP3 ADD SLOAD DUP2 MSTORE POP POP DUP2 MSTORE PUSH1 0x20 ADD SWAP1 PUSH1 0x1 ADD SWAP1 PUSH2 0x24A JUMP JUMPDEST POP POP POP POP SWAP1 POP SWAP2 SWAP1 POP JUMP JUMPDEST PUSH1 0x0 DUP1 PUSH1 0x0 CALLER PUSH20 0xFFFFFFFFFFFFFFFFFFFFFFFFFFFFFFFFFFFFFFFF AND PUSH20 0xFFFFFFFFFFFFFFFFFFFFFFFFFFFFFFFFFFFFFFFF AND DUP2 MSTORE PUSH1 0x20 ADD SWAP1 DUP2 MSTORE PUSH1 0x20 ADD PUSH1 0x0 KECCAK256 SLOAD SWAP1 POP SWAP1 JUMP JUMPDEST CALLVALUE PUSH1 0x0 DUP1 CALLER PUSH20 0xFFFFFFFFFFFFFFFFFFFFFFFFFFFFFFFFFFFFFFFF AND PUSH20 0xFFFFFFFFFFFFFFFFFFFFFFFFFFFFFFFFFFFFFFFF AND DUP2 MSTORE PUSH1 0x20 ADD SWAP1 DUP2 MSTORE PUSH1 0x20 ADD PUSH1 0x0 KECCAK256 SLOAD ADD PUSH1 0x0 DUP1 CALLER PUSH20 0xFFFFFFFFFFFFFFFFFFFFFFFFFFFFFFFFFFFFFFFF AND PUSH20 0xFFFFFFFFFFFFFFFFFFFFFFFFFFFFFFFFFFFFFFFF AND DUP2 MSTORE PUSH1 0x20 ADD SWAP1 DUP2 MSTORE PUSH1 0x20 ADD PUSH1 0x0 KECCAK256 DUP2 SWAP1 SSTORE POP PUSH1 0x1 PUSH1 0x0 CALLER PUSH20 0xFFFFFFFFFFFFFFFFFFFFFFFFFFFFFFFFFFFFFFFF AND PUSH20 0xFFFFFFFFFFFFFFFFFFFFFFFFFFFFFFFFFFFFFFFF AND DUP2 MSTORE PUSH1 0x20 ADD SWAP1 DUP2 MSTORE PUSH1 0x20 ADD PUSH1 0x0 KECCAK256 PUSH1 0x40 MLOAD DUP1 PUSH1 0x40 ADD PUSH1 0x40 MSTORE DUP1 CALLVALUE DUP2 MSTORE PUSH1 0x20 ADD TIMESTAMP DUP2 MSTORE POP SWAP1 DUP1 PUSH1 0x1 DUP2 SLOAD ADD DUP1 DUP3 SSTORE DUP1 SWAP2 POP POP PUSH1 0x1 SWAP1 SUB SWAP1 PUSH1 0x0 MSTORE PUSH1 0x20 PUSH1 0x0 KECCAK256 SWAP1 PUSH1 0x2 MUL ADD PUSH1 0x0 SWAP1 SWAP2 SWAP1 SWAP2 SWAP1 SWAP2 POP PUSH1 0x0 DUP3 ADD MLOAD DUP2 PUSH1 0x0 ADD SSTORE PUSH1 0x20 DUP3 ADD MLOAD DUP2 PUSH1 0x1 ADD SSTORE POP POP CALLER PUSH20 0xFFFFFFFFFFFFFFFFFFFFFFFFFFFFFFFFFFFFFFFF AND PUSH32 0xD15C9547EA5C06670C0010CE19BC32D54682A4B3801ECE7F3AB0C3F17106B4BB CALLVALUE PUSH1 0x40 MLOAD PUSH2 0x43D SWAP2 SWAP1 PUSH2 0x608 JUMP JUMPDEST PUSH1 0x40 MLOAD DUP1 SWAP2 SUB SWAP1 LOG2 JUMP JUMPDEST PUSH1 0x0 DUP2 CALLDATALOAD SWAP1 POP PUSH2 0x456 DUP2 PUSH2 0x6A9 JUMP JUMPDEST SWAP3 SWAP2 POP POP JUMP JUMPDEST PUSH1 0x0 DUP2 CALLDATALOAD SWAP1 POP PUSH2 0x46B DUP2 PUSH2 0x6C0 JUMP JUMPDEST SWAP3 SWAP2 POP POP JUMP JUMPDEST PUSH1 0x0 PUSH1 0x20 DUP3 DUP5 SUB SLT ISZERO PUSH2 0x483 JUMPI PUSH1 0x0 DUP1 REVERT JUMPDEST PUSH1 0x0 PUSH2 0x491 DUP5 DUP3 DUP6 ADD PUSH2 0x447 JUMP JUMPDEST SWAP2 POP POP SWAP3 SWAP2 POP POP JUMP JUMPDEST PUSH1 0x0 PUSH1 0x20 DUP3 DUP5 SUB SLT ISZERO PUSH2 0x4AC JUMPI PUSH1 0x0 DUP1 REVERT JUMPDEST PUSH1 0x0 PUSH2 0x4BA DUP5 DUP3 DUP6 ADD PUSH2 0x45C JUMP JUMPDEST SWAP2 POP POP SWAP3 SWAP2 POP POP JUMP JUMPDEST PUSH1 0x0 PUSH2 0x4CF DUP4 DUP4 PUSH2 0x579 JUMP JUMPDEST PUSH1 0x40 DUP4 ADD SWAP1 POP SWAP3 SWAP2 POP POP JUMP JUMPDEST PUSH1 0x0 PUSH2 0x4E6 DUP3 PUSH2 0x633 JUMP JUMPDEST PUSH2 0x4F0 DUP2 DUP6 PUSH2 0x64B JUMP JUMPDEST SWAP4 POP PUSH2 0x4FB DUP4 PUSH2 0x623 JUMP JUMPDEST DUP1 PUSH1 0x0 JUMPDEST DUP4 DUP2 LT ISZERO PUSH2 0x52C JUMPI DUP2 MLOAD PUSH2 0x513 DUP9 DUP3 PUSH2 0x4C3 JUMP JUMPDEST SWAP8 POP PUSH2 0x51E DUP4 PUSH2 0x63E JUMP JUMPDEST SWAP3 POP POP PUSH1 0x1 DUP2 ADD SWAP1 POP PUSH2 0x4FF JUMP JUMPDEST POP DUP6 SWAP4 POP POP POP POP SWAP3 SWAP2 POP POP JUMP JUMPDEST PUSH1 0x0 PUSH2 0x546 PUSH1 0x14 DUP4 PUSH2 0x65C JUMP JUMPDEST SWAP2 POP PUSH32 0x496E73756666696369656E742062616C616E6365000000000000000000000000 PUSH1 0x0 DUP4 ADD MSTORE PUSH1 0x20 DUP3 ADD SWAP1 POP SWAP2 SWAP1 POP JUMP JUMPDEST PUSH1 0x40 DUP3 ADD PUSH1 0x0 DUP3 ADD MLOAD PUSH2 0x58F PUSH1 0x0 DUP6 ADD DUP3 PUSH2 0x5A8 JUMP JUMPDEST POP PUSH1 0x20 DUP3 ADD MLOAD PUSH2 0x5A2 PUSH1 0x20 DUP6 ADD DUP3 PUSH2 0x5A8 JUMP JUMPDEST POP POP POP POP JUMP JUMPDEST PUSH2 0x5B1 DUP2 PUSH2 0x69F JUMP JUMPDEST DUP3 MSTORE POP POP JUMP JUMPDEST PUSH2 0x5C0 DUP2 PUSH2 0x69F JUMP JUMPDEST DUP3 MSTORE POP POP JUMP JUMPDEST PUSH1 0x0 PUSH1 0x20 DUP3 ADD SWAP1 POP DUP2 DUP2 SUB PUSH1 0x0 DUP4 ADD MSTORE PUSH2 0x5E0 DUP2 DUP5 PUSH2 0x4DB JUMP JUMPDEST SWAP1 POP SWAP3 SWAP2 POP POP JUMP JUMPDEST PUSH1 0x0 PUSH1 0x20 DUP3 ADD SWAP1 POP DUP2 DUP2 SUB PUSH1 0x0 DUP4 ADD MSTORE PUSH2 0x601 DUP2 PUSH2 0x539 JUMP JUMPDEST SWAP1 POP SWAP2 SWAP1 POP JUMP JUMPDEST PUSH1 0x0 PUSH1 0x20 DUP3 ADD SWAP1 POP PUSH2 0x61D PUSH1 0x0 DUP4 ADD DUP5 PUSH2 0x5B7 JUMP JUMPDEST SWAP3 SWAP2 POP POP JUMP JUMPDEST PUSH1 0x0 DUP2 SWAP1 POP PUSH1 0x20 DUP3 ADD SWAP1 POP SWAP2 SWAP1 POP JUMP JUMPDEST PUSH1 0x0 DUP2 MLOAD SWAP1 POP SWAP2 SWAP1 POP JUMP JUMPDEST PUSH1 0x0 PUSH1 0x20 DUP3 ADD SWAP1 POP SWAP2 SWAP1 POP JUMP JUMPDEST PUSH1 0x0 DUP3 DUP3 MSTORE PUSH1 0x20 DUP3 ADD SWAP1 POP SWAP3 SWAP2 POP POP JUMP JUMPDEST PUSH1 0x0 DUP3 DUP3 MSTORE PUSH1 0x20 DUP3 ADD SWAP1 POP SWAP3 SWAP2 POP POP JUMP JUMPDEST PUSH1 0x0 PUSH2 0x678 DUP3 PUSH2 0x67F JUMP JUMPDEST SWAP1 POP SWAP2 SWAP1 POP JUMP JUMPDEST PUSH1 0x0 PUSH20 0xFFFFFFFFFFFFFFFFFFFFFFFFFFFFFFFFFFFFFFFF DUP3 AND SWAP1 POP SWAP2 SWAP1 POP JUMP JUMPDEST PUSH1 0x0 DUP2 SWAP1 POP SWAP2 SWAP1 POP JUMP JUMPDEST PUSH2 0x6B2 DUP2 PUSH2 0x66D JUMP JUMPDEST DUP2 EQ PUSH2 0x6BD JUMPI PUSH1 0x0 DUP1 REVERT JUMPDEST POP JUMP JUMPDEST PUSH2 0x6C9 DUP2 PUSH2 0x69F JUMP JUMPDEST DUP2 EQ PUSH2 0x6D4 JUMPI PUSH1 0x0 DUP1 REVERT JUMPDEST POP JUMP INVALID LOG2 PUSH5 0x6970667358 0x22 SLT KECCAK256 0x1E STOP DUP12 JUMPI 0xEF 0x1F SHR 0x28 PUSH31 0x307528917A87A86A056BF6B6C2B8F8A6DB4E0F6BDBF68264736F6C63430007 MOD STOP CALLER "
				},
				"gasEstimates": {
					"creation": {
						"codeDepositCost": "361000",
						"executionCost": "399",
						"totalCost": "361399"
					},
					"external": {
						"checkBalance()": "1248",
						"deposit()": "83854",
						"getDepositHistory(address)": "infinite",
						"withdraw(uint256)": "infinite"
					}
				},
				"methodIdentifiers": {
					"checkBalance()": "c71daccb",
					"deposit()": "d0e30db0",
					"getDepositHistory(address)": "5a33c3da",
					"withdraw(uint256)": "2e1a7d4d"
				}
			},
			"storageLayout": {
				"storage": [
					{
						"astId": 11,
						"contract": "contracts/Bank.sol:SimpleBank",
						"label": "balances",
						"offset": 0,
						"slot": "0",
						"type": "t_mapping(t_address,t_uint256)"
					},
					{
						"astId": 16,
						"contract": "contracts/Bank.sol:SimpleBank",
						"label": "depositHistory",
						"offset": 0,
						"slot": "1",
						"type": "t_mapping(t_address,t_array(t_struct(DepositDetail)7_storage)dyn_storage)"
					}
				],
				"types": {
					"t_address": {
						"encoding": "inplace",
						"label": "address",
						"numberOfBytes": "20"
					},
					"t_array(t_struct(DepositDetail)7_storage)dyn_storage": {
						"base": "t_struct(DepositDetail)7_storage",
						"encoding": "dynamic_array",
						"label": "struct SimpleBank.DepositDetail[]",
						"numberOfBytes": "32"
					},
					"t_mapping(t_address,t_array(t_struct(DepositDetail)7_storage)dyn_storage)": {
						"encoding": "mapping",
						"key": "t_address",
						"label": "mapping(address => struct SimpleBank.DepositDetail[])",
						"numberOfBytes": "32",
						"value": "t_array(t_struct(DepositDetail)7_storage)dyn_storage"
					},
					"t_mapping(t_address,t_uint256)": {
						"encoding": "mapping",
						"key": "t_address",
						"label": "mapping(address => uint256)",
						"numberOfBytes": "32",
						"value": "t_uint256"
					},
					"t_struct(DepositDetail)7_storage": {
						"encoding": "inplace",
						"label": "struct SimpleBank.DepositDetail",
						"members": [
							{
								"astId": 4,
								"contract": "contracts/Bank.sol:SimpleBank",
								"label": "amount",
								"offset": 0,
								"slot": "0",
								"type": "t_uint256"
							},
							{
								"astId": 6,
								"contract": "contracts/Bank.sol:SimpleBank",
								"label": "timestamp",
								"offset": 0,
								"slot": "1",
								"type": "t_uint256"
							}
						],
						"numberOfBytes": "64"
					},
					"t_uint256": {
						"encoding": "inplace",
						"label": "uint256",
						"numberOfBytes": "32"
					}
				}
			},
			"userdoc": {
				"kind": "user",
				"methods": {},
				"version": 1
			}
		}
	}
}