{
	"data": {
		"bytecode": {
			"linkReferences": {},
			"object": "60a0604052730227628f3f023bb0b980b67d528571c95c6dac1c73ffffffffffffffffffffffffffffffffffffffff1660809073ffffffffffffffffffffffffffffffffffffffff1681525073779877a7b0d9e8603169ddbd7836e478b46247895f806101000a81548173ffffffffffffffffffffffffffffffffffffffff021916908373ffffffffffffffffffffffffffffffffffffffff16021790555034801560a8575f80fd5b50608051610d516100e45f395f81816102360152818161037a0152818161043301528181610494015281816105d801526106b60152610d515ff3fe608060405234801561000f575f80fd5b5060043610610086575f3560e01c806373bd43ad1161005957806373bd43ad14610102578063ad5c464814610132578063c31c9c0714610150578063c4b69a181461016e57610086565b8063089fe6aa1461008a5780631b6b6d23146100a85780633268cc56146100c657806357970e93146100e4575b5f80fd5b61009261019e565b60405161009f91906107ff565b60405180910390f35b6100b06101a4565b6040516100bd9190610857565b60405180910390f35b6100ce6101bc565b6040516100db9190610857565b60405180910390f35b6100ec6101d4565b6040516100f991906108cb565b60405180910390f35b61011c6004803603810190610117919061091b565b6101f7565b6040516101299190610955565b60405180910390f35b61013a610419565b6040516101479190610857565b60405180910390f35b610158610431565b604051610165919061098e565b60405180910390f35b610188600480360381019061018391906109a7565b610455565b6040516101959190610955565b60405180910390f35b610bb881565b73779877a7b0d9e8603169ddbd7836e478b462478981565b730227628f3f023bb0b980b67d528571c95c6dac1c81565b5f8054906101000a900473ffffffffffffffffffffffffffffffffffffffff1681565b5f805f9054906101000a900473ffffffffffffffffffffffffffffffffffffffff1673ffffffffffffffffffffffffffffffffffffffff1663095ea7b37f0000000000000000000000000000000000000000000000000000000000000000846040518363ffffffff1660e01b81526004016102739291906109e5565b6020604051808303815f875af115801561028f573d5f803e3d5ffd5b505050506040513d601f19601f820116820180604052508101906102b39190610a41565b505f60405180610100016040528073779877a7b0d9e8603169ddbd7836e478b462478973ffffffffffffffffffffffffffffffffffffffff16815260200173e67abda0d43f7ac8f37876bbf00d1dfadbb93aaa73ffffffffffffffffffffffffffffffffffffffff168152602001610bb862ffffff1681526020013073ffffffffffffffffffffffffffffffffffffffff1681526020014281526020018481526020015f81526020015f73ffffffffffffffffffffffffffffffffffffffff1681525090507f000000000000000000000000000000000000000000000000000000000000000073ffffffffffffffffffffffffffffffffffffffff1663414bf389826040518263ffffffff1660e01b81526004016103d19190610b48565b6020604051808303815f875af11580156103ed573d5f803e3d5ffd5b505050506040513d601f19601f820116820180604052508101906104119190610b76565b915050919050565b73e67abda0d43f7ac8f37876bbf00d1dfadbb93aaa81565b7f000000000000000000000000000000000000000000000000000000000000000081565b5f805f9054906101000a900473ffffffffffffffffffffffffffffffffffffffff1673ffffffffffffffffffffffffffffffffffffffff1663095ea7b37f0000000000000000000000000000000000000000000000000000000000000000846040518363ffffffff1660e01b81526004016104d19291906109e5565b6020604051808303815f875af11580156104ed573d5f803e3d5ffd5b505050506040513d601f19601f820116820180604052508101906105119190610a41565b505f60405180610100016040528073779877a7b0d9e8603169ddbd7836e478b462478973ffffffffffffffffffffffffffffffffffffffff16815260200173e67abda0d43f7ac8f37876bbf00d1dfadbb93aaa73ffffffffffffffffffffffffffffffffffffffff168152602001610bb862ffffff1681526020013073ffffffffffffffffffffffffffffffffffffffff1681526020014281526020018581526020018481526020015f73ffffffffffffffffffffffffffffffffffffffff1681525090507f000000000000000000000000000000000000000000000000000000000000000073ffffffffffffffffffffffffffffffffffffffff1663db3e2198826040518263ffffffff1660e01b815260040161062f9190610c41565b6020604051808303815f875af115801561064b573d5f803e3d5ffd5b505050506040513d601f19601f8201168201806040525081019061066f9190610b76565b9150828210156107db575f8054906101000a900473ffffffffffffffffffffffffffffffffffffffff1673ffffffffffffffffffffffffffffffffffffffff1663095ea7b37f00000000000000000000000000000000000000000000000000000000000000005f6040518363ffffffff1660e01b81526004016106f3929190610c94565b6020604051808303815f875af115801561070f573d5f803e3d5ffd5b505050506040513d601f19601f820116820180604052508101906107339190610a41565b505f8054906101000a900473ffffffffffffffffffffffffffffffffffffffff1673ffffffffffffffffffffffffffffffffffffffff1663a9059cbb30848661077c9190610ce8565b6040518363ffffffff1660e01b81526004016107999291906109e5565b6020604051808303815f875af11580156107b5573d5f803e3d5ffd5b505050506040513d601f19601f820116820180604052508101906107d99190610a41565b505b5092915050565b5f62ffffff82169050919050565b6107f9816107e2565b82525050565b5f6020820190506108125f8301846107f0565b92915050565b5f73ffffffffffffffffffffffffffffffffffffffff82169050919050565b5f61084182610818565b9050919050565b61085181610837565b82525050565b5f60208201905061086a5f830184610848565b92915050565b5f819050919050565b5f61089361088e61088984610818565b610870565b610818565b9050919050565b5f6108a482610879565b9050919050565b5f6108b58261089a565b9050919050565b6108c5816108ab565b82525050565b5f6020820190506108de5f8301846108bc565b92915050565b5f80fd5b5f819050919050565b6108fa816108e8565b8114610904575f80fd5b50565b5f81359050610915816108f1565b92915050565b5f602082840312156109305761092f6108e4565b5b5f61093d84828501610907565b91505092915050565b61094f816108e8565b82525050565b5f6020820190506109685f830184610946565b92915050565b5f6109788261089a565b9050919050565b6109888161096e565b82525050565b5f6020820190506109a15f83018461097f565b92915050565b5f80604083850312156109bd576109bc6108e4565b5b5f6109ca85828601610907565b92505060206109db85828601610907565b9150509250929050565b5f6040820190506109f85f830185610848565b610a056020830184610946565b9392505050565b5f8115159050919050565b610a2081610a0c565b8114610a2a575f80fd5b50565b5f81519050610a3b81610a17565b92915050565b5f60208284031215610a5657610a556108e4565b5b5f610a6384828501610a2d565b91505092915050565b610a7581610837565b82525050565b610a84816107e2565b82525050565b610a93816108e8565b82525050565b610aa281610818565b82525050565b61010082015f820151610abd5f850182610a6c565b506020820151610ad06020850182610a6c565b506040820151610ae36040850182610a7b565b506060820151610af66060850182610a6c565b506080820151610b096080850182610a8a565b5060a0820151610b1c60a0850182610a8a565b5060c0820151610b2f60c0850182610a8a565b5060e0820151610b4260e0850182610a99565b50505050565b5f61010082019050610b5c5f830184610aa8565b92915050565b5f81519050610b70816108f1565b92915050565b5f60208284031215610b8b57610b8a6108e4565b5b5f610b9884828501610b62565b91505092915050565b61010082015f820151610bb65f850182610a6c565b506020820151610bc96020850182610a6c565b506040820151610bdc6040850182610a7b565b506060820151610bef6060850182610a6c565b506080820151610c026080850182610a8a565b5060a0820151610c1560a0850182610a8a565b5060c0820151610c2860c0850182610a8a565b5060e0820151610c3b60e0850182610a99565b50505050565b5f61010082019050610c555f830184610ba1565b92915050565b5f819050919050565b5f610c7e610c79610c7484610c5b565b610870565b6108e8565b9050919050565b610c8e81610c64565b82525050565b5f604082019050610ca75f830185610848565b610cb46020830184610c85565b9392505050565b7f4e487b71000000000000000000000000000000000000000000000000000000005f52601160045260245ffd5b5f610cf2826108e8565b9150610cfd836108e8565b9250828203905081811115610d1557610d14610cbb565b5b9291505056fea2646970667358221220f0e40a4b9b4af222f7eac92a2bea63e5a4221deec1ad186d8b8f2e76404846f264736f6c63430008190033",
			"opcodes": "PUSH1 0xA0 PUSH1 0x40 MSTORE PUSH20 0x227628F3F023BB0B980B67D528571C95C6DAC1C PUSH20 0xFFFFFFFFFFFFFFFFFFFFFFFFFFFFFFFFFFFFFFFF AND PUSH1 0x80 SWAP1 PUSH20 0xFFFFFFFFFFFFFFFFFFFFFFFFFFFFFFFFFFFFFFFF AND DUP2 MSTORE POP PUSH20 0x779877A7B0D9E8603169DDBD7836E478B4624789 PUSH0 DUP1 PUSH2 0x100 EXP DUP2 SLOAD DUP2 PUSH20 0xFFFFFFFFFFFFFFFFFFFFFFFFFFFFFFFFFFFFFFFF MUL NOT AND SWAP1 DUP4 PUSH20 0xFFFFFFFFFFFFFFFFFFFFFFFFFFFFFFFFFFFFFFFF AND MUL OR SWAP1 SSTORE POP CALLVALUE DUP1 ISZERO PUSH1 0xA8 JUMPI PUSH0 DUP1 REVERT JUMPDEST POP PUSH1 0x80 MLOAD PUSH2 0xD51 PUSH2 0xE4 PUSH0 CODECOPY PUSH0 DUP2 DUP2 PUSH2 0x236 ADD MSTORE DUP2 DUP2 PUSH2 0x37A ADD MSTORE DUP2 DUP2 PUSH2 0x433 ADD MSTORE DUP2 DUP2 PUSH2 0x494 ADD MSTORE DUP2 DUP2 PUSH2 0x5D8 ADD MSTORE PUSH2 0x6B6 ADD MSTORE PUSH2 0xD51 PUSH0 RETURN INVALID PUSH1 0x80 PUSH1 0x40 MSTORE CALLVALUE DUP1 ISZERO PUSH2 0xF JUMPI PUSH0 DUP1 REVERT JUMPDEST POP PUSH1 0x4 CALLDATASIZE LT PUSH2 0x86 JUMPI PUSH0 CALLDATALOAD PUSH1 0xE0 SHR DUP1 PUSH4 0x73BD43AD GT PUSH2 0x59 JUMPI DUP1 PUSH4 0x73BD43AD EQ PUSH2 0x102 JUMPI DUP1 PUSH4 0xAD5C4648 EQ PUSH2 0x132 JUMPI DUP1 PUSH4 0xC31C9C07 EQ PUSH2 0x150 JUMPI DUP1 PUSH4 0xC4B69A18 EQ PUSH2 0x16E JUMPI PUSH2 0x86 JUMP JUMPDEST DUP1 PUSH4 0x89FE6AA EQ PUSH2 0x8A JUMPI DUP1 PUSH4 0x1B6B6D23 EQ PUSH2 0xA8 JUMPI DUP1 PUSH4 0x3268CC56 EQ PUSH2 0xC6 JUMPI DUP1 PUSH4 0x57970E93 EQ PUSH2 0xE4 JUMPI JUMPDEST PUSH0 DUP1 REVERT JUMPDEST PUSH2 0x92 PUSH2 0x19E JUMP JUMPDEST PUSH1 0x40 MLOAD PUSH2 0x9F SWAP2 SWAP1 PUSH2 0x7FF JUMP JUMPDEST PUSH1 0x40 MLOAD DUP1 SWAP2 SUB SWAP1 RETURN JUMPDEST PUSH2 0xB0 PUSH2 0x1A4 JUMP JUMPDEST PUSH1 0x40 MLOAD PUSH2 0xBD SWAP2 SWAP1 PUSH2 0x857 JUMP JUMPDEST PUSH1 0x40 MLOAD DUP1 SWAP2 SUB SWAP1 RETURN JUMPDEST PUSH2 0xCE PUSH2 0x1BC JUMP JUMPDEST PUSH1 0x40 MLOAD PUSH2 0xDB SWAP2 SWAP1 PUSH2 0x857 JUMP JUMPDEST PUSH1 0x40 MLOAD DUP1 SWAP2 SUB SWAP1 RETURN JUMPDEST PUSH2 0xEC PUSH2 0x1D4 JUMP JUMPDEST PUSH1 0x40 MLOAD PUSH2 0xF9 SWAP2 SWAP1 PUSH2 0x8CB JUMP JUMPDEST PUSH1 0x40 MLOAD DUP1 SWAP2 SUB SWAP1 RETURN JUMPDEST PUSH2 0x11C PUSH1 0x4 DUP1 CALLDATASIZE SUB DUP2 ADD SWAP1 PUSH2 0x117 SWAP2 SWAP1 PUSH2 0x91B JUMP JUMPDEST PUSH2 0x1F7 JUMP JUMPDEST PUSH1 0x40 MLOAD PUSH2 0x129 SWAP2 SWAP1 PUSH2 0x955 JUMP JUMPDEST PUSH1 0x40 MLOAD DUP1 SWAP2 SUB SWAP1 RETURN JUMPDEST PUSH2 0x13A PUSH2 0x419 JUMP JUMPDEST PUSH1 0x40 MLOAD PUSH2 0x147 SWAP2 SWAP1 PUSH2 0x857 JUMP JUMPDEST PUSH1 0x40 MLOAD DUP1 SWAP2 SUB SWAP1 RETURN JUMPDEST PUSH2 0x158 PUSH2 0x431 JUMP JUMPDEST PUSH1 0x40 MLOAD PUSH2 0x165 SWAP2 SWAP1 PUSH2 0x98E JUMP JUMPDEST PUSH1 0x40 MLOAD DUP1 SWAP2 SUB SWAP1 RETURN JUMPDEST PUSH2 0x188 PUSH1 0x4 DUP1 CALLDATASIZE SUB DUP2 ADD SWAP1 PUSH2 0x183 SWAP2 SWAP1 PUSH2 0x9A7 JUMP JUMPDEST PUSH2 0x455 JUMP JUMPDEST PUSH1 0x40 MLOAD PUSH2 0x195 SWAP2 SWAP1 PUSH2 0x955 JUMP JUMPDEST PUSH1 0x40 MLOAD DUP1 SWAP2 SUB SWAP1 RETURN JUMPDEST PUSH2 0xBB8 DUP2 JUMP JUMPDEST PUSH20 0x779877A7B0D9E8603169DDBD7836E478B4624789 DUP2 JUMP JUMPDEST PUSH20 0x227628F3F023BB0B980B67D528571C95C6DAC1C DUP2 JUMP JUMPDEST PUSH0 DUP1 SLOAD SWAP1 PUSH2 0x100 EXP SWAP1 DIV PUSH20 0xFFFFFFFFFFFFFFFFFFFFFFFFFFFFFFFFFFFFFFFF AND DUP2 JUMP JUMPDEST PUSH0 DUP1 PUSH0 SWAP1 SLOAD SWAP1 PUSH2 0x100 EXP SWAP1 DIV PUSH20 0xFFFFFFFFFFFFFFFFFFFFFFFFFFFFFFFFFFFFFFFF AND PUSH20 0xFFFFFFFFFFFFFFFFFFFFFFFFFFFFFFFFFFFFFFFF AND PUSH4 0x95EA7B3 PUSH32 0x0 DUP5 PUSH1 0x40 MLOAD DUP4 PUSH4 0xFFFFFFFF AND PUSH1 0xE0 SHL DUP2 MSTORE PUSH1 0x4 ADD PUSH2 0x273 SWAP3 SWAP2 SWAP1 PUSH2 0x9E5 JUMP JUMPDEST PUSH1 0x20 PUSH1 0x40 MLOAD DUP1 DUP4 SUB DUP2 PUSH0 DUP8 GAS CALL ISZERO DUP1 ISZERO PUSH2 0x28F JUMPI RETURNDATASIZE PUSH0 DUP1 RETURNDATACOPY RETURNDATASIZE PUSH0 REVERT JUMPDEST POP POP POP POP PUSH1 0x40 MLOAD RETURNDATASIZE PUSH1 0x1F NOT PUSH1 0x1F DUP3 ADD AND DUP3 ADD DUP1 PUSH1 0x40 MSTORE POP DUP2 ADD SWAP1 PUSH2 0x2B3 SWAP2 SWAP1 PUSH2 0xA41 JUMP JUMPDEST POP PUSH0 PUSH1 0x40 MLOAD DUP1 PUSH2 0x100 ADD PUSH1 0x40 MSTORE DUP1 PUSH20 0x779877A7B0D9E8603169DDBD7836E478B4624789 PUSH20 0xFFFFFFFFFFFFFFFFFFFFFFFFFFFFFFFFFFFFFFFF AND DUP2 MSTORE PUSH1 0x20 ADD PUSH20 0xE67ABDA0D43F7AC8F37876BBF00D1DFADBB93AAA PUSH20 0xFFFFFFFFFFFFFFFFFFFFFFFFFFFFFFFFFFFFFFFF AND DUP2 MSTORE PUSH1 0x20 ADD PUSH2 0xBB8 PUSH3 0xFFFFFF AND DUP2 MSTORE PUSH1 0x20 ADD ADDRESS PUSH20 0xFFFFFFFFFFFFFFFFFFFFFFFFFFFFFFFFFFFFFFFF AND DUP2 MSTORE PUSH1 0x20 ADD TIMESTAMP DUP2 MSTORE PUSH1 0x20 ADD DUP5 DUP2 MSTORE PUSH1 0x20 ADD PUSH0 DUP2 MSTORE PUSH1 0x20 ADD PUSH0 PUSH20 0xFFFFFFFFFFFFFFFFFFFFFFFFFFFFFFFFFFFFFFFF AND DUP2 MSTORE POP SWAP1 POP PUSH32 0x0 PUSH20 0xFFFFFFFFFFFFFFFFFFFFFFFFFFFFFFFFFFFFFFFF AND PUSH4 0x414BF389 DUP3 PUSH1 0x40 MLOAD DUP3 PUSH4 0xFFFFFFFF AND PUSH1 0xE0 SHL DUP2 MSTORE PUSH1 0x4 ADD PUSH2 0x3D1 SWAP2 SWAP1 PUSH2 0xB48 JUMP JUMPDEST PUSH1 0x20 PUSH1 0x40 MLOAD DUP1 DUP4 SUB DUP2 PUSH0 DUP8 GAS CALL ISZERO DUP1 ISZERO PUSH2 0x3ED JUMPI RETURNDATASIZE PUSH0 DUP1 RETURNDATACOPY RETURNDATASIZE PUSH0 REVERT JUMPDEST POP POP POP POP PUSH1 0x40 MLOAD RETURNDATASIZE PUSH1 0x1F NOT PUSH1 0x1F DUP3 ADD AND DUP3 ADD DUP1 PUSH1 0x40 MSTORE POP DUP2 ADD SWAP1 PUSH2 0x411 SWAP2 SWAP1 PUSH2 0xB76 JUMP JUMPDEST SWAP2 POP POP SWAP2 SWAP1 POP JUMP JUMPDEST PUSH20 0xE67ABDA0D43F7AC8F37876BBF00D1DFADBB93AAA DUP2 JUMP JUMPDEST PUSH32 0x0 DUP2 JUMP JUMPDEST PUSH0 DUP1 PUSH0 SWAP1 SLOAD SWAP1 PUSH2 0x100 EXP SWAP1 DIV PUSH20 0xFFFFFFFFFFFFFFFFFFFFFFFFFFFFFFFFFFFFFFFF AND PUSH20 0xFFFFFFFFFFFFFFFFFFFFFFFFFFFFFFFFFFFFFFFF AND PUSH4 0x95EA7B3 PUSH32 0x0 DUP5 PUSH1 0x40 MLOAD DUP4 PUSH4 0xFFFFFFFF AND PUSH1 0xE0 SHL DUP2 MSTORE PUSH1 0x4 ADD PUSH2 0x4D1 SWAP3 SWAP2 SWAP1 PUSH2 0x9E5 JUMP JUMPDEST PUSH1 0x20 PUSH1 0x40 MLOAD DUP1 DUP4 SUB DUP2 PUSH0 DUP8 GAS CALL ISZERO DUP1 ISZERO PUSH2 0x4ED JUMPI RETURNDATASIZE PUSH0 DUP1 RETURNDATACOPY RETURNDATASIZE PUSH0 REVERT JUMPDEST POP POP POP POP PUSH1 0x40 MLOAD RETURNDATASIZE PUSH1 0x1F NOT PUSH1 0x1F DUP3 ADD AND DUP3 ADD DUP1 PUSH1 0x40 MSTORE POP DUP2 ADD SWAP1 PUSH2 0x511 SWAP2 SWAP1 PUSH2 0xA41 JUMP JUMPDEST POP PUSH0 PUSH1 0x40 MLOAD DUP1 PUSH2 0x100 ADD PUSH1 0x40 MSTORE DUP1 PUSH20 0x779877A7B0D9E8603169DDBD7836E478B4624789 PUSH20 0xFFFFFFFFFFFFFFFFFFFFFFFFFFFFFFFFFFFFFFFF AND DUP2 MSTORE PUSH1 0x20 ADD PUSH20 0xE67ABDA0D43F7AC8F37876BBF00D1DFADBB93AAA PUSH20 0xFFFFFFFFFFFFFFFFFFFFFFFFFFFFFFFFFFFFFFFF AND DUP2 MSTORE PUSH1 0x20 ADD PUSH2 0xBB8 PUSH3 0xFFFFFF AND DUP2 MSTORE PUSH1 0x20 ADD ADDRESS PUSH20 0xFFFFFFFFFFFFFFFFFFFFFFFFFFFFFFFFFFFFFFFF AND DUP2 MSTORE PUSH1 0x20 ADD TIMESTAMP DUP2 MSTORE PUSH1 0x20 ADD DUP6 DUP2 MSTORE PUSH1 0x20 ADD DUP5 DUP2 MSTORE PUSH1 0x20 ADD PUSH0 PUSH20 0xFFFFFFFFFFFFFFFFFFFFFFFFFFFFFFFFFFFFFFFF AND DUP2 MSTORE POP SWAP1 POP PUSH32 0x0 PUSH20 0xFFFFFFFFFFFFFFFFFFFFFFFFFFFFFFFFFFFFFFFF AND PUSH4 0xDB3E2198 DUP3 PUSH1 0x40 MLOAD DUP3 PUSH4 0xFFFFFFFF AND PUSH1 0xE0 SHL DUP2 MSTORE PUSH1 0x4 ADD PUSH2 0x62F SWAP2 SWAP1 PUSH2 0xC41 JUMP JUMPDEST PUSH1 0x20 PUSH1 0x40 MLOAD DUP1 DUP4 SUB DUP2 PUSH0 DUP8 GAS CALL ISZERO DUP1 ISZERO PUSH2 0x64B JUMPI RETURNDATASIZE PUSH0 DUP1 RETURNDATACOPY RETURNDATASIZE PUSH0 REVERT JUMPDEST POP POP POP POP PUSH1 0x40 MLOAD RETURNDATASIZE PUSH1 0x1F NOT PUSH1 0x1F DUP3 ADD AND DUP3 ADD DUP1 PUSH1 0x40 MSTORE POP DUP2 ADD SWAP1 PUSH2 0x66F SWAP2 SWAP1 PUSH2 0xB76 JUMP JUMPDEST SWAP2 POP DUP3 DUP3 LT ISZERO PUSH2 0x7DB JUMPI PUSH0 DUP1 SLOAD SWAP1 PUSH2 0x100 EXP SWAP1 DIV PUSH20 0xFFFFFFFFFFFFFFFFFFFFFFFFFFFFFFFFFFFFFFFF AND PUSH20 0xFFFFFFFFFFFFFFFFFFFFFFFFFFFFFFFFFFFFFFFF AND PUSH4 0x95EA7B3 PUSH32 0x0 PUSH0 PUSH1 0x40 MLOAD DUP4 PUSH4 0xFFFFFFFF AND PUSH1 0xE0 SHL DUP2 MSTORE PUSH1 0x4 ADD PUSH2 0x6F3 SWAP3 SWAP2 SWAP1 PUSH2 0xC94 JUMP JUMPDEST PUSH1 0x20 PUSH1 0x40 MLOAD DUP1 DUP4 SUB DUP2 PUSH0 DUP8 GAS CALL ISZERO DUP1 ISZERO PUSH2 0x70F JUMPI RETURNDATASIZE PUSH0 DUP1 RETURNDATACOPY RETURNDATASIZE PUSH0 REVERT JUMPDEST POP POP POP POP PUSH1 0x40 MLOAD RETURNDATASIZE PUSH1 0x1F NOT PUSH1 0x1F DUP3 ADD AND DUP3 ADD DUP1 PUSH1 0x40 MSTORE POP DUP2 ADD SWAP1 PUSH2 0x733 SWAP2 SWAP1 PUSH2 0xA41 JUMP JUMPDEST POP PUSH0 DUP1 SLOAD SWAP1 PUSH2 0x100 EXP SWAP1 DIV PUSH20 0xFFFFFFFFFFFFFFFFFFFFFFFFFFFFFFFFFFFFFFFF AND PUSH20 0xFFFFFFFFFFFFFFFFFFFFFFFFFFFFFFFFFFFFFFFF AND PUSH4 0xA9059CBB ADDRESS DUP5 DUP7 PUSH2 0x77C SWAP2 SWAP1 PUSH2 0xCE8 JUMP JUMPDEST PUSH1 0x40 MLOAD DUP4 PUSH4 0xFFFFFFFF AND PUSH1 0xE0 SHL DUP2 MSTORE PUSH1 0x4 ADD PUSH2 0x799 SWAP3 SWAP2 SWAP1 PUSH2 0x9E5 JUMP JUMPDEST PUSH1 0x20 PUSH1 0x40 MLOAD DUP1 DUP4 SUB DUP2 PUSH0 DUP8 GAS CALL ISZERO DUP1 ISZERO PUSH2 0x7B5 JUMPI RETURNDATASIZE PUSH0 DUP1 RETURNDATACOPY RETURNDATASIZE PUSH0 REVERT JUMPDEST POP POP POP POP PUSH1 0x40 MLOAD RETURNDATASIZE PUSH1 0x1F NOT PUSH1 0x1F DUP3 ADD AND DUP3 ADD DUP1 PUSH1 0x40 MSTORE POP DUP2 ADD SWAP1 PUSH2 0x7D9 SWAP2 SWAP1 PUSH2 0xA41 JUMP JUMPDEST POP JUMPDEST POP SWAP3 SWAP2 POP POP JUMP JUMPDEST PUSH0 PUSH3 0xFFFFFF DUP3 AND SWAP1 POP SWAP2 SWAP1 POP JUMP JUMPDEST PUSH2 0x7F9 DUP2 PUSH2 0x7E2 JUMP JUMPDEST DUP3 MSTORE POP POP JUMP JUMPDEST PUSH0 PUSH1 0x20 DUP3 ADD SWAP1 POP PUSH2 0x812 PUSH0 DUP4 ADD DUP5 PUSH2 0x7F0 JUMP JUMPDEST SWAP3 SWAP2 POP POP JUMP JUMPDEST PUSH0 PUSH20 0xFFFFFFFFFFFFFFFFFFFFFFFFFFFFFFFFFFFFFFFF DUP3 AND SWAP1 POP SWAP2 SWAP1 POP JUMP JUMPDEST PUSH0 PUSH2 0x841 DUP3 PUSH2 0x818 JUMP JUMPDEST SWAP1 POP SWAP2 SWAP1 POP JUMP JUMPDEST PUSH2 0x851 DUP2 PUSH2 0x837 JUMP JUMPDEST DUP3 MSTORE POP POP JUMP JUMPDEST PUSH0 PUSH1 0x20 DUP3 ADD SWAP1 POP PUSH2 0x86A PUSH0 DUP4 ADD DUP5 PUSH2 0x848 JUMP JUMPDEST SWAP3 SWAP2 POP POP JUMP JUMPDEST PUSH0 DUP2 SWAP1 POP SWAP2 SWAP1 POP JUMP JUMPDEST PUSH0 PUSH2 0x893 PUSH2 0x88E PUSH2 0x889 DUP5 PUSH2 0x818 JUMP JUMPDEST PUSH2 0x870 JUMP JUMPDEST PUSH2 0x818 JUMP JUMPDEST SWAP1 POP SWAP2 SWAP1 POP JUMP JUMPDEST PUSH0 PUSH2 0x8A4 DUP3 PUSH2 0x879 JUMP JUMPDEST SWAP1 POP SWAP2 SWAP1 POP JUMP JUMPDEST PUSH0 PUSH2 0x8B5 DUP3 PUSH2 0x89A JUMP JUMPDEST SWAP1 POP SWAP2 SWAP1 POP JUMP JUMPDEST PUSH2 0x8C5 DUP2 PUSH2 0x8AB JUMP JUMPDEST DUP3 MSTORE POP POP JUMP JUMPDEST PUSH0 PUSH1 0x20 DUP3 ADD SWAP1 POP PUSH2 0x8DE PUSH0 DUP4 ADD DUP5 PUSH2 0x8BC JUMP JUMPDEST SWAP3 SWAP2 POP POP JUMP JUMPDEST PUSH0 DUP1 REVERT JUMPDEST PUSH0 DUP2 SWAP1 POP SWAP2 SWAP1 POP JUMP JUMPDEST PUSH2 0x8FA DUP2 PUSH2 0x8E8 JUMP JUMPDEST DUP2 EQ PUSH2 0x904 JUMPI PUSH0 DUP1 REVERT JUMPDEST POP JUMP JUMPDEST PUSH0 DUP2 CALLDATALOAD SWAP1 POP PUSH2 0x915 DUP2 PUSH2 0x8F1 JUMP JUMPDEST SWAP3 SWAP2 POP POP JUMP JUMPDEST PUSH0 PUSH1 0x20 DUP3 DUP5 SUB SLT ISZERO PUSH2 0x930 JUMPI PUSH2 0x92F PUSH2 0x8E4 JUMP JUMPDEST JUMPDEST PUSH0 PUSH2 0x93D DUP5 DUP3 DUP6 ADD PUSH2 0x907 JUMP JUMPDEST SWAP2 POP POP SWAP3 SWAP2 POP POP JUMP JUMPDEST PUSH2 0x94F DUP2 PUSH2 0x8E8 JUMP JUMPDEST DUP3 MSTORE POP POP JUMP JUMPDEST PUSH0 PUSH1 0x20 DUP3 ADD SWAP1 POP PUSH2 0x968 PUSH0 DUP4 ADD DUP5 PUSH2 0x946 JUMP JUMPDEST SWAP3 SWAP2 POP POP JUMP JUMPDEST PUSH0 PUSH2 0x978 DUP3 PUSH2 0x89A JUMP JUMPDEST SWAP1 POP SWAP2 SWAP1 POP JUMP JUMPDEST PUSH2 0x988 DUP2 PUSH2 0x96E JUMP JUMPDEST DUP3 MSTORE POP POP JUMP JUMPDEST PUSH0 PUSH1 0x20 DUP3 ADD SWAP1 POP PUSH2 0x9A1 PUSH0 DUP4 ADD DUP5 PUSH2 0x97F JUMP JUMPDEST SWAP3 SWAP2 POP POP JUMP JUMPDEST PUSH0 DUP1 PUSH1 0x40 DUP4 DUP6 SUB SLT ISZERO PUSH2 0x9BD JUMPI PUSH2 0x9BC PUSH2 0x8E4 JUMP JUMPDEST JUMPDEST PUSH0 PUSH2 0x9CA DUP6 DUP3 DUP7 ADD PUSH2 0x907 JUMP JUMPDEST SWAP3 POP POP PUSH1 0x20 PUSH2 0x9DB DUP6 DUP3 DUP7 ADD PUSH2 0x907 JUMP JUMPDEST SWAP2 POP POP SWAP3 POP SWAP3 SWAP1 POP JUMP JUMPDEST PUSH0 PUSH1 0x40 DUP3 ADD SWAP1 POP PUSH2 0x9F8 PUSH0 DUP4 ADD DUP6 PUSH2 0x848 JUMP JUMPDEST PUSH2 0xA05 PUSH1 0x20 DUP4 ADD DUP5 PUSH2 0x946 JUMP JUMPDEST SWAP4 SWAP3 POP POP POP JUMP JUMPDEST PUSH0 DUP2 ISZERO ISZERO SWAP1 POP SWAP2 SWAP1 POP JUMP JUMPDEST PUSH2 0xA20 DUP2 PUSH2 0xA0C JUMP JUMPDEST DUP2 EQ PUSH2 0xA2A JUMPI PUSH0 DUP1 REVERT JUMPDEST POP JUMP JUMPDEST PUSH0 DUP2 MLOAD SWAP1 POP PUSH2 0xA3B DUP2 PUSH2 0xA17 JUMP JUMPDEST SWAP3 SWAP2 POP POP JUMP JUMPDEST PUSH0 PUSH1 0x20 DUP3 DUP5 SUB SLT ISZERO PUSH2 0xA56 JUMPI PUSH2 0xA55 PUSH2 0x8E4 JUMP JUMPDEST JUMPDEST PUSH0 PUSH2 0xA63 DUP5 DUP3 DUP6 ADD PUSH2 0xA2D JUMP JUMPDEST SWAP2 POP POP SWAP3 SWAP2 POP POP JUMP JUMPDEST PUSH2 0xA75 DUP2 PUSH2 0x837 JUMP JUMPDEST DUP3 MSTORE POP POP JUMP JUMPDEST PUSH2 0xA84 DUP2 PUSH2 0x7E2 JUMP JUMPDEST DUP3 MSTORE POP POP JUMP JUMPDEST PUSH2 0xA93 DUP2 PUSH2 0x8E8 JUMP JUMPDEST DUP3 MSTORE POP POP JUMP JUMPDEST PUSH2 0xAA2 DUP2 PUSH2 0x818 JUMP JUMPDEST DUP3 MSTORE POP POP JUMP JUMPDEST PUSH2 0x100 DUP3 ADD PUSH0 DUP3 ADD MLOAD PUSH2 0xABD PUSH0 DUP6 ADD DUP3 PUSH2 0xA6C JUMP JUMPDEST POP PUSH1 0x20 DUP3 ADD MLOAD PUSH2 0xAD0 PUSH1 0x20 DUP6 ADD DUP3 PUSH2 0xA6C JUMP JUMPDEST POP PUSH1 0x40 DUP3 ADD MLOAD PUSH2 0xAE3 PUSH1 0x40 DUP6 ADD DUP3 PUSH2 0xA7B JUMP JUMPDEST POP PUSH1 0x60 DUP3 ADD MLOAD PUSH2 0xAF6 PUSH1 0x60 DUP6 ADD DUP3 PUSH2 0xA6C JUMP JUMPDEST POP PUSH1 0x80 DUP3 ADD MLOAD PUSH2 0xB09 PUSH1 0x80 DUP6 ADD DUP3 PUSH2 0xA8A JUMP JUMPDEST POP PUSH1 0xA0 DUP3 ADD MLOAD PUSH2 0xB1C PUSH1 0xA0 DUP6 ADD DUP3 PUSH2 0xA8A JUMP JUMPDEST POP PUSH1 0xC0 DUP3 ADD MLOAD PUSH2 0xB2F PUSH1 0xC0 DUP6 ADD DUP3 PUSH2 0xA8A JUMP JUMPDEST POP PUSH1 0xE0 DUP3 ADD MLOAD PUSH2 0xB42 PUSH1 0xE0 DUP6 ADD DUP3 PUSH2 0xA99 JUMP JUMPDEST POP POP POP POP JUMP JUMPDEST PUSH0 PUSH2 0x100 DUP3 ADD SWAP1 POP PUSH2 0xB5C PUSH0 DUP4 ADD DUP5 PUSH2 0xAA8 JUMP JUMPDEST SWAP3 SWAP2 POP POP JUMP JUMPDEST PUSH0 DUP2 MLOAD SWAP1 POP PUSH2 0xB70 DUP2 PUSH2 0x8F1 JUMP JUMPDEST SWAP3 SWAP2 POP POP JUMP JUMPDEST PUSH0 PUSH1 0x20 DUP3 DUP5 SUB SLT ISZERO PUSH2 0xB8B JUMPI PUSH2 0xB8A PUSH2 0x8E4 JUMP JUMPDEST JUMPDEST PUSH0 PUSH2 0xB98 DUP5 DUP3 DUP6 ADD PUSH2 0xB62 JUMP JUMPDEST SWAP2 POP POP SWAP3 SWAP2 POP POP JUMP JUMPDEST PUSH2 0x100 DUP3 ADD PUSH0 DUP3 ADD MLOAD PUSH2 0xBB6 PUSH0 DUP6 ADD DUP3 PUSH2 0xA6C JUMP JUMPDEST POP PUSH1 0x20 DUP3 ADD MLOAD PUSH2 0xBC9 PUSH1 0x20 DUP6 ADD DUP3 PUSH2 0xA6C JUMP JUMPDEST POP PUSH1 0x40 DUP3 ADD MLOAD PUSH2 0xBDC PUSH1 0x40 DUP6 ADD DUP3 PUSH2 0xA7B JUMP JUMPDEST POP PUSH1 0x60 DUP3 ADD MLOAD PUSH2 0xBEF PUSH1 0x60 DUP6 ADD DUP3 PUSH2 0xA6C JUMP JUMPDEST POP PUSH1 0x80 DUP3 ADD MLOAD PUSH2 0xC02 PUSH1 0x80 DUP6 ADD DUP3 PUSH2 0xA8A JUMP JUMPDEST POP PUSH1 0xA0 DUP3 ADD MLOAD PUSH2 0xC15 PUSH1 0xA0 DUP6 ADD DUP3 PUSH2 0xA8A JUMP JUMPDEST POP PUSH1 0xC0 DUP3 ADD MLOAD PUSH2 0xC28 PUSH1 0xC0 DUP6 ADD DUP3 PUSH2 0xA8A JUMP JUMPDEST POP PUSH1 0xE0 DUP3 ADD MLOAD PUSH2 0xC3B PUSH1 0xE0 DUP6 ADD DUP3 PUSH2 0xA99 JUMP JUMPDEST POP POP POP POP JUMP JUMPDEST PUSH0 PUSH2 0x100 DUP3 ADD SWAP1 POP PUSH2 0xC55 PUSH0 DUP4 ADD DUP5 PUSH2 0xBA1 JUMP JUMPDEST SWAP3 SWAP2 POP POP JUMP JUMPDEST PUSH0 DUP2 SWAP1 POP SWAP2 SWAP1 POP JUMP JUMPDEST PUSH0 PUSH2 0xC7E PUSH2 0xC79 PUSH2 0xC74 DUP5 PUSH2 0xC5B JUMP JUMPDEST PUSH2 0x870 JUMP JUMPDEST PUSH2 0x8E8 JUMP JUMPDEST SWAP1 POP SWAP2 SWAP1 POP JUMP JUMPDEST PUSH2 0xC8E DUP2 PUSH2 0xC64 JUMP JUMPDEST DUP3 MSTORE POP POP JUMP JUMPDEST PUSH0 PUSH1 0x40 DUP3 ADD SWAP1 POP PUSH2 0xCA7 PUSH0 DUP4 ADD DUP6 PUSH2 0x848 JUMP JUMPDEST PUSH2 0xCB4 PUSH1 0x20 DUP4 ADD DUP5 PUSH2 0xC85 JUMP JUMPDEST SWAP4 SWAP3 POP POP POP JUMP JUMPDEST PUSH32 0x4E487B7100000000000000000000000000000000000000000000000000000000 PUSH0 MSTORE PUSH1 0x11 PUSH1 0x4 MSTORE PUSH1 0x24 PUSH0 REVERT JUMPDEST PUSH0 PUSH2 0xCF2 DUP3 PUSH2 0x8E8 JUMP JUMPDEST SWAP2 POP PUSH2 0xCFD DUP4 PUSH2 0x8E8 JUMP JUMPDEST SWAP3 POP DUP3 DUP3 SUB SWAP1 POP DUP2 DUP2 GT ISZERO PUSH2 0xD15 JUMPI PUSH2 0xD14 PUSH2 0xCBB JUMP JUMPDEST JUMPDEST SWAP3 SWAP2 POP POP JUMP INVALID LOG2 PUSH5 0x6970667358 0x22 SLT KECCAK256 CREATE 0xE4 EXP 0x4B SWAP12 BLOBBASEFEE CALLCODE 0x22 0xF7 0xEA 0xC9 0x2A 0x2B 0xEA PUSH4 0xE5A4221D 0xEE 0xC1 0xAD XOR PUSH14 0x8B8F2E76404846F264736F6C6343 STOP ADDMOD NOT STOP CALLER "
		},
		"gasEstimates": {
			"creation": {
				"codeDepositCost": "681800",
				"executionCost": "infinite",
				"totalCost": "infinite"
			},
			"external": {
				"LINK()": "396",
				"WETH()": "395",
				"linkToken()": "infinite",
				"poolFee()": "332",
				"routerAddress()": "418",
				"swapExactInputSingle(uint256)": "infinite",
				"swapExactOutputSingle(uint256,uint256)": "infinite",
				"swapRouter()": "infinite"
			}
		},
		"methodIdentifiers": {
			"LINK()": "1b6b6d23",
			"WETH()": "ad5c4648",
			"linkToken()": "57970e93",
			"poolFee()": "089fe6aa",
			"routerAddress()": "3268cc56",
			"swapExactInputSingle(uint256)": "73bd43ad",
			"swapExactOutputSingle(uint256,uint256)": "c4b69a18",
			"swapRouter()": "c31c9c07"
		}
	},
	"abi": [
		{
			"inputs": [],
			"stateMutability": "nonpayable",
			"type": "constructor"
		},
		{
			"inputs": [],
			"name": "LINK",
			"outputs": [
				{
					"internalType": "address",
					"name": "",
					"type": "address"
				}
			],
			"stateMutability": "view",
			"type": "function"
		},
		{
			"inputs": [],
			"name": "WETH",
			"outputs": [
				{
					"internalType": "address",
					"name": "",
					"type": "address"
				}
			],
			"stateMutability": "view",
			"type": "function"
		},
		{
			"inputs": [],
			"name": "linkToken",
			"outputs": [
				{
					"internalType": "contract IERC20",
					"name": "",
					"type": "address"
				}
			],
			"stateMutability": "view",
			"type": "function"
		},
		{
			"inputs": [],
			"name": "poolFee",
			"outputs": [
				{
					"internalType": "uint24",
					"name": "",
					"type": "uint24"
				}
			],
			"stateMutability": "view",
			"type": "function"
		},
		{
			"inputs": [],
			"name": "routerAddress",
			"outputs": [
				{
					"internalType": "address",
					"name": "",
					"type": "address"
				}
			],
			"stateMutability": "view",
			"type": "function"
		},
		{
			"inputs": [
				{
					"internalType": "uint256",
					"name": "amountIn",
					"type": "uint256"
				}
			],
			"name": "swapExactInputSingle",
			"outputs": [
				{
					"internalType": "uint256",
					"name": "amountOut",
					"type": "uint256"
				}
			],
			"stateMutability": "nonpayable",
			"type": "function"
		},
		{
			"inputs": [
				{
					"internalType": "uint256",
					"name": "amountOut",
					"type": "uint256"
				},
				{
					"internalType": "uint256",
					"name": "amountInMaximum",
					"type": "uint256"
				}
			],
			"name": "swapExactOutputSingle",
			"outputs": [
				{
					"internalType": "uint256",
					"name": "amountIn",
					"type": "uint256"
				}
			],
			"stateMutability": "nonpayable",
			"type": "function"
		},
		{
			"inputs": [],
			"name": "swapRouter",
			"outputs": [
				{
					"internalType": "contract ISwapRouter",
					"name": "",
					"type": "address"
				}
			],
			"stateMutability": "view",
			"type": "function"
		}
	]
}